:107000000C9459380C947E390C9476380C9476385C
:107010000C9476380C9476380C9476380C94763838
:107020000C9476380C9476380C9476380C94763828
:107030000C9476380C9476380C9476380C94763818
:107040000C9466390C9476380C942E3E0C945C3E6D
:107050000C9476380C9476380C9476380C947638F8
:107060000C9476380C947638002E012E0206030D0F
:1070700004E905CA063D070C0B060D210E650F6AD3
:1070800010C8119312031534160117301818191669
:107090001B432156250026112D353EC30B08105BDE
:1070A00011F81547191D1A1C1BC71C001DB221B66B
:1070B00023EA11241FBECFEFD8E0DEBFCDBF12E020
:1070C000A0E0B1E0EEEEFDE702C005900D92A63D16
:1070D000B107D9F713E0A6EDB2E001C01D92A136C9
:1070E000B107E1F70E94483C0C94F53E0C9400383F
:1070F0000F931F93CF93DF93DA010FB7F894F999A9
:10710000FECFAB0183E0FB0180935700E89507B603
:1071100000FCFDCFFA0111E0BA0160587F4F8C915D
:1071200011963C91119720E0E901C80FD11D1296EC
:107130000E0110935700E89511243296E617F707D1
:1071400071F785E0FA0180935700E89507B600FCD7
:10715000FDCF81E180935700E8950FBF7894DF91D0
:10716000CF911F910F910895DC0111969C91119779
:1071700086E7982711969C93119712965C91129727
:1071800042E008C0FD01E20FF31F9452808198276E
:1071900090834F5F8C91242F30E0481798F3FD01C6
:1071A000E20FF31F8081852780830895DC0111960B
:1071B0009C91119786E7892711968C93119742E04D
:1071C00009C0FD01E20FF31F80819452982790833C
:1071D0004F5F982F8C91242F30E0481790F3FD01DA
:1071E000E20FF31F808112969C9189278083089576
:1071F00090E041E250E19B01220F331F87FD2160A7
:1072000077FD02C0B90103C0B901642775279F5FEC
:10721000983011F0880FEFCFCB010895CF93DF9313
:10722000C0E0D0E06FEF7FEFFE0184910E94F8385C
:10723000BC012196FFE6CE3FDF07B1F780E00E9458
:10724000F838BC0180E00E94F838FE0125913491A5
:1072500040E02817390709F441E0842FDF91CF91EE
:107260000895F89485B7982F916095BF8D7F85BF5D
:10727000E0E0F0E0099508958FB7F89495B7292FCD
:10728000216025BF926095BF8FBF089585B582604C
:1072900085BD16BCEEE6F0E08081816080830895B4
:1072A00081E08DBB82E08093690008955C9A80E55F
:1072B00093EC0197F1F75C9880ED97E028EC30E0D3
:1072C000F9013197F1F70197D9F708951F920F92BD
:1072D0000FB60F9211248F939F9316BC8091D70203
:1072E0009091D80201969093D8028093D7029F91F3
:1072F0008F910F900FBE0F901F9018951F920F92B5
:107300000FB60F9211242F933F934F935F936F9378
:107310007F938F939F93AF93BF93EF93FF93F894D3
:1073200085E293E00E94303D882319F081E080934C
:10733000D6027894FF91EF91BF91AF919F918F9179
:107340007F916F915F914F913F912F910F900FBE61
:107350000F901F9018950E940E39882371F080E0DD
:1073600091E00E94D13E84EC99E028EC30E0F901F4
:107370003197F1F70197D9F70895A8955C9A84ECB5
:1073800099E028EC30E0F9013197F1F70197D9F74E
:1073900084EC99E028EC30E0F9013197F1F701979E
:1073A000D9F784EC99E028EC30E0F9013197F1F756
:1073B0000197D9F784EC99E028EC30E0F901319796
:1073C000F1F70197D9F784EC99E028EC30E0F90166
:1073D0003197F1F70197D9F784EC99E028EC30E088
:1073E000F9013197F1F70197D9F784EC99E028EC8E
:1073F00030E0F9013197F1F70197D9F784EC99E082
:1074000028EC30E0F9013197F1F70197D9F75C9852
:1074100089E091E00E94D13E2EE088E190E00FB635
:10742000F894A895809360000FBE20936000FFCF72
:107430008091D7029091D8028153954788F08CE1D2
:1074400091E00E94D13E84EC99E028EC30E0F90113
:107450003197F1F70197D9F70E94AB390E94313982
:10746000089586E391E00E94D13EF89480E00E9466
:10747000CE3D7894089586E491E00E94D13EF89440
:1074800081E00E94CE3D789408950F931F938C0164
:107490000E94B438F894C80160E00E946F3D78946F
:1074A0001F910F910895DF93CF93CDB7DEB7659706
:1074B0000FB6F894DEBF0FBECDBF87E591E00E9406
:1074C000D13EDE011196E1EBF2E085E101900D92F3
:1074D0008150E1F7CE0101960E94453A65960FB6BC
:1074E000F894DEBF0FBECDBFCF91DF910895DF933B
:1074F000CF93CDB7DEB72B970FB6F894DEBF0FBE94
:10750000CDBFFC0191812091AE023091AF0240913C
:10751000B0025481658176818AE089839A8390E8FC
:107520009B8382E08C832D833E834F8358876987BA
:107530007A879B87CE0101960E94453A2B960FB61B
:10754000F894DEBF0FBECDBFCF91DF910895DF93DA
:10755000CF93CDB7DEB72B970FB6F894DEBF0FBE33
:10756000CDBFFC019091AE022091AF023091B002EC
:107570004081518172818AE089836A8380E88B83AC
:1075800082E08C839D832E833F83488759877A8747
:107590001B86CE0101960E94453A2B960FB6F894B1
:1075A000DEBF0FBECDBFCF91DF9108952F923F92E6
:1075B0004F925F927F928F929F92AF92BF92CF92A3
:1075C000DF92EF92FF920F931F93DF93CF93CDB78C
:1075D000DEB7C058D0400FB6F894DEBF0FBECDBFA7
:1075E0001092D8021092D70280E791E00E94D13E1B
:1075F00080912603082F10E00F5F1F4F772444244B
:107600005524CC24DD2488249924540101C0870109
:107610000E94A03E0E94183A8091D6028823C1F3AE
:1076200085E293E00E94D6381092D60290912C0306
:107630008091AE02981761F490912D038091AF0272
:10764000981731F490912E038091B002981719F099
:1076500089E891E006C0809128038A3C31F080EAF5
:1076600091E00E94D13E7801D2CF80912603E82E8E
:10767000FF24E016F106D1F0C8010196E816F906DC
:1076800079F481149104A104B10451F00150104027
:10769000089481089108A108B10889EB91E002C023
:1076A00085ED91E00E94D13E780102C0772049F536
:1076B00030902F032224809130032101480E511C69
:1076C00020E84216510419F084EF91E045C0809102
:1076D000250390E08C3891051CF08DE092E03CC0D1
:1076E000A5EFCA2EAFEFDA2EC80ED91ECE01019635
:1076F00021E333E0B901A6010E94EC3E77247394A4
:1077000021C080912503E82FF0E03997CF018C0D3F
:107710009D1D4816590618F48CE192E01DC021E029
:1077200030E02C0F3D1F2C0D3D1DC9012FE233E031
:10773000B901AF010E94EC3E8091250390E00997CA
:10774000C80ED91E80912703803209F060CFC4147F
:10775000D50429F08AE392E00E94D13E27C08FE54C
:1077600092E00E94D13E5C9AC501B401F7E0660F39
:10777000771F881F991FFA95D1F7AE014F5F5F4FB2
:107780000E9478380894811C911CA11CB11C08949B
:10779000E11CF11C1092D8021092D7025C9882E290
:1077A00093E0609126030E94A73A260177242FCF09
:1077B0000F931F93DF93CF9300D00F92CDB7DEB717
:1077C0008C01FC01828185FF10C085E792E00E9458
:1077D000D13EF8018481898385818A8386818B8368
:1077E000CE01019661810E94A73A0F900F900F90F1
:1077F000CF91DF911F910F9108958EE792E00E9443
:10780000D13E1092D8021092D7020E94A03E0E9450
:10781000183A8091D6028823C1F385E293E00E9452
:10782000D6381092D60290912C038091AE02981710
:1078300061F490912D038091AF02981731F49091EB
:107840002E038091B002981729F089E891E00E94F8
:10785000D13EDBCF809128038B3CA9F480E992E0F4
:107860000E94D13E809129038093220380912A03B4
:107870008093230380912B038093240385E293E07C
:107880000E94D83B089585E293E00E94773ABDCFED
:1078900014BEA89588E10FB6F8948093600010920A
:1078A00060000FBE549A0E9456390E9456390E94B9
:1078B0003C3985B5826085BD16BCEEE6F0E080817E
:1078C0008160808381E08DBB82E08093690088E0E5
:1078D00090E00E94863E0E94313A0E94533A0E94F4
:1078E000FD3B0E943B3A0E94FD3B0E94D63A80E05D
:1078F00090E008950F931F93DF93CF930F92CDB72E
:10790000DEB7982F82958F7006EC12E0F801E80F31
:10791000F11D808199830E94BB3E99819F70090F60
:10792000111DF80180810E94BB3E80E00F90CF9135
:10793000DF911F910F910895EF92FF920F931F9384
:10794000CF93DF937C018B01C0E0D0E00DC0F70145
:10795000EC0FFD1F80810E947A3C2196C017D10751
:1079600018F480E20E94BB3EC017D10780F380E08C
:10797000DF91CF911F910F91FF90EF9008958EBDF1
:107980000DB407FEFDCF8EB508952A982C99FECF31
:107990008EBD0DB407FEFDCF8EB52A9A089586E3FD
:1079A0000E94C53C8AE30E94C53C89E30E94C53C15
:1079B00008952A982C99FECF80648EBD0DB407FEE1
:1079C000FDCF8EB5FB0190E008C080818EBD0DB467
:1079D00007FEFDCF8EB59F5F31969417B0F32A9ABC
:1079E00008959C012A982C99FECF606C6EBD0DB451
:1079F00007FEFDCF8EB5F90190E007C01EBC0DB4A7
:107A000007FEFDCF8EB581939F5F9417B8F32A9A36
:107A100008952A982C99FECF682B6EBD0DB407FEF1
:107A2000FDCF8EB51EBC0DB407FEFDCF8EB52A9AD4
:107A3000089588E360EC0E94093D08952A982C99E6
:107A4000FECF2A9A84E30E94C53C80E797E1019724
:107A5000F1F70E94193D829586958695817008956B
:107A6000CF93DF93EC018BE360EC0E94093D282F5C
:107A700090E08F779070892B09F127FD1FC08FE36D
:107A800060E80E94093D482F88838D33B8F4CE0109
:107A900001966FE30E94F13C8FE360E80E94093D8C
:107AA0008FE360E80E94093D982F9F779093210310
:107AB000881F8827881F80931F0301C018828AE3CC
:107AC0000E94C53C86E30E94C53C84E30E94C53CFD
:107AD0008CE30E94C53C8881DF91CF9108950F937C
:107AE0001F93CF93DF93EC01162F86E30E94C53CD2
:107AF0008AE30E94C53C8BE30E94C53C1123B1F090
:107B000085E30E94C53C80ED97E028EC30E0F90168
:107B10003197F1F70197D9F780E496E028EC30E04F
:107B2000F9013197F1F70197D9F704C080ED97E09B
:107B30000197F1F748814F5F8FE3BE010E94D93C66
:107B40008AE30E94C53C85E30E94C53C10E00AE13F
:107B500085E360EC0E94093D8D3061F085E360ECC7
:107B60000E94093D833131F4802F8A95F1F71F5F20
:107B7000183C71F7DF91CF911F910F9108952A98CA
:107B80002C99FECF8EBD0DB407FEFDCF8EB56EBD18
:107B90000DB407FEFDCF8EB52A9A08951F93CF939B
:107BA000DF93182F229A239A2498259A52982A9A7A
:107BB0002D9A2B9880E58CBD2A9A982F9A95F1F7EB
:107BC0002A988A95F1F72A9A88E78A95F1F780E34F
:107BD0000E94C53C88EC90E00197F1F7C8E6D0E739
:107BE000FE0184912196FE0164910E94BF3D219681
:107BF000F0E7CC39DF07A1F7112371F0CCE9D0E72A
:107C0000FE0184912196FE0164910E94BF3D219660
:107C1000F0E7C23BDF07A1F783E30E94C53C80E4A5
:107C20009FE10197F1F784E30E94C53C85E360EC96
:107C30000E94093D8D30B9F78EE360EC0E94BF3D94
:107C400084E30E94C53C8CE30E94C53C80E797E139
:107C50000197F1F7DF91CF911F9108951F920F9235
:107C60000FB60F9211242F938F939F93EF93FF934F
:107C70009091C0002091C600E0911B03EF5FEF716F
:107C800080911C03E81711F492E007C09871E0930B
:107C90001B03F0E0E750FD4F208380911D03982BDC
:107CA00090931D03FF91EF919F918F912F910F90D2
:107CB0000FBE0F901F9018951F920F920FB60F9244
:107CC00011248F939F93EF93FF93909119038091C9
:107CD0001A03981769F0E0911A03EF5FEF71E093D0
:107CE0001A03F0E0E752FD4F80818093C60005C083
:107CF0008091C1008F7D8093C100FF91EF919F9192
:107D00008F910F900FBE0F901F9018959C011092AD
:107D1000190310921A0310921B0310921C0397FF71
:107D200004C082E08093C0003F773093C500209369
:107D3000C40088E98093C10086E08093C200089562
:107D400090911B0380911C03981719F420E031E0F7
:107D500010C0E0911C03EF5FEF71E0931C03F0E0B3
:107D6000E750FD4F808190911D0310921D03282F35
:107D700030E0C9010895282F909119039F5F9F71EA
:107D800080911A039817E1F3E92FF0E0E752FD4FD5
:107D90002083909319038091C10080628093C10079
:107DA0000895CF93DF93EC0103C021960E94BB3E60
:107DB00088818823D1F7DF91CF910895CF93DF9306
:107DC000EC0102C00E94BB3EFE01219684918823F3
:107DD000C9F7DF91CF910895FB01DC0102C001904A
:0E7DE0000D9241505040D8F70895F894FFCF0F
:107DEE00435243204F4B0D0A0043524320666169B4
:107DFE006C3A205265626F6F740D0A0054696D659E
:107E0E006F75742E2053746172742070726F677266
:107E1E00616D210A0D0053776974636820746F20B9
:107E2E0031306B0A0D0053776974636820746F20CC
:107E3E003130306B0A0D00533A20626F6F746C6FE5
:107E4E00616465722073657175656E63650A0D00F8
:107E5E005374617274207265636569766520666914
:107E6E00726D776172650A0D00476F7420646174DC
:107E7E00612C206E6F7420666F722075730A0D0070
:107E8E00476F74206F74686572206D6573736167D8
:107E9E006520747970650A0D0052657472616E7397
:107EAE006D69742E2057696C6C207265666C6173F7
:107EBE0068210A0D00464154414C3A2057726F6EAC
:107ECE0067206D73674964206465746563746564C7
:107EDE00210A0D00426C6F636B206973206E6F7404
:107EEE0020706167652073697A650A0D00426C6FB8
:107EFE00636B20746F206269670A0D00476F7420F0
:107F0E006D6F72652064617461207468616E2062A9
:107F1E006C6F636B6C656E0A0D00626C6F636B4CFD
:107F2E00656E20616E6420626C6F636B506F7320A0
:107F3E00646F206E6F74206D617463680A0D004764
:107F4E006F7420636F6D706C65746520626C6F6307
:107F5E006B210A0D00533A2061636B0A0D005761C5
:107F6E00697420666F72204342204D73670A0D00BC
:107F7E00476F74206D65737361676520746F20732E
:107F8E007461727420636F6E6669670A0D001ACA97
:107F9E00E5140000101ACAE50000000053454E30EB
:107FAE005448504C3032303132333435363738391C
:067FBE0041424344454628
:0F7FF000F10153454E305448504C30321ACAE517
:040000030000700089
:00000001FF
