:10E000000C942C710C9447720C9449710C944971C6
:10E010000C9449710C9449710C9449710C94497198
:10E020000C9449710C9449710C9449710C94497188
:10E030000C9449710C9449710C9449710C94497178
:10E040000C9449710C9449710C942F720C94497181
:10E050000C949A760C94C8760C9449710C9449717E
:10E060000C9449710C9449710C9449710C94497148
:10E070002E00626C6F636B4C656E20616E64206273
:10E080006C6F636B506F73206E6F74206D6174637F
:10E09000680A00446174612073697A65203E2062D9
:10E0A0006C6F636B4C656E0A00626C6F636B4C65E2
:10E0B0006E20213D207061676553697A650A0046CC
:10E0C0004154414C3A2057726F6E67206D73674917
:10E0D00064206465746563746564210A0052657424
:10E0E00072616E736D69742E2057696C6C20726555
:10E0F000666C617368210A00476F74206F746865ED
:10E1000072206D736720747970650A0053746172B0
:10E11000742072656365697665206669726D7761E2
:10E1200072650A00476F74206D736720746F2073E7
:10E130007461727420636F6E6669670A00476F745A
:10E14000206461746120627574206E6F7420666F44
:10E15000722075730A005761697420666F722043DC
:10E1600042204D73670A0054583A20626F6F746CF6
:10E170006F616465722073657175656E63650A0011
:10E1800054696D656F75740A00537461727420412F
:10E1900070700A00435243206661696C3A20426FF6
:10E1A0006F740A00435243204F4B0A0054583A20E0
:10E1B00041434B0A00537720746F203130306B0A93
:10E1C000005761697420666577207365636F6E64BC
:10E1D0007320666F7220636F6E6669672062746E6B
:10E1E0000A000A41736B53696E204F544120426FFD
:10E1F0006F746C6F616465722056302E362E320A51
:10E200000A00537720746F2031306B0A00002E0112
:10E210002E0206030D04E905CA063D070C0B060D88
:10E22000210E650F5010C8119312031534160117F3
:10E2300030181819161B432156250026112D353E7E
:10E24000C30B08105B11F81547191D1A1C1BC71CBE
:10E25000001DB221B623EA0011241FBECFEFD0E18A
:10E26000DEBFCDBF11E0A0E0B1E0E8EDFEEE02C000
:10E2700005900D92A231B107D9F711E0A2E1B1E00A
:10E2800001C01D92AA3AB107E1F70E94EF740C9405
:10E290006A770C9400702FB7F89485B7982F916027
:10E2A00095BF826085BF2FBF85B5826085BD16BCD6
:10E2B000EEE6F0E080818160808381E08DBB82E0CA
:10E2C0008093690008951F93CF93DF93DA01F89448
:10E2D000F999FECFAB0183E0FB0180935700E895ED
:10E2E00007B600FCFDCFFA0111E0BA0160507F4F84
:10E2F0008C9111963C91119720E0E901C80FD11D36
:10E3000012960E0110935700E89511243296E617E5
:10E31000F70771F785E0FA0180935700E89507B693
:10E3200000FCFDCF81E180935700E8957894DF9160
:10E33000CF911F910895DC0111969C91119786E76A
:10E34000982711969C93119712965C91129742E030
:10E3500008C0FD01E20FF31F94528081982790833B
:10E360004F5F8C91242F30E0481798F3FD01E20FA6
:10E37000F31F8081852780830895DC0111969C918D
:10E38000119786E7892711968C93119742E009C06F
:10E39000FD01E20FF31F80819452982790834F5F15
:10E3A000982F8C91242F30E0481790F3FD01E20F55
:10E3B000F31F808112969C9189278083089590E0B5
:10E3C00041E250E19B01220F331F87FD216077FD61
:10E3D00002C0B90103C0B901642775279F5F983057
:10E3E00011F0880FEFCFCB010895CF93DF936FEF3C
:10E3F0007FEFC0E0D0E0FE0184910E94DF71BC019C
:10E400002196FFEDCE3FDF07B1F780E00E94DF717C
:10E41000BC0180E00E94DF71FE012591349140E053
:10E420002817390709F441E0842FDF91CF9108952F
:10E43000289A20ED37E004C0F9013197F1F70197F0
:10E440000097D1F7289820ED37E005C0C901019762
:10E45000F1F76150704061157105C1F708951F9281
:10E460000F920FB60F9211248F939F9316BC809139
:10E47000130190911401019690931401809313015C
:10E480009F918F910F900FBE0F901F9018951F9224
:10E490000F920FB60F9211242F933F934F935F93D8
:10E4A0006F937F938F939F93AF93BF93EF93FF935C
:10E4B000F8948EE691E00E94B675882319F081E009
:10E4C000809312017894FF91EF91BF91AF919F914A
:10E4D0008F917F916F915F914F913F912F910F900D
:10E4E0000FBE0F901F90189589E891EE0E944A7711
:10E4F00084EC99E028EC30E0F9013197F1F70197CD
:10E50000D9F75F98F89485B7982F916095BF8D7F64
:10E5100085BFE0E0F0E0099508950E94F571882339
:10E5200029F084EA91EE0E944A77089580ED97E001
:10E5300061E070E00E941872A89584E991EE0E9453
:10E540004A772EE088E190E00FB6F894A895809382
:10E5500060000FBE20936000FFCF80911301909167
:10E5600014018153954740F080E891EE0E944A776C
:10E570000E948D720E94747208950F931F938C01F4
:10E580000E949B71F894C80160E00E94F575789430
:10E590001F910F9108950F931F93DF93CF93CDB7E2
:10E5A000DEB765970FB6F894DEBF0FBECDBF87E626
:10E5B00091EE0E944A779091680120916901309113
:10E5C0006A0140915A0150915B0160915C01709128
:10E5D0005D01E0915E01F0915F01A0916001B09159
:10E5E0006101109162010091630184E189831A82C3
:10E5F0001B8280E18C839D832E833F83188619863E
:10E600001A861B864C875D876E877F87E88BF98B20
:10E61000AA8BBB8B1C8B0D8BCE0101960E94BD7209
:10E6200065960FB6F894DEBF0FBECDBFCF91DF91D8
:10E630001F910F910895DF93CF93CDB7DEB72B973E
:10E640000FB6F894DEBF0FBECDBFFC0191812091C3
:10E6500068013091690140916A0154816581768138
:10E660008AE089839A8390E89B8382E08C832D8360
:10E670003E834F83588769877A879B87CE010196AF
:10E680000E94BD722B960FB6F894DEBF0FBECDBFB1
:10E69000CF91DF910895DF93CF93CDB7DEB72B975E
:10E6A0000FB6F894DEBF0FBECDBFFC01909168019C
:10E6B0002091690130916A014081518172818AE023
:10E6C00089836A8380E88B8382E08C839D832E8399
:10E6D0003F83488759877A871B86CE0101960E941F
:10E6E000BD722B960FB6F894DEBF0FBECDBFCF9193
:10E6F000DF9108952F923F924F925F926F927F9297
:10E700008F929F92AF92BF92CF92DF92EF92FF9241
:10E710000F931F93DF93CF93CDB7DEB7C050D14097
:10E720000FB6F894DEBF0FBECDBF10921401109249
:10E7300013018CE091EE0E944A7780916E01813145
:10E7400018F48824839403C080907F0183941091EF
:10E750006F01180D992466247724EE24FF24AA243F
:10E76000BB246501AAE72A2EA1E03A2E02C0992413
:10E77000102F0E94AD72809112018823D1F38EE692
:10E7800091E00E94BD7110921201909175018091EB
:10E790006801981761F4909176018091690198174A
:10E7A00031F49091770180916A01981719F080E017
:10E7B00091E006C0809171018A3C31F088EF90EEC3
:10E7C0000E944A77012FD4CF00916F010117E1F029
:10E7D000202F30E0812F90E001962817390771F43F
:10E7E000A114B104C104D10449F011500894A10846
:10E7F000B108C108D1088DED90EE02C08FEB90EE0C
:10E800000E944A77012F02C0992009F550907801A3
:10E810004424809179013201680E711C20E0621657
:10E8200021E0720619F089EA90EE3BC080916E01FA
:10E83000E82EFF2485EF9FEFE80EF91ECE0101962A
:10E84000B101A7010E9461779924939421C080911E
:10E850006E01E82FF0E03997CF018E0D9F1D6816ED
:10E86000790618F483E990EE1CC021E030E02C0F0B
:10E870003D1F2E0D3F1DC90128E731E0B901AF0151
:10E880000E94617780916E0190E00997E80EF91E71
:10E8900080917001803239F5E614F70429F082E79F
:10E8A00090EE0E944A7763CF80E790EE0E944A770D
:10E8B000289A9C2D8B2D7A2D6627AE014F5F5F4FD6
:10E8C0000E9463710894A11CB11CC11CD11C109240
:10E8D00014011092130128988BE691E060916F016A
:10E8E0000E944B7303C0992009F042CF00916F0141
:10E8F000080D31E0381508F03ACF07FF38CF00583F
:10E9000036CF0F931F93DF93CF9300D00F92CDB7E5
:10E91000DEB78C01FC01828185FF10C08CEA91EE8C
:10E920000E944A77F8018481898385818A83868160
:10E930008B83CE01019661810E944B730F900F90E3
:10E940000F90CF91DF911F910F91089586E591EE81
:10E950000E944A7710921401109213010E94AD7226
:10E96000809112018823D1F38EE691E00E94BD715F
:10E97000109212019091750180916801981761F4CD
:10E980009091760180916901981731F49091770107
:10E9900080916A01981729F08DE391EE0E944A77E1
:10E9A000DDCF809171018B3CA9F484E291EE0E944D
:10E9B0004A778091720180936B01809173018093FB
:10E9C0006C018091740180936D018EE691E00E944C
:10E9D000817408958EE691E00E941B73BFCF0F9360
:10E9E0001F93CF93DF9314B714BEA89588E10FB699
:10E9F000F89480936000109260000FBE209A89E125
:10EA000090E068EC70E00E9418720E944B7182E006
:10EA100092EE0E944A7780E00E94387688E090E08B
:10EA20000E94F27682EE91EE0E944A7757985F9AA2
:10EA30008AE18A95F1F70E94F571082F13FF14C03F
:10EA4000882391F081EC91EE0E944A77C0E0D0E0FB
:10EA500085E090E06FEE71E00E9418724F9B04C059
:10EA60002196C531D105A1F74F9B04C0002311F0B9
:10EA70000E94747289E190E068EC70E00E94187264
:10EA800088E691E06CEF7FEF43E050E00E9458771A
:10EA90008AE591E062EF7FEF4AE050E00E9458770C
:10EAA0000E94CB720E94A67485EB91EE0E944A7779
:10EAB00081E00E9438760E94A6740E947A7380E0FA
:10EAC00090E0DF91CF911F910F9108958EBD0DB40D
:10EAD00007FEFDCF8EB508952C982E99FECF8EBDE2
:10EAE0000DB407FEFDCF8EB52C9A08952C982E9963
:10EAF000FECF80648EBD0DB407FEFDCF8EB5FB0149
:10EB000090E008C080818EBD0DB407FEFDCF8EB5AC
:10EB10009F5F31969417B0F32C9A08959C012C981E
:10EB20002E99FECF606C6EBD0DB407FEFDCF8EB585
:10EB3000F90190E007C01EBC0DB407FEFDCF8EB5F5
:10EB400081939F5F9417B8F32C9A08952C982E996F
:10EB5000FECF682B6EBD0DB407FEFDCF8EB51EBC7B
:10EB60000DB407FEFDCF8EB52C9A0895CF93DF9399
:10EB7000EC018BE360EC0E94A675282F90E08F7764
:10EB80009070892B09F127FD1FC08FE360E80E9478
:10EB9000A675482F88838D33B8F4CE0101966FE3B4
:10EBA0000E948E758FE360E80E94A6758FE360E88F
:10EBB0000E94A675982F9F7790936701881F8827DA
:10EBC000881F8093650101C018828AE30E946C75DA
:10EBD00086E30E946C7584E30E946C758CE30E944E
:10EBE0006C758881DF91CF9108950F931F938C01ED
:10EBF00086E30E946C758AE30E946C758BE30E9429
:10EC00006C7580ED97E00197F1F7F80140814F5F57
:10EC10008FE3B8010E9476758AE30E946C7585E3E4
:10EC20000E946C7500E01AE185E360EC0E94A67515
:10EC30008D3061F085E360EC0E94A675833131F47C
:10EC4000812F8A95F1F70F5F083C71F71F910F91A3
:10EC500008952C982E99FECF8EBD0DB407FEFDCFE2
:10EC60008EB56EBD0DB407FEFDCF8EB52C9A0895FE
:10EC70001F93CF93DF93182FF894249A259A269800
:10EC8000279A52982C9A2F9A2D9880E58CBD2C9A11
:10EC9000982F9A95F1F72C988A95F1F72C9A88E796
:10ECA0008A95F1F780E30E946C7588EC90E00197FB
:10ECB000F1F7CDE0D2EEFE0184912196FE01649140
:10ECC0000E9429762196F2EEC134DF07A1F71123C5
:10ECD00071F0C1E4D2EEFE0184912196FE016491AF
:10ECE0000E9429762196F2EEC735DF07A1F783E36C
:10ECF0000E946C7580E49FE10197F1F784E30E9424
:10ED00006C7585E360EC0E94A6758D30B9F78EE3D3
:10ED100060EC0E94297684E30E946C758CE30E946B
:10ED20006C7580E797E10197F1F77894DF91CF91C7
:10ED30001F9108951F920F920FB60F9211242F93D7
:10ED40008F939F93EF93FF939091C0002091C60003
:10ED5000E0915701EF5FEF7180915801E81711F4CE
:10ED600092E007C09871E0935701F0E0EB5CFE4F32
:10ED7000208380915901982B90935901FF91EF9135
:10ED80009F918F912F910F900FBE0F901F9018950C
:10ED90001F920F920FB60F9211248F939F93EF93B0
:10EDA000FF939091550180915601981769F0E09179
:10EDB0005601EF5FEF71E0935601F0E0EB5EFE4F1E
:10EDC00080818093C60005C08091C1008F7D8093B3
:10EDD000C100FF91EF919F918F910F900FBE0F9007
:10EDE0001F9018959C011092550110925601109297
:10EDF00057011092580197FF04C082E08093C00031
:10EE00003F773093C5002093C40088E98093C10008
:10EE100086E08093C2000895909157018091580137
:10EE2000981719F420E031E010C0E0915801EF5F2D
:10EE3000EF71E0935801F0E0EB5CFE4F8081909120
:10EE4000590110925901282F30E0C9010895282F47
:10EE5000909155019F5F9F71809156019817E1F342
:10EE6000E92FF0E0EB5EFE4F2083909355018091F7
:10EE7000C10080628093C1000895CF93DF93EC01BD
:10EE800003C021960E94277788818823D1F7DF91DC
:10EE9000CF910895CF93DF93EC0102C00E942777B2
:10EEA000FE01219684918823C9F7DF91CF910895BF
:10EEB000FB01DC0102C005900D9241505040D8F793
:10EEC0000895FB01DC0102C001900D9241505040B9
:08EED000D8F70895F894FFCF74
:10EED80044617461206E6F7420666F722075730AC6
:02EEE800000028
:02FFF000009679
:0AFFF2004B455130303030303031D3
:03FFFC0012345666
:040000030000E00019
:00000001FF
