:107000000C9483380C9474390C94A0380C94A038E8
:107010000C94A0380C94A0380C94A0380C94A03890
:107020000C94A0380C94A0380C94A0380C94A03880
:107030000C94A0380C94A0380C94A0380C94A03870
:107040000C945C390C94A0380C944A3E0C94783E15
:107050000C94A0380C94A0380C94A0380C94A03850
:107060000C94A0380C94A0380000000024002700E5
:107070002A0000000000250028002B00010204085F
:107080001020408001020408102040800102040802
:1070900010204080804020100804020102020202F9
:1070A00002020202040404040404040403030303AC
:1070B000030303030101010101010101002E012E5F
:1070C0000206030D04E905CA063D070C0B060D2157
:1070D0000E650F6A10C8119312031534160117308C
:1070E000181819161B432156250026112D353EC3AD
:1070F0000B08105B11F81547191D1A1C1BC71C0043
:107100001DB221B623EA11241FBECFEFD8E0DEBFA7
:10711000CDBF12E0A0E0B1E0E6E2FEE702C00590DC
:107120000D92AA3BB107D9F713E0AAEBB2E001C078
:107130001D92A534B107E1F70E94CD3B0C94113F9D
:107140000C9400380F931F93CF93DF93DA010FB79E
:10715000F894F999FECFAB0183E0FB0180935700CF
:10716000E89507B600FCFDCFFA0111E0BA016058BE
:107170007F4F8C9111963C91119720E0E901C80F47
:10718000D11D12960E0110935700E89511243296E6
:10719000E617F70771F785E0FA0180935700E89545
:1071A00007B600FCFDCF81E180935700E8950FBF43
:1071B0007894DF91CF911F910F910895DC01119682
:1071C0009C91119786E7982711969C931197129698
:1071D0005C91129742E008C0FD01E20FF31F945248
:1071E0008081982790834F5F8C91242F30E048173F
:1071F00098F3FD01E20FF31F8081852780830895B6
:10720000DC0111969C91119786E7892711968C9342
:10721000119742E009C0FD01E20FF31F80819452F3
:10722000982790834F5F982F8C91242F30E0481738
:1072300090F3FD01E20FF31F808112969C91892744
:1072400080830895F89485B7982F916095BF8D7FBE
:1072500085BFE0E0F0E0099508958FB7F89495B701
:10726000292F216025BF926095BF8FBF089585B5F6
:10727000826085BD16BCEEE6F0E08081816080838F
:10728000089581E08DBB82E08093690008955C9A47
:1072900084EC99E028EC30E0F9013197F1F701979F
:1072A000D9F75C9884EC99E028EC30E0F90131974B
:1072B000F1F70197D9F708951F920F920FB60F9229
:1072C00011248F939F9316BC8091BB029091BC02B6
:1072D00001969093BC028093BB029F918F910F9077
:1072E0000FBE0F901F9018951F920F920FB60F921E
:1072F00011242F933F934F935F936F937F938F93BB
:107300009F93AF93BF93EF93FF93F89489E093E03B
:107310000E94303D882319F081E08093BA0278946E
:10732000FF91EF91BF91AF919F918F917F916F915D
:107330005F914F913F912F910F900FBE0F901F9033
:1073400018958091BB029091BC028153954778F0CB
:1073500080E091E00E94ED3E84EC99E028EC30E082
:10736000F9013197F1F70197D9F70E942239089571
:107370008AE191E00E94ED3EF89480E00E94D23DC7
:10738000789408958AE291E00E94ED3EF89481E0BD
:107390000E94D23D789408950F931F938C010E9410
:1073A000DE38F894C80160E00E946F3D78941F9128
:1073B0000F910895DF93CF93CDB7DEB765970FB6E2
:1073C000F894DEBF0FBECDBF8BE391E00E94ED3E8F
:1073D000DE011196E5E9F2E085E101900D92815020
:1073E000E1F7CE0101960E94CC3965960FB6F8946C
:1073F000DEBF0FBECDBFCF91DF910895DF93CF9356
:10740000CDB7DEB72B970FB6F894DEBF0FBECDBF5A
:10741000FC0191812091920230919302409194025B
:107420005481658176818AE089839A8390E89B8381
:1074300082E08C832D833E834F83588769877A87C8
:107440009B87CE0101960E94CC392B960FB6F894FB
:10745000DEBF0FBECDBFCF91DF910895DF93CF93F5
:10746000CDB7DEB72B970FB6F894DEBF0FBECDBFFA
:10747000FC019091920220919302309194024081FC
:10748000518172818AE089836A8380E88B8382E0FC
:107490008C839D832E833F83488759877A871B86F9
:1074A000CE0101960E94CC392B960FB6F894DEBF20
:1074B0000FBECDBFCF91DF9108952F923F924F9293
:1074C0005F927F928F929F92AF92BF92CF92DF9204
:1074D000EF92FF920F931F93DF93CF93CDB7DEB759
:1074E000C058D0400FB6F894DEBF0FBECDBF10928B
:1074F000BC021092BB0284E591E00E94ED3E8091B7
:107500000A03082F10E00F5F1F4F772444245524EF
:10751000CC24DD2488249924540101C087010E94D1
:10752000BC3E0E94A1398091BA028823C1F389E050
:1075300093E00E9400391092BA029091100380915A
:107540009202981761F49091110380919302981719
:1075500031F49091120380919402981719F08DE6FE
:1075600091E006C080910C038A3C31F084E891E000
:107570000E94ED3E7801D2CF80910A03E82EFF24CD
:10758000E016F106D1F0C8010196E816F90679F483
:1075900081149104A104B10451F0015010400894E9
:1075A00081089108A108B1088DE991E002C089EB3A
:1075B00091E00E94ED3E780102C0772049F53090BD
:1075C00013032224809114032101480E511C20E84A
:1075D0004216510419F088ED91E045C080910903ED
:1075E00090E08C3891051CF081EF91E03CC035EFC4
:1075F000C32E3FEFD32EC80ED91ECE01019625E132
:1076000033E0B901A6010E94083F7724739421C09A
:1076100080910903E82FF0E03997CF018C0D9D1D73
:107620004816590618F480E092E01DC021E030E0D1
:107630002C0F3D1F2C0D3D1DC90123E133E0B90185
:10764000AF010E94083F8091090390E00997C80E9E
:10765000D91E80910B03803209F060CFC414D50489
:1076600029F08EE192E00E94ED3E25C083E492E095
:107670000E94ED3EC501B40127E0660F771F881F09
:10768000991F2A95D1F7AE014F5F5F4F0E94A23834
:107690000894811C911CA11CB11C0894E11CF11CD4
:1076A0001092BC021092BB0286E093E060910A0344
:1076B0000E942E3A2601772431CF0F931F93DF9338
:1076C000CF9300D00F92CDB7DEB78C01FC01828141
:1076D00085FF10C089E592E00E94ED3EF8018481AB
:1076E000898385818A8386818B83CE01019661811E
:1076F0000E942E3A0F900F900F90CF91DF911F9123
:107700000F91089582E692E00E94ED3E1092BC0235
:107710001092BB020E94BC3E0E94A1398091BA0225
:107720008823C1F389E093E00E9400391092BA02E5
:107730009091100380919202981761F49091110337
:1077400080919302981731F49091120380919402E2
:10775000981729F08DE691E00E94ED3EDBCF8091F5
:107760000C038B3CA9F484E792E00E94ED3E8091EB
:107770000D038093060380910E038093070380918D
:107780000F038093080389E093E00E945D3B089516
:1077900089E093E00E94FE39BDCF14BEA89588E130
:1077A0000FB6F89480936000109260000FBE80E1E5
:1077B0008AB90E9447390E942D3985B5826085BDFE
:1077C00016BCEEE6F0E080818160808381E08DBBB5
:1077D00082E08093690088E090E00E94A23E0E94CF
:1077E000B8390E9447390E94DA390E94823B0E94D0
:1077F000C2390E94823B0E945D3A80E090E0089589
:107800000F931F93DF93CF930F92CDB7DEB7982FCF
:1078100082958F700AEA12E0F801E80FF11D80816D
:1078200099830E94D73E99819F70090F111DF8011D
:1078300080810E94D73E80E00F90CF91DF911F9111
:107840000F910895EF92FF920F931F93CF93DF93C1
:107850007C018B01C0E0D0E00DC0F701EC0FFD1FF3
:1078600080810E94003C2196C017D10718F480E265
:107870000E94D73EC017D10780F380E0DF91CF91FF
:107880001F910F91FF90EF900895CF93DF93482FB2
:1078900050E0CA0184589F48FC01349144565F4827
:1078A000FA018491882369F190E0880F991FFC0107
:1078B000E859FF48A591B491FC01EE58FF48C591E5
:1078C000D491662351F42FB7F8948C91932F90950F
:1078D00089238C93888189230BC0623061F42FB790
:1078E000F8948C91932F909589238C938881832B86
:1078F00088832FBF06C09FB7F8948C91832B8C93FD
:107900009FBFDF91CF91089532E004C0232F2A95C5
:10791000F1F701970097D1F7089520ED37E004C003
:10792000F9013197F1F701970097D1F70895282FC2
:1079300030E0C90184589F48FC01949124563F4887
:10794000F90184918823A1F0E82FF0E0EE0FFF1FEA
:10795000EE58FF48A591B4912FB7F894662321F40F
:107960008C919095892302C08C91892B8C932FBF89
:1079700008958EBD0DB407FEFDCF8EB508952A98EB
:107980001C99FECF8EBD0DB407FEFDCF8EB52A9A91
:10799000089586E30E94BF3C8AE30E94BF3C89E3CE
:1079A0000E94BF3C08952A981C99FECF80648EBD2A
:1079B0000DB407FEFDCF8EB5FB0190E008C08081BD
:1079C0008EBD0DB407FEFDCF8EB59F5F3196941727
:1079D000B0F32A9A08959C012A981C99FECF606CF6
:1079E0006EBD0DB407FEFDCF8EB5F90190E007C066
:1079F0001EBC0DB407FEFDCF8EB581939F5F94171B
:107A0000B8F32A9A08952A981C99FECF682B6EBD68
:107A10000DB407FEFDCF8EB51EBC0DB407FEFDCF25
:107A20008EB52A9A089588E360EC0E94033D08957C
:107A30002A981C99FECF2A9A84E30E94BF3C80EDCD
:107A400097E0FC013197F1F7FC013197F1F70197CD
:107A5000F1F70E94133D8295869586958170089571
:107A6000CF93DF93EC018BE360EC0E94033D282F62
:107A700090E08F779070892B09F127FD1FC08FE36D
:107A800060E80E94033D482F88838D33B8F4CE010F
:107A900001966FE30E94EB3C8FE360E80E94033D98
:107AA0008FE360E80E94033D982F9F779093050332
:107AB000881F8827881F8093030301C018828AE3E8
:107AC0000E94BF3C86E30E94BF3C84E30E94BF3C0F
:107AD0008CE30E94BF3C8881DF91CF9108950F9382
:107AE0001F93CF93DF93EC01162F86E30E94BF3CD8
:107AF0008AE30E94BF3C8BE30E94BF3C112329F420
:107B000080ED97E00197F1F711C085E30E94BF3C3B
:107B100028E631E040ED57E003C0CA010197F1F7D4
:107B2000215030408FEF2F3F3807B9F748814F5F22
:107B30008FE3BE010E94D33C8AE30E94BF3C85E3F1
:107B40000E94BF3C10E002E085E360EC0E94033D30
:107B50008D30A1F085E360EC0E94033D833171F428
:107B60008AE090E003C0202F2A95F1F701972FEFCC
:107B70008F3F9207C1F71F5F183C31F7DF91CF911C
:107B80001F910F9108952A981C99FECF8EBD0DB4B8
:107B900007FEFDCF8EB56EBD0DB407FEFDCF8EB5D1
:107BA0002A9A08951F93CF93DF93182F82E061E004
:107BB0000E94453C83E061E00E94453C84E060E037
:107BC0000E94453C85E061E00E94453C8AE060E01F
:107BD0000E94453C82E061E00E94973C85E061E0C4
:107BE0000E94973C83E060E00E94973C80E58CBD5A
:107BF0002A9A982F9A95F1F72A988A95F1F72A9A56
:107C000088E78A95F1F780E30E94BF3C88EC90E01A
:107C10000197F1F7CCEBD0E7FE0184912196FE01AC
:107C200064910E94C33D2196F0E7C03FDF07A1F7B2
:107C3000112371F0C0EFD0E7FE0184912196FE017F
:107C400064910E94C33D2196F1E7C630DF07A1F79A
:107C500083E30E94BF3C80E49FE10197F1F784E356
:107C60000E94BF3C85E360EC0E94033D8D30B9F774
:107C70008EE360EC0E94C33D84E30E94BF3C8CE332
:107C80000E94BF3C80E797E10197F1F7DF91CF9128
:107C90001F9108951F920F920FB60F9211242F93E8
:107CA0008F939F93EF93FF939091C0002091C60014
:107CB000E091FF02EF5FEF7180910003E81711F48C
:107CC00092E007C09871E093FF02F0E0E352FD4FAD
:107CD000208380910103982B90930103FF91EF91F2
:107CE0009F918F912F910F900FBE0F901F9018951D
:107CF0001F920F920FB60F9211248F939F93EF93C1
:107D0000FF939091FD028091FE02981769F0E09137
:107D1000FE02EF5FEF71E093FE02F0E0E354FD4FEF
:107D200080818093C60005C08091C1008F7D8093C3
:107D3000C100FF91EF919F918F910F900FBE0F9017
:107D40001F9018959C011092FD021092FE02109255
:107D5000FF021092000397FF04C082E08093C000EE
:107D60003F773093C5002093C40088E98093C10019
:107D700086E08093C20008959091FF0280910003F5
:107D8000981719F420E031E010C0E0910003EF5F94
:107D9000EF71E0930003F0E0E352FD4F808190919A
:107DA000010310920103282F30E0C9010895282F04
:107DB0009091FD029F5F9F718091FE029817E1F301
:107DC000E92FF0E0E354FD4F20839093FD02809172
:107DD000C10080628093C1000895CF93DF93EC01CE
:107DE00003C021960E94D73E88818823D1F7DF9176
:107DF000CF910895CF93DF93EC0102C00E94D73E4C
:107E0000FE01219684918823C9F7DF91CF910895CF
:107E1000FB01DC0102C001900D9241505040D8F7A7
:067E20000895F894FFCF65
:107E260054696D656F75742E205374617274207079
:107E3600726F6772616D210A0D005377697463680A
:107E460020746F2031306B0A0D00537769746368B4
:107E560020746F203130306B0A0D00533A20626F68
:107E66006F746C6F616465722073657175656E639E
:107E7600650A0D00537461727420726563656976D4
:107E860065206669726D776172650A0D00476F74C9
:107E960020646174612C206E6F7420666F72207589
:107EA600730A0D00476F74206F74686572206D65E4
:107EB600737361676520747970650A0D0052657485
:107EC60072616E736D69742E2057696C6C207265D1
:107ED600666C617368210A0D00464154414C3A2094
:107EE60057726F6E67206D736749642064657465A9
:107EF60063746564210A0D00426C6F636B206973BD
:107F0600206E6F7420706167652073697A650A0D4B
:107F160000426C6F636B20746F206269670A0D0004
:107F2600476F74206D6F7265206461746120746898
:107F3600616E20626C6F636B6C656E0A0D00626C1D
:107F46006F636B4C656E20616E6420626C6F636B51
:107F5600506F7320646F206E6F74206D6174636858
:107F66000A0D00476F7420636F6D706C6574652031
:107F7600626C6F636B210A0D00533A2061636B0AD2
:107F86000D005761697420666F72204342204D735D
:107F9600670A0D00476F74206D657373616765200E
:107FA600746F20737461727420636F6E6669670AFA
:107FB6000D00ABCDEF14000010ABCDEF00000000BC
:107FC60053454E305448504C3032303132333435CC
:0A7FD600363738394142434445462E
:040000030000700089
:00000001FF
