:107000000C941A390C94F2390C942C390C942C39B8
:107010000C942C390C942C390C942C390C942C395C
:107020000C942C390C942C390C942C390C942C394C
:107030000C942C390C942C390C942C390C942C393C
:107040000C94DA390C942C390C94FE3D0C942C3EA3
:107050000C942C390C942C390C942C390C942C391C
:107060000C942C390C942C392E007061676553698F
:107070007A6520616E6420626C6F636B506F732061
:107080006469666665720A00546F206D616E7920CE
:107090006461746120666F72207061676553697AFC
:1070A000650A00626C6F636B4C656E20646966668E
:1070B0006572207061676553697A650A0057726F5F
:1070C0006E67204D73674964210A005265747261CE
:1070D0006E736D69742C207265666C617368210A29
:1070E00000476F74206F74686572206D7367547900
:1070F00070650A0052656365697665206669726D20
:10710000776172650A00476F74204342206D736790
:107110000A005761697420666F72204342206D73C4
:10712000670A00545820626F6F746C6F61646572F7
:107130002073657175656E63650A0054696D656FCE
:1071400075740A005374617274204170700A0042B1
:107150006F6F746C6F616465722073656C665570D7
:1071600064617465210A00435243206661696C2C96
:10717000205265626F6F740A00435243204F4B0ADE
:107180000070616765416464722065786365656459
:107190007320666C617368206D656D6F72790A008B
:1071A00053776974636820746F203130306B206DC1
:1071B0006F64650A000A41736B53696E204F544136
:1071C00020426F6F746C6F616465722056302E3789
:1071D0002E300A0A0053776974636820746F203177
:1071E000306B206D6F64650A00002E012E020603CD
:1071F0000D04E905CA063D070C0B060D210E650FAF
:107200005010C811931203153416011730181819AD
:10721000161B432156250026112D353EC30B0810A1
:107220005B11F81547191D1A1C1BC71C001DB22144
:10723000B623EA0011241FBECFEFD8E0DEBFCDBFDA
:1072400011E0A0E0B1E001C01D92A13DB107E1F75E
:107250000E946E3C0C94CE3E0C9400382FB7F894EC
:1072600085B7982F916095BF826085BF2FBF85B588
:10727000826085BD16BCEEE6F0E08081816080838F
:1072800081E08DBB82E0809369000895CF93DF9306
:10729000809100018823D9F1F89410920001409167
:1072A0009501409359018091960196E78927809333
:1072B0005A01E6E9F1E0CBE5D1E0A1E5B1E030E04B
:1072C00022E013C090819452818198279883822F65
:1072D0008750833030F48C91981711F030E007C05C
:1072E00031E02F5F319621961196241758F3A22F83
:1072F000B0E0FD01EB56FE4F808190915B01892744
:10730000A75ABE4F8C937894832F311181E0DF917F
:10731000CF91089590E041E250E19B01220F331F8D
:1073200087FD216077FD02C0B90103C0B901642760
:1073300075279F5F983011F0880FEFCFCB0108952C
:10734000CF93DF936FEF7FEFC0E0D0E0FE01849139
:107350000E948A39BC012196FFE6CE3FDF07B1F7D4
:1073600080E00E948A39BC0180E00E948A39FE01D7
:107370002591349140E02817390709F441E0842F22
:10738000DF91CF9108955C9A20ED37E004C0F901B8
:107390003197F1F701970097D1F75C9820ED37E02E
:1073A00005C0C9010197F1F7615070406115710581
:1073B000C1F708951F920F920FB60F9211248F9369
:1073C0009F9316BC809101019091020101969093C8
:1073D0000201809301019F918F910F900FBE0F903A
:1073E0001F9018951F920F920FB60F9211242F9392
:1073F0003F934F935F936F937F938F939F93AF933D
:10740000BF93EF93FF93F89485E991E00E941A3DB2
:10741000882319F081E0809300017894FF91EF9127
:10742000BF91AF919F918F917F916F915F914F919C
:107430003F912F910F900FBE0F901F9018951F93A3
:10744000ECEFFFE68591949181519744A1F48FE48C
:1074500091E70E94AE3E80E09AEF0197F1F710E0CD
:1074600082E390E062E370E00E94C3391F5F1A304C
:10747000B9F70E94803F84E491E70E94AE3E80E02D
:107480009AEF0197F1F75C98F89485B7982F91607F
:1074900095BF8D7F85BFE0E0F0E009951F910895CD
:1074A0000E94A039882329F089E791E70E94AE3E27
:1074B000089580ED97E061E070E00E94C33987E6AF
:1074C00091E70E94AE3EA8952EE088E190E00FB6CD
:1074D000F894A895809360000FBE20936000FFCFC2
:1074E00080910101909102018153954740F08BE317
:1074F00091E70E94AE3E0E94503A0E941F3A0895C2
:107500001F93CF93DF93DA0161382FE6720720E0F3
:10751000820720E0920728F081E891E70E94AE3EC2
:1075200030C0F894F999FECFAB0183E0FB01809362
:107530005700E89507B600FCFDCFFA0111E0BA014B
:1075400060587F4F8C9111963C91119720E0E90192
:10755000C80FD11D12960E0110935700E895112403
:107560003296E617F70771F785E0FA018093570026
:10757000E89507B600FCFDCF81E180935700E895C0
:107580007894DF91CF911F910895DC0111969C9121
:10759000119786E7982711969C93119712965C9104
:1075A000129742E008C0FD01E20FF31F9452808160
:1075B000982790834F5F8C91242F30E0481798F3E1
:1075C000FD01E20FF31F808185278083F894CD01B0
:1075D00060E00E94593D789408950F931F93DF93C4
:1075E000CF93CDB7DEB765970FB6F894DEBF0FBE69
:1075F000CDBF83E291E70E94AE3E9091560120916B
:1076000057013091580140914801509149016091D2
:107610004A0170914B01E0914C01F0914D01A09114
:107620004E01B0914F01109150010091510184E140
:1076300089831A821B8280E18C839D832E833F8302
:10764000188619861A861B864C875D876E877F870A
:10765000E88BF98BAA8BBB8B1C8B0D8BCE01019613
:107660000E94C53A65960FB6F894DEBF0FBECDBF37
:10767000CF91DF911F910F910895DF93CF93CDB7F5
:10768000DEB72B970FB6F894DEBF0FBECDBFFC015F
:10769000A62F662319F4828185FF1CC09181209159
:1076A000560130915701409158015481658176818E
:1076B0008AE089839A8380E88B8382E08C832D83A0
:1076C0003E834F83588769877A87AB87CE010196BF
:1076D0000E94C53A2B960FB6F894DEBF0FBECDBF01
:1076E000CF91DF9108952F923F924F925F926F92C8
:1076F0007F928F929F92AF92BF92CF92DF92EF9242
:10770000FF920F931F93DF93CF93CDB7DEB7C0588F
:10771000D0400FB6F894DEBF0FBECDBFA0905A0187
:10772000109202011092010184EF90E70E94AE3E98
:10773000BB2400E010E0CC24DD2476012E01089467
:10774000411C511C83E6682E81E0782EB2E02B2E7E
:10775000312C260C371C02C0BB24B3940E94703A13
:107760000E9446398823D1F380915C018A3C19F04C
:1077700081EE90E731C080915A018A1581F4BB20D7
:1077800071F4C114D104E104F10449F00894C10872
:10779000D108E108F1088BEC90E70E94AE3E8091A1
:1077A0005A018A1550F425E42A1520F48A2D8155B2
:1077B000843A18F48DEB90E748C0BB20E1F4909038
:1077C00063018824809164019401280F311D2038C1
:1077D000310529F083EA90E70E94AE3EBFCF809149
:1077E0005901082F10E00B501040C201B101A8014F
:1077F0000E94C53E20C080915901E82FF0E03997E2
:10780000CF01800F911F8138910518F088E890E72B
:107810001CC09201200F311FC901B301AF010E94AA
:10782000C53E8091590190E00997080F191F31E07A
:10783000B31609F093CF80915B01803209F08CCFB1
:107840000038110529F08AE690E70E94AE3E22C07A
:1078500088E690E70E94AE3E5C9AC701B601A7E0B9
:10786000660F771F881F991FAA95D1F7A2010E9462
:10787000803A0894C11CD11CE11CF11C1092020139
:10788000109201015C98A0905A0189E591E060E0B6
:107890000E943D3BBB2462CF82E191E70E94AE3E55
:1078A00010920201109201010E94703A0E94463922
:1078B0008823D1F380915C018B3C51F486E091E701
:1078C0000E94AE3E89E591E060E00E943D3B089554
:1078D00089E591E060E80E943D3BE6CF1F9314B735
:1078E00014BEA89588E10FB6F894809360001092BA
:1078F00060000FBE549A89E190E068EC70E00E944D
:10790000C3390E942E3985ED91E70E94AE3E80E09A
:107910000E949C3D88E090E00E94563E85EB91E7F6
:107920000E94AE3E2098289A8AE18A95F1F7189B2A
:1079300008C013FD06C00E94A039882311F00E94E0
:107940001F3A89E190E068EC70E00E94C33986E557
:1079500091E06CEF7FE743E050E00E94BC3E88E49A
:1079600091E062EF7FE74AE050E00E94BC3E0E9457
:10797000ED3A0E944C3C80EA91E70E94AE3E81E0E5
:107980000E949C3D0E944C3C0E94733B80E090E032
:107990001F9108958EBD0DB407FEFDCF8EB50895DD
:1079A0002A982C99FECF8EBD0DB407FEFDCF8EB563
:1079B0002A9A08952A982C99FECF80648EBD0DB422
:1079C00007FEFDCF8EB5FB0190E008C080818EBD23
:1079D0000DB407FEFDCF8EB59F5F31969417B0F3BF
:1079E0002A9A08959C012A982C99FECF606C6EBD4E
:1079F0000DB407FEFDCF8EB5F90190E007C01EBCA7
:107A00000DB407FEFDCF8EB581939F5F9417B8F339
:107A10002A9A08952A982C99FECF682B6EBD0DB432
:107A200007FEFDCF8EB51EBC0DB407FEFDCF8EB593
:107A30002A9A0895CF93DF93EC018BE360EC0E94C8
:107A40000A3D282F90E08F779070892B09F127FD50
:107A50001FC08FE360E80E940A3D482F88838D3362
:107A6000B8F4CE0101966FE30E94F23C8FE360E828
:107A70000E940A3D8FE360E80E940A3D982F9F779D
:107A800090935501881F8827881F8093530101C058
:107A900018828AE30E94D03C86E30E94D03C84E3B3
:107AA0000E94D03C8CE30E94D03C8881DF91CF9132
:107AB00008950F931F938C0186E30E94D03C8AE3C4
:107AC0000E94D03C8BE30E94D03C80ED97E0019770
:107AD000F1F7F80140814F5F8FE3B8010E94DA3C73
:107AE0008AE30E94D03C85E30E94D03C00E01AE18A
:107AF00085E360EC0E940A3D8D3061F085E360EC27
:107B00000E940A3D833131F4812F8A95F1F70F5F8E
:107B1000083C71F71F910F9108952A982C99FECF78
:107B20008EBD0DB407FEFDCF8EB56EBD0DB407FE44
:107B3000FDCF8EB52A9A08951F93CF93DF93182F08
:107B4000F894229A239A2498259A52982A9A2D9A40
:107B50002B9880E58CBD2A9A982F9A95F1F72A9850
:107B60008A95F1F72A9A88E78A95F1F780E30E94CF
:107B7000D03C88EC90E00197F1F7C9EED1E7FE0127
:107B800084912196FE0164910E948D3D2196F2E739
:107B9000CD31DF07A1F7112371F0CDE1D2E7FE016E
:107BA00084912196FE0164910E948D3D2196F2E719
:107BB000C333DF07A1F783E30E94D03C80E49FE159
:107BC0000197F1F784E30E94D03C85E360EC0E94CA
:107BD0000A3D8D30B9F78EE360EC0E948D3D84E361
:107BE0000E94D03C8CE30E94D03C80E797E1019753
:107BF000F1F77894DF91CF911F9108951F920F9222
:107C00000FB60F9211242F938F939F93EF93FF93AF
:107C10009091C0002091C600E0914501EF5FEF71A7
:107C200080914601E81711F492E007C09871E09343
:107C30004501F0E0ED5DFE4F208380914701982BD8
:107C400090934701FF91EF919F918F912F910F900A
:107C50000FBE0F901F9018951F920F920FB60F92A4
:107C600011248F939F93EF93FF9390914301809101
:107C70004401981769F0E0914401EF5FEF71E093E0
:107C80004401F0E0ED5FFE4F80818093C60005C0A7
:107C90008091C1008F7D8093C100FF91EF919F91F2
:107CA0008F910F900FBE0F901F9018959C0110920E
:107CB000430110924401109245011092460197FF32
:107CC00004C082E08093C0003F773093C5002093CA
:107CD000C40088E98093C10086E08093C2000895C3
:107CE0009091450180914601981719F420E031E008
:107CF00010C0E0914601EF5FEF71E0934601F0E0C4
:107D0000ED5DFE4F80819091470110924701282F31
:107D100030E0C9010895282F909143019F5F9F7122
:107D2000809144019817E1F3E92FF0E0ED5FFE4FF9
:107D30002083909343018091C10080628093C100B1
:107D40000895CF93DF93EC0103C021960E948B3EF0
:107D500088818823D1F7DF91CF910895CF93DF9366
:107D6000EC0102C00E948B3EFE0121968491882383
:107D7000C9F7DF91CF910895FB01DC0102C00590A6
:107D80000D9241505040D8F70895FB01DC0102C02C
:107D900001900D9241505040D8F70895F894FFCFCC
:107F0000FF920F931F93CF93DF93F8945C9AC0E096
:107F1000D0E7F3E0FF2E01E015E0FE01F0925700FC
:107F2000E89507B600FCFDCFAE0140505047BE01BA
:107F3000DE01A058BF46FA0185919491FB010C0126
:107F400000935700E89511244E5F5F4F6E5F7F4F9F
:107F50004A175B0781F7FE0110935700E89507B6B3
:107F600000FCFDCFC058DF4FFEE7C038DF07A9F6A1
:107F7000E0E8FFE683E080935700E89507B600FC51
:107F8000FDCF81E180935700E8955C982EE088E171
:107F900090E00FB6F894A895809360000FBE2093F0
:047FA0006000FFCFAF
:027FF000F1029C
:0A7FF2005557533734373531333417
:037FFC00EAD5C7FC
:040000030000700089
:00000001FF
