:107000000C9459380C947E390C9476380C9476385C
:107010000C9476380C9476380C9476380C94763838
:107020000C9476380C9476380C9476380C94763828
:107030000C9476380C9476380C9476380C94763818
:107040000C9466390C9476380C942E3E0C945C3E6D
:107050000C9476380C9476380C9476380C947638F8
:107060000C9476380C947638002E012E0206030D0F
:1070700004E905CA063D070C0B060D210E650F6AD3
:1070800010C8119312031534160117301818191669
:107090001B432156250026112D353EC30B08105BDE
:1070A00011F81547191D1A1C1BC71C001DB221B66B
:1070B00023EA11241FBECFEFD8E0DEBFCDBF12E020
:1070C000A0E0B1E0EEEEFDE702C005900D92A63C17
:1070D000B107D9F713E0A6ECB2E001C01D92A135CB
:1070E000B107E1F70E94483C0C94F53E0C9400383F
:1070F0000F931F93CF93DF93DA010FB7F894F999A9
:10710000FECFAB0183E0FB0180935700E89507B603
:1071100000FCFDCFFA0111E0BA0160587F4F8C915D
:1071200011963C91119720E0E901C80FD11D1296EC
:107130000E0110935700E89511243296E617F707D1
:1071400071F785E0FA0180935700E89507B600FCD7
:10715000FDCF81E180935700E8950FBF7894DF91D0
:10716000CF911F910F910895DC0111969C91119779
:1071700086E7982711969C93119712965C91129727
:1071800042E008C0FD01E20FF31F9452808198276E
:1071900090834F5F8C91242F30E0481798F3FD01C6
:1071A000E20FF31F8081852780830895DC0111960B
:1071B0009C91119786E7892711968C93119742E04D
:1071C00009C0FD01E20FF31F80819452982790833C
:1071D0004F5F982F8C91242F30E0481790F3FD01DA
:1071E000E20FF31F808112969C9189278083089576
:1071F00090E041E250E19B01220F331F87FD2160A7
:1072000077FD02C0B90103C0B901642775279F5FEC
:10721000983011F0880FEFCFCB010895CF93DF9313
:10722000C0E0D0E06FEF7FEFFE0184910E94F8385C
:10723000BC012196FFE6CE3FDF07B1F780E00E9458
:10724000F838BC0180E00E94F838FE0125913491A5
:1072500040E02817390709F441E0842FDF91CF91EE
:107260000895F89485B7982F916095BF8D7F85BF5D
:10727000E0E0F0E0099508958FB7F89495B7292FCD
:10728000216025BF926095BF8FBF089585B582604C
:1072900085BD16BCEEE6F0E08081816080830895B4
:1072A00081E08DBB82E08093690008955C9A80E55F
:1072B00093EC0197F1F75C9880ED97E028EC30E0D3
:1072C000F9013197F1F70197D9F708951F920F92BD
:1072D0000FB60F9211248F939F9316BC8091C70213
:1072E0009091C80201969093C8028093C7029F9123
:1072F0008F910F900FBE0F901F9018951F920F92B5
:107300000FB60F9211242F933F934F935F936F9378
:107310007F938F939F93AF93BF93EF93FF93F894D3
:1073200085E193E00E94303D882319F081E080934D
:10733000C6027894FF91EF91BF91AF919F918F9189
:107340007F916F915F914F913F912F910F900FBE61
:107350000F901F9018950E940E39882371F080E0DD
:1073600091E00E94D13E84EC99E028EC30E0F901F4
:107370003197F1F70197D9F70895A8955C9A84ECB5
:1073800099E028EC30E0F9013197F1F70197D9F74E
:1073900084EC99E028EC30E0F9013197F1F701979E
:1073A000D9F784EC99E028EC30E0F9013197F1F756
:1073B0000197D9F784EC99E028EC30E0F901319796
:1073C000F1F70197D9F784EC99E028EC30E0F90166
:1073D0003197F1F70197D9F784EC99E028EC30E088
:1073E000F9013197F1F70197D9F784EC99E028EC8E
:1073F00030E0F9013197F1F70197D9F784EC99E082
:1074000028EC30E0F9013197F1F70197D9F75C9852
:1074100089E091E00E94D13E2EE088E190E00FB635
:10742000F894A895809360000FBE20936000FFCF72
:107430008091C7029091C8028153954788F08CE1F2
:1074400091E00E94D13E84EC99E028EC30E0F90113
:107450003197F1F70197D9F70E94AB390E94313982
:10746000089585E391E00E94D13EF89480E00E9467
:10747000CE3D7894089584E491E00E94D13EF89442
:1074800081E00E94CE3D789408950F931F938C0164
:107490000E94B438F894C80160E00E946F3D78946F
:1074A0001F910F910895DF93CF93CDB7DEB7659706
:1074B0000FB6F894DEBF0FBECDBF84E591E00E9409
:1074C000D13EDE011196E0EAF2E085E101900D92F5
:1074D0008150E1F7CE0101960E94453A65960FB6BC
:1074E000F894DEBF0FBECDBFCF91DF910895DF933B
:1074F000CF93CDB7DEB72B970FB6F894DEBF0FBE94
:10750000CDBFFC01918120919D0230919E0240915E
:107510009F025481658176818AE089839A8390E80D
:107520009B8382E08C832D833E834F8358876987BA
:107530007A879B87CE0101960E94453A2B960FB61B
:10754000F894DEBF0FBECDBFCF91DF910895DF93DA
:10755000CF93CDB7DEB72B970FB6F894DEBF0FBE33
:10756000CDBFFC0190919D0220919E0230919F021F
:107570004081518172818AE089836A8380E88B83AC
:1075800082E08C839D832E833F83488759877A8747
:107590001B86CE0101960E94453A2B960FB6F894B1
:1075A000DEBF0FBECDBFCF91DF9108952F923F92E6
:1075B0004F925F927F928F929F92AF92BF92CF92A3
:1075C000DF92EF92FF920F931F93DF93CF93CDB78C
:1075D000DEB7C058D0400FB6F894DEBF0FBECDBFA7
:1075E0001092C8021092C7028CE691E00E94D13E30
:1075F00080911603082F10E00F5F1F4F772444245B
:107600005524CC24DD2488249924540101C0870109
:107610000E94A03E0E94183A8091C6028823C1F3BE
:1076200085E193E00E94D6381092C60290911C0327
:1076300080919D02981761F490911D0380919E02A4
:10764000981731F490911E0380919F02981719F0BA
:1076500084E891E006C0809118038A3C31F08AE901
:1076600091E00E94D13E7801D2CF80911603E82E9E
:10767000FF24E016F106D1F0C8010196E816F906DC
:1076800079F481149104A104B10451F00150104027
:10769000089481089108A108B10882EB91E002C02A
:1076A0008DEC91E00E94D13E780102C0772049F52F
:1076B00030901F032224809120032101480E511C89
:1076C00020E84216510419F08BEE91E045C08091FC
:1076D000150390E08C3891051CF083E092E03CC0EB
:1076E000A5EFCA2EAFEFDA2EC80ED91ECE01019635
:1076F00021E233E0B901A6010E94EC3E77247394A5
:1077000021C080911503E82FF0E03997CF018C0D4F
:107710009D1D4816590618F481E192E01DC021E034
:1077200030E02C0F3D1F2C0D3D1DC9012FE133E032
:10773000B901AF010E94EC3E8091150390E00997DA
:10774000C80ED91E80911703803209F060CFC4148F
:10775000D50429F08EE292E00E94D13E27C082E556
:1077600092E00E94D13E5C9AC501B401F7E0660F39
:10777000771F881F991FFA95D1F7AE014F5F5F4FB2
:107780000E9478380894811C911CA11CB11C08949B
:10779000E11CF11C1092C8021092C7025C9882E1B1
:1077A00093E0609116030E94A73A260177242FCF19
:1077B0000F931F93DF93CF9300D00F92CDB7DEB717
:1077C0008C01FC01828185FF10C087E692E00E9457
:1077D000D13EF8018481898385818A8386818B8368
:1077E000CE01019661810E94A73A0F900F900F90F1
:1077F000CF91DF911F910F9108958FE692E00E9443
:10780000D13E1092C8021092C7020E94A03E0E9470
:10781000183A8091C6028823C1F385E193E00E9463
:10782000D6381092C60290911C0380919D02981741
:1078300061F490911D0380919E02981731F490910C
:107840001E0380919F02981729F084E891E00E941E
:10785000D13EDBCF809118038B3CA9F480E892E005
:107860000E94D13E809119038093120380911A03E4
:107870008093130380911B038093140385E193E0AD
:107880000E94D83B089585E193E00E94773ABDCFEE
:1078900014BEA89588E10FB6F8948093600010920A
:1078A00060000FBE549A0E9456390E9456390E94B9
:1078B0003C3985B5826085BD16BCEEE6F0E080817E
:1078C0008160808381E08DBB82E08093690088E0E5
:1078D00090E00E94863E0E94313A0E94533A0E94F4
:1078E000FD3B0E943B3A0E94FD3B0E94D63A80E05D
:1078F00090E008950F931F93DF93CF930F92CDB72E
:10790000DEB7982F82958F7005EB12E0F801E80F33
:10791000F11D808199830E94BB3E99819F70090F60
:10792000111DF80180810E94BB3E80E00F90CF9135
:10793000DF911F910F910895EF92FF920F931F9384
:10794000CF93DF937C018B01C0E0D0E00DC0F70145
:10795000EC0FFD1F80810E947A3C2196C017D10751
:1079600018F480E20E94BB3EC017D10780F380E08C
:10797000DF91CF911F910F91FF90EF9008958EBDF1
:107980000DB407FEFDCF8EB508952A982C99FECF31
:107990008EBD0DB407FEFDCF8EB52A9A089586E3FD
:1079A0000E94C53C8AE30E94C53C89E30E94C53C15
:1079B00008952A982C99FECF80648EBD0DB407FEE1
:1079C000FDCF8EB5FB0190E008C080818EBD0DB467
:1079D00007FEFDCF8EB59F5F31969417B0F32A9ABC
:1079E00008959C012A982C99FECF606C6EBD0DB451
:1079F00007FEFDCF8EB5F90190E007C01EBC0DB4A7
:107A000007FEFDCF8EB581939F5F9417B8F32A9A36
:107A100008952A982C99FECF682B6EBD0DB407FEF1
:107A2000FDCF8EB51EBC0DB407FEFDCF8EB52A9AD4
:107A3000089588E360EC0E94093D08952A982C99E6
:107A4000FECF2A9A84E30E94C53C80E797E1019724
:107A5000F1F70E94193D829586958695817008956B
:107A6000CF93DF93EC018BE360EC0E94093D282F5C
:107A700090E08F779070892B09F127FD1FC08FE36D
:107A800060E80E94093D482F88838D33B8F4CE0109
:107A900001966FE30E94F13C8FE360E80E94093D8C
:107AA0008FE360E80E94093D982F9F779093110320
:107AB000881F8827881F80930F0301C018828AE3DC
:107AC0000E94C53C86E30E94C53C84E30E94C53CFD
:107AD0008CE30E94C53C8881DF91CF9108950F937C
:107AE0001F93CF93DF93EC01162F86E30E94C53CD2
:107AF0008AE30E94C53C8BE30E94C53C1123B1F090
:107B000085E30E94C53C80ED97E028EC30E0F90168
:107B10003197F1F70197D9F780E496E028EC30E04F
:107B2000F9013197F1F70197D9F704C080ED97E09B
:107B30000197F1F748814F5F8FE3BE010E94D93C66
:107B40008AE30E94C53C85E30E94C53C10E00AE13F
:107B500085E360EC0E94093D8D3061F085E360ECC7
:107B60000E94093D833131F4802F8A95F1F71F5F20
:107B7000183C71F7DF91CF911F910F9108952A98CA
:107B80002C99FECF8EBD0DB407FEFDCF8EB56EBD18
:107B90000DB407FEFDCF8EB52A9A08951F93CF939B
:107BA000DF93182F229A239A2498259A52982A9A7A
:107BB0002D9A2B9880E58CBD2A9A982F9A95F1F7EB
:107BC0002A988A95F1F72A9A88E78A95F1F780E34F
:107BD0000E94C53C88EC90E00197F1F7C8E6D0E739
:107BE000FE0184912196FE0164910E94BF3D219681
:107BF000F0E7CC39DF07A1F7112371F0CCE9D0E72A
:107C0000FE0184912196FE0164910E94BF3D219660
:107C1000F0E7C23BDF07A1F783E30E94C53C80E4A5
:107C20009FE10197F1F784E30E94C53C85E360EC96
:107C30000E94093D8D30B9F78EE360EC0E94BF3D94
:107C400084E30E94C53C8CE30E94C53C80E797E139
:107C50000197F1F7DF91CF911F9108951F920F9235
:107C60000FB60F9211242F938F939F93EF93FF934F
:107C70009091C0002091C600E0910B03EF5FEF717F
:107C800080910C03E81711F492E007C09871E0931B
:107C90000B03F0E0E751FD4F208380910D03982BFB
:107CA00090930D03FF91EF919F918F912F910F90E2
:107CB0000FBE0F901F9018951F920F920FB60F9244
:107CC00011248F939F93EF93FF93909109038091D9
:107CD0000A03981769F0E0910A03EF5FEF71E093F0
:107CE0000A03F0E0E753FD4F80818093C60005C092
:107CF0008091C1008F7D8093C100FF91EF919F9192
:107D00008F910F900FBE0F901F9018959C011092AD
:107D1000090310920A0310920B0310920C0397FFB1
:107D200004C082E08093C0003F773093C500209369
:107D3000C40088E98093C10086E08093C200089562
:107D400090910B0380910C03981719F420E031E017
:107D500010C0E0910C03EF5FEF71E0930C03F0E0D3
:107D6000E751FD4F808190910D0310920D03282F54
:107D700030E0C9010895282F909109039F5F9F71FA
:107D800080910A039817E1F3E92FF0E0E753FD4FE4
:107D90002083909309038091C10080628093C10089
:107DA0000895CF93DF93EC0103C021960E94BB3E60
:107DB00088818823D1F7DF91CF910895CF93DF9306
:107DC000EC0102C00E94BB3EFE01219684918823F3
:107DD000C9F7DF91CF910895FB01DC0102C001904A
:0E7DE0000D9241505040D8F70895F894FFCF0F
:107DEE00435243204F4B0D0A0043524320666169B4
:107DFE006C3A205265626F6F740D0A0054696D659E
:107E0E006F75742E2053746172742070726F677266
:107E1E00616D210A0053776974636820746F203195
:107E2E00306B0A0053776974636820746F203130A9
:107E3E00306B0A00533A20626F6F746C6F61646529
:107E4E00722073657175656E63650A005374617295
:107E5E00742072656365697665206669726D7761F7
:107E6E0072650A00476F7420646174612C206E6F16
:107E7E007420666F722075730A00476F74206F74DA
:107E8E00686572206D6573736167652074797065BE
:107E9E000A0052657472616E736D69742E20576993
:107EAE006C6C207265666C617368210A00464154E1
:107EBE00414C3A2057726F6E67206D73674964208C
:107ECE006465746563746564210A00426C6F636B4C
:107EDE00206973206E6F7420706167652073697AF4
:107EEE00650A00426C6F636B20746F206269670ACB
:107EFE0000476F74206D6F72652064617461207429
:107F0E0068616E20626C6F636B6C656E0A00626CEA
:107F1E006F636B4C656E20616E6420626C6F636B79
:107F2E00506F7320646F206E6F74206D6174636880
:107F3E000A00476F7420636F6D706C657465206204
:107F4E006C6F636B210A00533A2061636B0A005712
:107F5E0061697420666F72204342204D73670A0078
:107F6E00476F74206D65737361676520746F20733E
:107F7E007461727420636F6E6669670A001ACAE5CF
:107F8E00140000101ACAE50000000053454E30548C
:107F9E0048504C303230313233343536373839413F
:067FAE0042434445460079
:0F7FF000F10153454E305448504C30321ACAE517
:040000030000700089
:00000001FF
