:107000000C943E390C94473A0C9450390C945039F6
:107010000C9450390C9450390C9450390C945039CC
:107020000C9450390C9450390C9450390C945039BC
:107030000C9450390C9450390C9450390C945039AC
:107040000C942F3A0C9450390C94BE3E0C94EC3EA8
:107050000C9450390C9450390C9450390C9450398C
:107060000C9450390C9450392E00426C6F636B2095
:107070006C656E67746820616E6420626C6F636B10
:1070800020706F736974696F6E20646F206E6F7407
:10709000206D617463680A00476F74206D6F7265BC
:1070A0002064617461207468616E20626C6F636B30
:1070B000206C656E6774680A00426C6F636B2074A5
:1070C0006F206269670A00426C6F636B206C656EAB
:1070D00067746820646966666572207769746820E1
:1070E000706167652073697A650A00464154414CB6
:1070F0003A2057726F6E67206D736749642064652C
:10710000746563746564210A0052657472616E73FC
:107110006D69742E2057696C6C207265666C6173A2
:1071200068210A00476F74206F74686572206D7360
:107130006720747970650A00476F74206461746118
:1071400020627574206E6F7420666F722075730AEA
:107150000053746172742072656365697665206698
:1071600069726D776172650A00476F74206D73678D
:1071700020746F20737461727420636F6E66696728
:107180000A00476F74206461746120627574206E18
:107190006F7420666F722075730A005761697420DE
:1071A000666F72204342204D73670A0054583A209C
:1071B000626F6F746C6F6164657220736571756561
:1071C0006E63650A0054696D656F75740A005374C7
:1071D000617274204170700A0043524320666169F5
:1071E0006C3A205265626F6F740A00435243204F1D
:1071F0004B0A0054583A2041434B0A0053772074FD
:107200006F203130306B0A000A41736B53696E2076
:107210004F544120426F6F746C6F616465722056E9
:10722000302E36200A0A00537720746F2031306BDD
:107230000A00002E012E0206030D04E905CA063DD0
:10724000070C0B060D210E650F5010C81193120389
:10725000153416011730181819161B43215625002E
:1072600026112D353EC30B08105B11F81547191D6B
:107270001A1C1BC71C001DB221B623EA11241FBE15
:10728000CFEFD8E0DEBFCDBF11E0A0E0B1E001C09C
:107290001D92A839B107E1F70E94FE3C0C948E3F85
:1072A0000C9400382FB7F89485B7982F916095BF4C
:1072B000826085BF2FBF85B5826085BD16BCEEE6B6
:1072C000F0E080818160808381E08DBB82E08093EB
:1072D000690008951F93CF93DF93DA01F894F99929
:1072E000FECFAB0183E0FB0180935700E89507B622
:1072F00000FCFDCFFA0111E0BA0160587F4F8C917C
:1073000011963C91119720E0E901C80FD11D12960A
:107310000E0110935700E89511243296E617F707EF
:1073200071F785E0FA0180935700E89507B600FCF5
:10733000FDCF81E180935700E8957894DF91CF915C
:107340001F910895DC0111969C91119786E798276B
:1073500011969C93119712965C91129742E008C087
:10736000FD01E20FF31F94528081982790834F5FB5
:107370008C91242F30E0481798F3FD01E20FF31FA2
:107380008081852780830895DC0111969C91119757
:1073900086E7892711968C93119742E009C0FD0179
:1073A000E20FF31F80819452982790834F5F982FAC
:1073B0008C91242F30E0481790F3FD01E20FF31F6A
:1073C000808112969C9189278083089590E041E204
:1073D00050E19B01220F331F87FD216077FD02C022
:1073E000B90103C0B901642775279F5F983011F078
:1073F000880FEFCFCB010895CF93DF936FEF7FEF2F
:10740000C0E0D0E0FE0184910E94E639BC012196E3
:10741000FFE6CE3FDF07B1F780E00E94E639BC010E
:1074200080E00E94E639FE012591349140E0281762
:10743000390709F441E0842FDF91CF9108955C9AD8
:1074400080E593EC0197F1F75C9880ED97E028ECEC
:1074500030E0F9013197F1F70197D9F708951F92BC
:107460000F920FB60F9211248F939F9316BC8091A9
:107470000101909102010196909302018093010114
:107480009F918F910F900FBE0F901F9018951F9294
:107490000F920FB60F9211242F933F934F935F9348
:1074A0006F937F938F939F93AF93BF93EF93FF93CC
:1074B000F8948CE591E00E94BE3D882319F081E0AC
:1074C000809300017894FF91EF91BF91AF919F91CC
:1074D0008F917F916F915F914F913F912F910F907D
:1074E0000FBE0F901F9018958EEC91E70E946E3F93
:1074F00084EC99E028EC30E0F9013197F1F701973D
:10750000D9F7F89485B7982F916095BF8D7F85BF87
:10751000E0E0F0E0099508950E94FC39882371F0BD
:107520008BEE91E70E946E3F84EC99E028EC30E00E
:10753000F9013197F1F70197D9F708955C9A80E244
:107540009EE428EC30E0F9013197F1F70197D9F783
:107550005C98A89589ED91E70E946E3F2EE088E146
:1075600090E00FB6F894A895809360000FBE20932A
:107570006000FFCF809101019091020181539547F6
:1075800088F085EC91E70E946E3F84EC99E028EC4E
:1075900030E0F9013197F1F70197D9F70E948C3A61
:1075A0000E94743A08950F931F938C010E94A23990
:1075B000F894C80160E00E94FD3D78941F910F91FE
:1075C00008950F931F93DF93CF93CDB7DEB76597E1
:1075D0000FB6F894DEBF0FBECDBF8CEA91E70E94D4
:1075E0006E3F909156012091570130915801409182
:1075F00048015091490160914A0170914B01E0911D
:107600004C01F0914D01A0914E01B0914F011091AC
:1076100050010091510184E189831A821B8280E12B
:107620008C839D832E833F83188619861A861B863A
:107630004C875D876E877F87E88BF98BAA8BBB8B26
:107640001C8B0D8BCE0101960E94D33A65960FB626
:10765000F894DEBF0FBECDBFCF91DF911F910F9188
:107660000895DF93CF93CDB7DEB72B970FB6F8947D
:10767000DEBF0FBECDBFFC0191812091560130913C
:107680005701409158015481658176818AE0898350
:107690009A8390E89B8382E08C832D833E834F8383
:1076A000588769877A879B87CE0101960E94D33AD3
:1076B0002B960FB6F894DEBF0FBECDBFCF91DF91F2
:1076C0000895DF93CF93CDB7DEB72B970FB6F8941D
:1076D000DEBF0FBECDBFFC01909156012091570136
:1076E000309158014081518172818AE089836A8397
:1076F00080E88B8382E08C839D832E833F83488741
:1077000059877A871B86CE0101960E94D33A2B9621
:107710000FB6F894DEBF0FBECDBFCF91DF910895B5
:107720002F923F924F925F927F928F929F92AF9251
:10773000BF92CF92DF92EF92FF920F931F93DF934E
:10774000CF93CDB7DEB7C058D0400FB6F894DEBFA8
:107750000FBECDBF109202011092010181E591E7A9
:107760000E946E3F80915D01082F10E00F5F1F4F58
:10777000772444245524CC24DD24882499245401DE
:1077800001C087010E94BA3A809100018823D1F399
:107790008CE591E00E94C439109200019091630140
:1077A00080915601981761F490916401809157017E
:1077B000981731F49091650180915801981719F04C
:1077C00088E391E706C080915F018A3C31F084E252
:1077D00091E70E946E3F7801D4CF80915D01E82E41
:1077E000FF24E016F106D1F0C8010196E816F9066B
:1077F00079F481149104A104B10451F001501040B6
:10780000089481089108A108B10889E091E702C0B5
:107810008BEE90E70E946E3F780102C0772049F519
:10782000309066012224809167012101480E511C8D
:1078300020E84216510419F087EC90E745C080918A
:107840005C0190E08C3891051CF089EB90E73CC01E
:10785000A5EFCA2EAFEFDA2EC80ED91ECE010196C3
:1078600028E631E0B901A6010E94853F7724739490
:1078700021C080915C01E82FF0E03997CF018C0D99
:107880009D1D4816590618F488E990E71DC021E0AF
:1078900030E02C0F3D1F2C0D3D1DC90126E631E0C7
:1078A000B901AF010E94853F80915C0190E009978A
:1078B000C80ED91E80915E01803209F062CFC414D7
:1078C000D50429F08AE690E70E946E3F27C088E63B
:1078D00090E70E946E3F5C9AC501B401F7E0660F25
:1078E000771F881F991FFA95D1F7AE014F5F5F4F41
:1078F0000E946A390894811C911CA11CB11C089437
:10790000E11CF11C10920201109201015C9889E5C2
:1079100091E060915D010E94613B2601772431CFA7
:107920000F931F93DF93CF9300D00F92CDB7DEB7A5
:107930008C01FC01828185FF10C083EF91E70E94DA
:107940006E3FF8018481898385818A8386818B8358
:10795000CE01019661810E94613B0F900F900F90C4
:10796000CF91DF911F910F9108958BE991E70E94CC
:107970006E3F10920201109201010E94BA3A80916A
:1079800000018823D1F38CE591E00E94C439109264
:1079900000019091630180915601981761F49091D4
:1079A000640180915701981731F49091650180919D
:1079B0005801981729F082E891E70E946E3FDDCFC9
:1079C00080915F018B3CA9F489E691E70E946E3FAC
:1079D00080916001809359018091610180935A01E7
:1079E0008091620180935B018CE591E00E94903C64
:1079F00008958CE591E00E94313BBFCF14BEA8955D
:107A000088E10FB6F89480936000109260000FBE7A
:107A1000549A0E941F3A0E94523987E292E70E94CC
:107A20006E3F80E00E945C3E88E090E00E94163F3E
:107A300088E092E70E946E3F2098289A8AE18A9512
:107A4000F1F7189B06C00E94FC39882311F00E94B0
:107A5000743A0E941F3A86E591E06CEF7FE743E0BD
:107A600050E00E947C3F88E491E062EF7FE74AE0CB
:107A700050E00E947C3F0E94E13A0E94B53C8CEFAE
:107A800091E70E946E3F81E00E945C3E0E94B53CFF
:107A90000E94903B80E090E008958EBD0DB407FEFB
:107AA000FDCF8EB508952A982C99FECF8EBD0DB4CA
:107AB00007FEFDCF8EB52A9A089586E30E94533DB6
:107AC0008AE30E94533D89E30E94533D08952A981A
:107AD0002C99FECF80648EBD0DB407FEFDCF8EB510
:107AE000FB0190E008C080818EBD0DB407FEFDCF84
:107AF0008EB59F5F31969417B0F32A9A08959C0132
:107B00002A982C99FECF606C6EBD0DB407FEFDCF98
:107B10008EB5F90190E007C01EBC0DB407FEFDCF85
:107B20008EB581939F5F9417B8F32A9A08952A9887
:107B30002C99FECF682B6EBD0DB407FEFDCF8EB520
:107B40001EBC0DB407FEFDCF8EB52A9A089588E3BA
:107B500060EC0E94973D08952A982C99FECF2A9AAE
:107B600084E30E94533D80E797E10197F1F70E947B
:107B7000A73D82958695869581700895CF93DF9372
:107B8000EC018BE360EC0E94973D282F90E08F770B
:107B90009070892B09F127FD1FC08FE360E80E94D8
:107BA000973D482F88838D33B8F4CE0101966FE35B
:107BB0000E947F3D8FE360E80E94973D8FE360E87D
:107BC0000E94973D982F9F7790935501881F882793
:107BD000881F8093530101C018828AE30E94533D9D
:107BE00086E30E94533D84E30E94533D8CE30E9450
:107BF000533D8881DF91CF9108950F931F93CF93C9
:107C0000DF93EC01162F86E30E94533D8AE30E9426
:107C1000533D8BE30E94533D1123B1F085E30E9455
:107C2000533D80ED97E028EC30E0F9013197F1F712
:107C30000197D9F780E496E028EC30E0F90131971C
:107C4000F1F70197D9F704C080ED97E00197F1F7BC
:107C500048814F5F8FE3BE010E94673D8AE30E9427
:107C6000533D85E30E94533D10E00AE185E360EC5B
:107C70000E94973D8D3061F085E360EC0E94973D56
:107C8000833131F4802F8A95F1F71F5F183C71F72B
:107C9000DF91CF911F910F9108952A982C99FECFD3
:107CA0008EBD0DB407FEFDCF8EB56EBD0DB407FEC3
:107CB000FDCF8EB52A9A08951F93CF93DF93182F87
:107CC000F894229A239A2498259A52982A9A2D9ABF
:107CD0002B9880E58CBD2A9A982F9A95F1F72A98CF
:107CE0008A95F1F72A9A88E78A95F1F780E30E944E
:107CF000533D88EC90E00197F1F7C2E3D2E7FE0133
:107D000084912196FE0164910E944D3E2196F2E7F6
:107D1000C636DF07A1F7112371F0C6E6D2E7FE01F0
:107D200084912196FE0164910E944D3E2196F2E7D6
:107D3000CC37DF07A1F783E30E94533D80E49FE146
:107D40000197F1F784E30E94533D85E360EC0E94C4
:107D5000973D8D30B9F78EE360EC0E944D3E84E391
:107D60000E94533D8CE30E94533D80E797E10197C9
:107D7000F1F77894DF91CF911F9108951F920F92A0
:107D80000FB60F9211242F938F939F93EF93FF932E
:107D90009091C0002091C600E0914501EF5FEF7126
:107DA00080914601E81711F492E007C09871E093C2
:107DB0004501F0E0ED5DFE4F208380914701982B57
:107DC00090934701FF91EF919F918F912F910F9089
:107DD0000FBE0F901F9018951F920F920FB60F9223
:107DE00011248F939F93EF93FF9390914301809180
:107DF0004401981769F0E0914401EF5FEF71E0935F
:107E00004401F0E0ED5FFE4F80818093C60005C025
:107E10008091C1008F7D8093C100FF91EF919F9170
:107E20008F910F900FBE0F901F9018959C0110928C
:107E3000430110924401109245011092460197FFB0
:107E400004C082E08093C0003F773093C500209348
:107E5000C40088E98093C10086E08093C200089541
:107E60009091450180914601981719F420E031E086
:107E700010C0E0914601EF5FEF71E0934601F0E042
:107E8000ED5DFE4F80819091470110924701282FB0
:107E900030E0C9010895282F909143019F5F9F71A1
:107EA000809144019817E1F3E92FF0E0ED5FFE4F78
:107EB0002083909343018091C10080628093C10030
:107EC0000895CF93DF93EC0103C021960E944B3FAE
:107ED00088818823D1F7DF91CF910895CF93DF93E5
:107EE000EC0102C00E944B3FFE0121968491882341
:107EF000C9F7DF91CF910895FB01DC0102C0059025
:107F00000D9241505040D8F70895FB01DC0102C0AA
:107F100001900D9241505040D8F70895F894FFCF4A
:0F7FF000F10153454E305448504C303711223375
:040000030000700089
:00000001FF
