:10F000000C9443790C94687A0C9460790C94607930
:10F010000C9460790C9460790C9460790C9460790C
:10F020000C9460790C9460790C9460790C946079FC
:10F030000C9460790C9460790C9460790C946079EC
:10F040000C9460790C9460790C94507A0C946079EB
:10F050000C940A7F0C94387F0C9460790C9460793E
:10F060000C9460790C9460790C9460790C946079BC
:10F070000A56302E352E310A0A00426C6F636B201F
:10F08000636F6D706C657465210A00426C6F636B11
:10F09000206C656E67746820616E6420626C6F63BB
:10F0A0006B20706F736974696F6E20646F206E6F70
:10F0B00074206D617463680A00476F74206D6F720D
:10F0C000652064617461207468616E20626C6F6396
:10F0D0006B206C656E6774680A00426C6F636B200E
:10F0E0006C656E677468206469666665722077690E
:10F0F000746820706167652073697A650A0046410B
:10F1000054414C3A2057726F6E67206D73674964A3
:10F11000206465746563746564210A0052657472C5
:10F12000616E736D69742E2057696C6C2072656610
:10F130006C617368210A00476F74206F7468657290
:10F14000206D736720747970650A00476F742064BE
:10F1500061746120627574206E6F7420666F722016
:10F1600075730A0053746172742072656365697601
:10F1700065206669726D776172650A0053776974FC
:10F18000636820746F2031306B0A005377697463B1
:10F190006820746F203130306B0A00476F74206D27
:10F1A00065737361676520746F2073746172742076
:10F1B000636F6E6669670A00476F742064617461EB
:10F1C00020627574206E6F7420666F722075730AEA
:10F1D000005761697420666F72204342204D736747
:10F1E0000A0053656E6420626F6F746C6F616465B2
:10F1F000722073657175656E63650A0054696D658B
:10F200006F75742E2053746172742070726F677200
:10F21000616D210A00435243206661696C3A2052B5
:10F2200065626F6F740D0A00435243204F4B0D0A05
:10F230000053656E642061636B0A00002E012E028C
:10F2400006030D04E905CA063D070C0B060D210E49
:10F25000650F6A10C8119312031534160117301880
:10F260001819161B432156250026112D353EC30BB8
:10F2700008105B11F81547191D1A1C1BC71C001D2F
:10F28000B221B623EA0011241FBECFEFD0E1DEBFCA
:10F29000CDBF11E0A0E0B1E0E8EBFFEF02C00590C8
:10F2A0000D92A031B107D9F711E0A0E1B1E001C0A2
:10F2B0001D92A83AB107E1F70E94147D0C94DA7F01
:10F2C0000C9400780F931F93CF93DF93DA010FB75D
:10F2D000F894F999FECFAB0183E0FB0180935700CE
:10F2E000E89507B600FCFDCFFA0111E0BA016050C5
:10F2F0007F4F8C9111963C91119720E0E901C80F46
:10F30000D11D12960E0110935700E89511243296E4
:10F31000E617F70771F785E0FA0180935700E89543
:10F3200007B600FCFDCF81E180935700E8950FBF41
:10F330007894DF91CF911F910F910895DC01119680
:10F340009C91119786E7982711969C931197129696
:10F350005C91129742E008C0FD01E20FF31F945246
:10F360008081982790834F5F8C91242F30E048173D
:10F3700098F3FD01E20FF31F8081852780830895B4
:10F38000DC0111969C91119786E7892711968C9341
:10F39000119742E009C0FD01E20FF31F80819452F2
:10F3A000982790834F5F982F8C91242F30E0481737
:10F3B00090F3FD01E20FF31F808112969C91892743
:10F3C0008083089590E041E250E19B01220F331FBA
:10F3D00087FD216077FD02C0B90103C0B901642730
:10F3E00075279F5F983011F0880FEFCFCB010895FC
:10F3F000CF93DF936FEF7FEFC0E0D0E0FE01849109
:10F400000E94E279BC012196FFEECE3FDF07B1F703
:10F4100080E00E94E279BC0180E00E94E279FE0176
:10F420002591349140E02817390709F441E0842FF1
:10F43000DF91CF910895F89485B7982F916095BF8B
:10F440008D7F85BFE0E0F0E0099508958FB7F894CF
:10F4500095B7292F216025BF926095BF8FBF089572
:10F4600085B5826085BD16BCEEE6F0E080818160E6
:10F470008083089581E08DBB82E0809369000895C8
:10F48000289A80E593EC0197F1F7289880ED97E0B2
:10F4900028EC30E0F9013197F1F70197D9F7089599
:10F4A0001F920F920FB60F9211248F939F9316BC49
:10F4B0008091110190911201019690931201809315
:10F4C00011019F918F910F900FBE0F901F90189573
:10F4D0001F920F920FB60F9211242F933F934F93C9
:10F4E0005F936F937F938F939F93AF93BF93EF93AC
:10F4F000FF93F8948CE691E00E940C7E882319F02B
:10F5000081E0809310017894FF91EF91BF91AF91CA
:10F510009F918F917F916F915F914F913F912F912B
:10F520000F900FBE0F901F9018950E94F8798823B6
:10F5300071F088E292EF0E94BA7F84EC99E028ECA7
:10F5400030E0F9013197F1F70197D9F70895A895BF
:10F55000289A80E29EE428EC30E0F9013197F1F737
:10F560000197D9F7289885E192EF0E94BA7F2EE0A3
:10F5700088E190E00FB6F894A895809360000FBEE4
:10F5800020936000FFCF809111019091120181536F
:10F59000954788F08CEF91EF0E94BA7F84EC99E058
:10F5A00028EC30E0F9013197F1F70197D9F70E9483
:10F5B000957A0E941B7A08958CE791EF0E94BA7F9A
:10F5C000F89480E00E94AA7E789408958BE891EFE9
:10F5D0000E94BA7FF89481E00E94AA7E78940895F0
:10F5E0000F931F938C010E949E79F894C80160E0EC
:10F5F0000E944B7E78941F910F9108950F931F9353
:10F60000DF93CF93CDB7DEB765970FB6F894DEBF23
:10F610000FBECDBF82EE91EF0E94BA7F909166013E
:10F620002091670130916801409158015091590132
:10F6300060915A0170915B01E0915C01F0915D0174
:10F64000A0915E01B0915F01109160010091610194
:10F6500084E189831A821B8280E18C839D832E83BF
:10F660003F83188619861A861B864C875D876E87AE
:10F670007F87E88BF98BAA8BBB8B1C8B0D8BCE0104
:10F6800001960E94F07A65960FB6F894DEBF0FBE21
:10F69000CDBFCF91DF911F910F910895DF93CF934D
:10F6A000CDB7DEB72B970FB6F894DEBF0FBECDBF38
:10F6B000FC019181209166013091670140916801C0
:10F6C0005481658176818AE089839A8390E89B835F
:10F6D00082E08C832D833E834F83588769877A87A6
:10F6E0009B87CE0101960E94F07A2B960FB6F89474
:10F6F000DEBF0FBECDBFCF91DF910895DF93CF93D3
:10F70000CDB7DEB72B970FB6F894DEBF0FBECDBFD7
:10F71000FC01909166012091670130916801408160
:10F72000518172818AE089836A8380E88B8382E0D9
:10F730008C839D832E833F83488759877A871B86D6
:10F74000CE0101960E94F07A2B960FB6F894DEBF98
:10F750000FBECDBFCF91DF9108952F923F925F9260
:10F760006F927F928F929F92AF92BF92CF92DF92D1
:10F77000EF92FF920F931F93DF93CF93CDB7DEB736
:10F78000C050D1400FB6F894DEBF0FBECDBF10926F
:10F7900012011092110184E691EF0E94BA7F8091CC
:10F7A0006D01082F10E00F5F1F4F5524662477244A
:10F7B000CC24DD2488249924540101C087010E94AF
:10F7C0007C7F0E94C37A809110018823C1F38CE66C
:10F7D00091E00E94C0791092100190917301809184
:10F7E0006601981761F490917401809167019817F0
:10F7F00031F49091750180916801981719F08BE4AC
:10F8000091EF06C080916F018A3C31F087E391EF60
:10F810000E94BA7F7801D2CF80916D01E82EFF243B
:10F82000E016F106D1F0C8010196E816F90679F460
:10F8300081149104A104B10451F0015010400894C6
:10F8400081089108A108B1088CE191EF02C08EEF08
:10F8500090EF0E94BA7F780102C0552019F53090D0
:10F8600076012224809177013101680E711C20E01D
:10F87000621621E0720619F08AED90EF3EC0809189
:10F880006C01C82EDD2485EF9FEFC80ED91ECE0176
:10F89000019628E731E0B901A6010E94D17F5524E5
:10F8A000539421C080916C01E82FF0E03997CF018B
:10F8B0008C0D9D1D6816790618F489EB90EF1DC01C
:10F8C00021E030E02C0F3D1F2C0D3D1DC90126E726
:10F8D00031E0B901AF010E94D17F80916C0190E0CD
:10F8E0000997C80ED91E80916E01803209F066CF4B
:10F8F000C614D70431F08BE890EF0E94BA7F5524EC
:10F900005DCF8AE790EF0E94BA7F289A9A2D892DC1
:10F91000782D6627AE014F5F5F4F0E946279089491
:10F92000811C911CA11CB11C0894E11CF11C1092BB
:10F93000120110921101289889E691E060916D0101
:10F940000E947E7B3601DBCF0F931F93DF93CF9313
:10F9500000D00F92CDB7DEB78C01FC01828185FF0C
:10F9600010C081E392EF0E94BA7FF80184818983FD
:10F9700085818A8386818B83CE01019661810E9475
:10F980007E7B0F900F900F90CF91DF911F910F9181
:10F99000089581ED91EF0E94BA7F109212011092AA
:10F9A00011010E947C7F0E94C37A809110018823FC
:10F9B000C1F38CE691E00E94C07910921001909101
:10F9C000730180916601981761F4909174018091A0
:10F9D0006701981731F4909175018091680198172B
:10F9E00029F088EB91EF0E94BA7FDBCF80916F0105
:10F9F0008B3CA9F48BE991EF0E94BA7F8091700152
:10FA0000809369018091710180936A0180917201F4
:10FA100080936B018CE691E00E94A47C08958CE6B3
:10FA200091E00E944E7BBDCF14BEA89588E10FB631
:10FA3000F89480936000109260000FBE209A0E949C
:10FA4000407A0E94267A85B5826085BD16BCEEE6B6
:10FA5000F0E080818160808381E08DBB82E08093D3
:10FA6000690088E090E00E94627F80E790EF0E944A
:10FA7000BA7F86E691E06CEF7FEF43E050E00E94B2
:10FA8000C87F88E591E062EF7FEF4AE050E00E9496
:10FA9000C87F0E94DC7A0E94407A0E94FE7A0E940F
:10FAA000C97C0E94E67A0E94C97C0E94AD7B80E0FE
:10FAB00090E008950F931F93DF93CF930F92CDB7EC
:10FAC000DEB7982F82958F7000E011E0F801E80F03
:10FAD000F11D808199830E94977F99819F70090F02
:10FAE000111DF80180810E94977F0F90CF91DF91C7
:10FAF0001F910F910895EF92FF920F931F93CF9351
:10FB0000DF937C01C0E0D0E0062F10E007C0F701D2
:10FB1000EC0FFD1F80810E945A7D2196C017D107EE
:10FB2000B0F380E20E94977FDF91CF911F910F91F8
:10FB3000FF90EF9008958EBD0DB407FEFDCF8EB5FA
:10FB400008952C982E99FECF8EBD0DB407FEFDCFE3
:10FB50008EB52C9A089586E30E94A17D8AE30E94C7
:10FB6000A17D89E30E94A17D08952C982E99FECF56
:10FB700080648EBD0DB407FEFDCF8EB5FB0190E015
:10FB800008C080818EBD0DB407FEFDCF8EB59F5F8E
:10FB900031969417B0F32C9A08959C012C982E99C5
:10FBA000FECF606C6EBD0DB407FEFDCF8EB5F901C2
:10FBB00090E007C01EBC0DB407FEFDCF8EB581934B
:10FBC0009F5F9417B8F32C9A08952C982E99FECF26
:10FBD000682B6EBD0DB407FEFDCF8EB51EBC0DB4F7
:10FBE00007FEFDCF8EB52C9A089588E360EC0E9445
:10FBF000E57D08952C982E99FECF2C9A84E30E94DF
:10FC0000A17D80E797E10197F1F70E94F57D82954C
:10FC10008695869581700895CF93DF93EC018BE3F1
:10FC200060EC0E94E57D282F90E08F779070892B03
:10FC300009F127FD1FC08FE360E80E94E57D482F92
:10FC400088838D33B8F4CE0101966FE30E94CD7D99
:10FC50008FE360E80E94E57D8FE360E80E94E57D28
:10FC6000982F9F7790936501881F8827881F80931E
:10FC7000630101C018828AE30E94A17D86E30E948D
:10FC8000A17D84E30E94A17D8CE30E94A17D8881F7
:10FC9000DF91CF9108950F931F93CF93DF93EC01E2
:10FCA000162F86E30E94A17D8AE30E94A17D8BE34B
:10FCB0000E94A17D1123B1F085E30E94A17D80ED1A
:10FCC00097E028EC30E0F9013197F1F70197D9F787
:10FCD00080E496E028EC30E0F9013197F1F70197E4
:10FCE000D9F704C080ED97E00197F1F748814F5FA5
:10FCF0008FE3BE010E94B57D8AE30E94A17D85E36A
:10FD00000E94A17D10E00AE185E360EC0E94E57DA0
:10FD10008D3061F085E360EC0E94E57D833131F444
:10FD2000802F8A95F1F71F5F183C71F7DF91CF9113
:10FD30001F910F9108952C982E99FECF8EBD0DB472
:10FD400007FEFDCF8EB56EBD0DB407FEFDCF8EB59F
:10FD50002C9A08951F93CF93DF93182F249A259AF6
:10FD60002698279A52982C9A2F9A2D9880E58CBD28
:10FD70002C9A982F9A95F1F72C988A95F1F72C9A4E
:10FD800088E78A95F1F780E30E94A17D88EC90E0F6
:10FD90000197F1F7CBE3D2EFFE0184912196FE01AA
:10FDA00064910E949B7E2196F2EFCF36DF07A1F788
:10FDB000112371F0CFE6D2EFFE0184912196FE016E
:10FDC00064910E949B7E2196F2EFC538DF07A1F770
:10FDD00083E30E94A17D80E49FE10197F1F784E332
:10FDE0000E94A17D85E360EC0E94E57D8D30B9F72E
:10FDF0008EE360EC0E949B7E84E30E94A17D8CE3F5
:10FE00000E94A17D80E797E10197F1F7DF91CF9103
:10FE10001F9108951F920F920FB60F9211242F93E6
:10FE20008F939F93EF93FF939091C0002091C60012
:10FE3000E0915501EF5FEF7180915601E81711F4E1
:10FE400092E007C09871E0935501F0E0ED5CFE4F41
:10FE5000208380915701982B90935701FF91EF9148
:10FE60009F918F912F910F900FBE0F901F9018951B
:10FE70001F920F920FB60F9211248F939F93EF93BF
:10FE8000FF939091530180915401981769F0E0918C
:10FE90005401EF5FEF71E0935401F0E0ED5EFE4F2F
:10FEA00080818093C60005C08091C1008F7D8093C2
:10FEB000C100FF91EF919F918F910F900FBE0F9016
:10FEC0001F9018959C0110925301109254011092AA
:10FED00055011092560197FF04C082E08093C00044
:10FEE0003F773093C5002093C40088E98093C10018
:10FEF00086E08093C200089590915501809156014B
:10FF0000981719F420E031E010C0E0915601EF5F3E
:10FF1000EF71E0935601F0E0ED5CFE4F808190912F
:10FF2000570110925701282F30E0C9010895282F5A
:10FF3000909153019F5F9F71809154019817E1F355
:10FF4000E92FF0E0ED5EFE4F208390935301809106
:10FF5000C10080628093C1000895CF93DF93EC01CC
:10FF600003C021960E94977F88818823D1F7DF9173
:10FF7000CF910895CF93DF93EC0102C00E94977F49
:10FF8000FE01219684918823C9F7DF91CF910895CE
:10FF9000FB01DC0102C005900D9241505040D8F7A2
:10FFA0000895FB01DC0102C001900D9241505040C8
:08FFB000D8F70895F894FFCF83
:10FFB8003031323334353637383941424344454697
:0FFFF00000964B4551303030303030311234569E
:040000030000F00009
:00000001FF
