:10F000000C944E790C945E7A0C9460790C9460792F
:10F010000C9460790C9460790C9460790C9460790C
:10F020000C9460790C9460790C9460790C946079FC
:10F030000C9460790C9460790C9460790C946079EC
:10F040000C9460790C9460790C94467A0C946079F5
:10F050000C94E87E0C94167F0C9460790C94607983
:10F060000C9460790C9460790C9460790C946079BC
:10F070002E00426C6F636B206C656E677468206154
:10F080006E6420626C6F636B20706F736974696F5C
:10F090006E20646F206E6F74206D617463680A0067
:10F0A000476F74206D6F72652064617461207468AD
:10F0B000616E20626C6F636B206C656E6774680AAA
:10F0C00000426C6F636B206C656E677468206469C6
:10F0D0006666657220776974682070616765207361
:10F0E000697A650A00464154414C3A2057726F6E66
:10F0F00067206D7367496420646574656374656433
:10F10000210A0052657472616E736D69742E205706
:10F11000696C6C207265666C617368210A00476FC8
:10F1200074206F74686572206D73672074797065E0
:10F130000A00476F74206461746120627574206EE8
:10F140006F7420666F722075730A00537461727455
:10F150002072656365697665206669726D77617294
:10F16000650A00476F74206D736720746F20737495
:10F1700061727420636F6E6669670A00476F74205E
:10F180006461746120627574206E6F7420666F72A2
:10F190002075730A005761697420666F72204342BC
:10F1A000204D73670A0054583A20626F6F746C6F79
:10F1B000616465722073657175656E63650A0054DC
:10F1C000696D656F75740A005374617274204170C3
:10F1D000700A00435243206661696C3A20526562AE
:10F1E0006F6F740A00435243204F4B0A0054583A41
:10F1F0002041434B0A00537720746F203130306B2D
:10F200000A005761697420736F6D65207365636FC1
:10F210006E647320666F7220636F6E66696720622A
:10F220007574746F6E0A000A41736B53696E204FD8
:10F23000544120426F6F746C6F6164657220563068
:10F240002E36200A0A00537720746F2031306B0A63
:10F2500000002E012E0206030D04E905CA063D0733
:10F260000C0B060D210E650F5010C81193120315DB
:10F270003416011730181819161B4321562500267D
:10F28000112D353EC30B08105B11F81547191D1AD7
:10F290001C1BC71C001DB221B623EA0011241FBE8F
:10F2A000CFEFD0E1DEBFCDBF11E0A0E0B1E001C003
:10F2B0001D92A839B107E1F70E94007D0C94B87F38
:10F2C0000C9400782FB7F89485B7982F916095BF6C
:10F2D000826085BF2FBF85B5826085BD16BCEEE616
:10F2E000F0E080818160808381E08DBB82E080934B
:10F2F000690008951F93CF93DF93DA01F894F99989
:10F30000FECFAB0183E0FB0180935700E89507B681
:10F3100000FCFDCFFA0111E0BA0160507F4F8C91E3
:10F3200011963C91119720E0E901C80FD11D12966A
:10F330000E0110935700E89511243296E617F7074F
:10F3400071F785E0FA0180935700E89507B600FC55
:10F35000FDCF81E180935700E8957894DF91CF91BC
:10F360001F910895DC0111969C91119786E79827CB
:10F3700011969C93119712965C91129742E008C0E7
:10F38000FD01E20FF31F94528081982790834F5F15
:10F390008C91242F30E0481798F3FD01E20FF31F02
:10F3A0008081852780830895DC0111969C911197B7
:10F3B00086E7892711968C93119742E009C0FD01D9
:10F3C000E20FF31F80819452982790834F5F982F0C
:10F3D0008C91242F30E0481790F3FD01E20FF31FCA
:10F3E000808112969C9189278083089590E041E264
:10F3F00050E19B01220F331F87FD216077FD02C082
:10F40000B90103C0B901642775279F5F983011F0D7
:10F41000880FEFCFCB010895CF93DF936FEF7FEF8E
:10F42000C0E0D0E0FE0184910E94F679BC012196F3
:10F43000FFEECE3FDF07B1F780E00E94F679BC0116
:10F4400080E00E94F679FE012591349140E0281772
:10F45000390709F441E0842FDF91CF910895289A6C
:10F4600020ED37E004C0F9013197F1F701970097DB
:10F47000D1F7289820ED37E005C0C9010197F1F7D1
:10F480006150704061157105C1F708951F920F9288
:10F490000FB60F9211248F939F9316BC8091010198
:10F4A00090910201019690930201809301019F9136
:10F4B0008F910F900FBE0F901F9018951F920F9273
:10F4C0000FB60F9211242F933F934F935F936F9337
:10F4D0007F938F939F93AF93BF93EF93FF93F89492
:10F4E0008CE591E00E94E87D882319F081E080930B
:10F4F00000017894FF91EF91BF91AF919F918F910F
:10F500007F916F915F914F913F912F910F900FBE1F
:10F510000F901F90189588EC91EF0E94987F84ECD3
:10F5200099E028EC30E0F9013197F1F70197D9F72C
:10F530005F98F89485B7982F916095BF8D7F85BFB0
:10F54000E0E0F0E0099508950E940C7A882371F0BC
:10F5500085EE91EF0E94987F84EC99E028EC30E0F2
:10F56000F9013197F1F70197D9F7089580ED97E008
:10F5700061E070E00E942F7AA89583ED91EF0E94E0
:10F58000987F2EE088E190E00FB6F894A8958093DC
:10F5900060000FBE20936000FFCF80910101909129
:10F5A00002018153954788F08FEB91EF0E94987F7D
:10F5B00084EC99E028EC30E0F9013197F1F70197FC
:10F5C000D9F70E94A47A0E948B7A08950F931F9313
:10F5D0008C010E94B279F894C80160E00E94277EF5
:10F5E00078941F910F9108950F931F93DF93CF93FA
:10F5F000CDB7DEB765970FB6F894DEBF0FBECDBFAF
:10F6000086EA91EF0E94987F9091560120915701D0
:10F6100030915801409148015091490160914A014F
:10F6200070914B01E0914C01F0914D01A0914E0180
:10F63000B0914F01109150010091510184E18983F3
:10F640001A821B8280E18C839D832E833F831886E0
:10F6500019861A861B864C875D876E877F87E88BA5
:10F66000F98BAA8BBB8B1C8B0D8BCE0101960E9454
:10F67000E67A65960FB6F894DEBF0FBECDBFCF9188
:10F68000DF911F910F910895DF93CF93CDB7DEB730
:10F690002B970FB6F894DEBF0FBECDBFFC01918152
:10F6A0002091560130915701409158015481658154
:10F6B00076818AE089839A8390E89B8382E08C83B9
:10F6C0002D833E834F83588769877A879B87CE0136
:10F6D00001960E94E67A2B960FB6F894DEBF0FBE15
:10F6E000CDBFCF91DF910895DF93CF93CDB7DEB734
:10F6F0002B970FB6F894DEBF0FBECDBFFC019091E3
:10F7000056012091570130915801408151817281F9
:10F710008AE089836A8380E88B8382E08C839D837F
:10F720002E833F83488759877A871B86CE010196AF
:10F730000E94E67A2B960FB6F894DEBF0FBECDBFBF
:10F74000CF91DF9108952F923F924F925F927F92D7
:10F750008F929F92AF92BF92CF92DF92EF92FF92E1
:10F760000F931F93DF93CF93CDB7DEB7C050D14037
:10F770000FB6F894DEBF0FBECDBF109202011092FB
:10F7800001018BE491EF0E94987FF0905D01F3946A
:10F7900077248824992400E010E0AA24BB24650182
:10F7A000A8E62A2EA1E03A2E01C0FE2C0E94CD7AB6
:10F7B000809100018823D1F38CE591E00E94D479F7
:10F7C000109200019091630180915601981761F4A5
:10F7D0009091640180915701981731F490916501DF
:10F7E00080915801981719F082E391EF06C080913B
:10F7F0005F018A3C31F08EE191EF0E94987FEF2CFF
:10F80000D4CFE0905D01EF14E1F02E2D30E08F2D8C
:10F8100090E001962817390771F4A114B104C104CE
:10F82000D10449F0FA940894A108B108C108D1089C
:10F8300083E091EF02C085EE90EF0E94987FEF2C5D
:10F8400002C07720F9F4509066014424809167014A
:10F850004201880E911C20E0821621E0920619F0E8
:10F8600081EC90EF3AC080915C01082F10E00B50C2
:10F870001040CE010196B101A8010E94AF7F77240C
:10F88000739421C080915C01E82FF0E03997CF019B
:10F89000800F911F8816990618F480EA90EF1DC01A
:10F8A00021E030E02C0F3D1F200F311FC90126E65B
:10F8B00031E0B901AF010E94AF7F80915C0190E01F
:10F8C0000997080F191F80915E01803209F06DCFF2
:10F8D0000815190531F082E790EF0E94987F772490
:10F8E00064CF80E790EF0E94987F289A9C2D8B2D03
:10F8F0007A2D6627AE014F5F5F4F0E947A79089498
:10F90000A11CB11CC11CD11CE394109202011092E5
:10F910000101289889E591E060915D010E94747B66
:10F920004801DDCF0F931F93DF93CF9300D00F9249
:10F93000CDB7DEB78C01FC01828185FF10C08DEE52
:10F9400091EF0E94987FF8018481898385818A8361
:10F9500086818B83CE01019661810E94747B0F901A
:10F960000F900F90CF91DF911F910F91089585E92E
:10F9700091EF0E94987F10920201109201010E9463
:10F98000CD7A809100018823D1F38CE591E00E942B
:10F99000D4791092000190916301809156019817DB
:10F9A00061F49091640180915701981731F490911E
:10F9B000650180915801981729F08CE791EF0E941A
:10F9C000987FDDCF80915F018B3CA9F483E691EFB6
:10F9D0000E94987F8091600180935901809161011C
:10F9E00080935A018091620180935B018CE591E0E4
:10F9F0000E94927C08958CE591E00E94447BBFCFE9
:10FA00000F931F93CF93DF9314B714BEA89588E18B
:10FA10000FB6F89480936000109260000FBE209A99
:10FA200089E190E068EC70E00E942F7A0E94627990
:10FA300086E492EF0E94987F80E00E94867E88E0B4
:10FA400090E00E94407F87E292EF0E94987F579853
:10FA50005F9A8AE18A95F1F70E940C7A082F13FFCA
:10FA600014C0882391F082E092EF0E94987FC0E05A
:10FA7000D0E085E090E06FEE71E00E942F7A4F9B1E
:10FA800004C02196C531D105A1F74F9B04C00023C6
:10FA900011F00E948B7A89E190E068EC70E00E949E
:10FAA0002F7A86E591E06CEF7FEF43E050E00E9413
:10FAB000A67F88E491E062EF7FEF4AE050E00E9489
:10FAC000A67F0E94F47A0E94B77C86EF91EF0E9495
:10FAD000987F81E00E94867E0E94B77C0E94A37B73
:10FAE00080E090E0DF91CF911F910F9108958EBD3E
:10FAF0000DB407FEFDCF8EB508952C982E99FECF3C
:10FB00008EBD0DB407FEFDCF8EB52C9A089586E309
:10FB10000E947D7D8AE30E947D7D89E30E947D7D38
:10FB200008952C982E99FECF80648EBD0DB407FEEB
:10FB3000FDCF8EB5FB0190E008C080818EBD0DB475
:10FB400007FEFDCF8EB59F5F31969417B0F32C9AC8
:10FB500008959C012C982E99FECF606C6EBD0DB45B
:10FB600007FEFDCF8EB5F90190E007C01EBC0DB4B5
:10FB700007FEFDCF8EB581939F5F9417B8F32C9A43
:10FB800008952C982E99FECF682B6EBD0DB407FEFC
:10FB9000FDCF8EB51EBC0DB407FEFDCF8EB52C9AE1
:10FBA000089588E360EC0E94C17D08952C982E99F9
:10FBB000FECF2C9A84E30E947D7D80E797E1019738
:10FBC000F1F70E94D17D8295869586958170089582
:10FBD000CF93DF93EC018BE360EC0E94C17D282F73
:10FBE00090E08F779070892B09F127FD1FC08FE37C
:10FBF00060E80E94C17D482F88838D33B8F4CE0120
:10FC000001966FE30E94A97D8FE360E80E94C17DA9
:10FC10008FE360E80E94C17D982F9F7790935501F4
:10FC2000881F8827881F8093530101C018828AE3A8
:10FC30000E947D7D86E30E947D7D84E30E947D7D20
:10FC40008CE30E947D7D8881DF91CF9108950F9391
:10FC50001F93CF93DF93EC01162F86E30E947D7DE7
:10FC60008AE30E947D7D8BE30E947D7D1123B1F0AC
:10FC700085E30E947D7D80ED97E028EC30E0F9017E
:10FC80003197F1F70197D9F780E496E028EC30E05E
:10FC9000F9013197F1F70197D9F704C080ED97E0AA
:10FCA0000197F1F748814F5F8FE3BE010E94917D7C
:10FCB0008AE30E947D7D85E30E947D7D10E00AE15C
:10FCC00085E360EC0E94C17D8D3061F085E360ECDE
:10FCD0000E94C17D833131F4802F8A95F1F71F5F37
:10FCE000183C71F7DF91CF911F910F9108952C98D7
:10FCF0002E99FECF8EBD0DB407FEFDCF8EB56EBD25
:10FD00000DB407FEFDCF8EB52C9A08951F93CF93A7
:10FD1000DF93182FF894249A259A2698279A5298B8
:10FD20002C9A2F9A2D9880E58CBD2C9A982F9A9515
:10FD3000F1F72C988A95F1F72C9A88E78A95F1F7D4
:10FD400080E30E947D7D88EC90E00197F1F7C1E5AA
:10FD5000D2EFFE0184912196FE0164910E94777E8C
:10FD60002196F2EFC538DF07A1F7112371F0C5E83E
:10FD7000D2EFFE0184912196FE0164910E94777E6C
:10FD80002196F2EFCB39DF07A1F783E30E947D7D57
:10FD900080E49FE10197F1F784E30E947D7D85E394
:10FDA00060EC0E94C17D8D30B9F78EE360EC0E945B
:10FDB000777E84E30E947D7D8CE30E947D7D80E7D9
:10FDC00097E10197F1F77894DF91CF911F91089512
:10FDD0001F920F920FB60F9211242F938F939F9320
:10FDE000EF93FF939091C0002091C600E0914501F0
:10FDF000EF5FEF7180914601E81711F492E007C0C0
:10FE00009871E0934501F0E0ED5DFE4F2083809115
:10FE10004701982B90934701FF91EF919F918F910C
:10FE20002F910F900FBE0F901F9018951F920F9259
:10FE30000FB60F9211248F939F93EF93FF9390919E
:10FE4000430180914401981769F0E0914401EF5F0C
:10FE5000EF71E0934401F0E0ED5FFE4F808180930D
:10FE6000C60005C08091C1008F7D8093C100FF91C5
:10FE7000EF919F918F910F900FBE0F901F9018954B
:10FE80009C0110924301109244011092450110927E
:10FE9000460197FF04C082E08093C0003F77309313
:10FEA000C5002093C40088E98093C10086E0809358
:10FEB000C20008959091450180914601981719F468
:10FEC00020E031E010C0E0914601EF5FEF71E09378
:10FED0004601F0E0ED5DFE4F808190914701109268
:10FEE0004701282F30E0C9010895282F9091430140
:10FEF0009F5F9F71809144019817E1F3E92FF0E033
:10FF0000ED5FFE4F2083909343018091C10080629A
:10FF10008093C1000895CF93DF93EC0103C0219635
:10FF20000E94757F88818823D1F7DF91CF91089552
:10FF3000CF93DF93EC0102C00E94757FFE012196F2
:10FF400084918823C9F7DF91CF910895FB01DC01EB
:10FF500002C005900D9241505040D8F70895FB0122
:10FF6000DC0102C001900D9241505040D8F7089535
:04FF7000F894FFCF33
:0FFFF00000964B4551303030303030311234569E
:040000030000F00009
:00000001FF
