:107000000C9446390C946B3A0C9463390C946339A4
:107010000C9463390C9463390C9463390C94633980
:107020000C9463390C9463390C9463390C94633970
:107030000C9463390C9463390C9463390C94633960
:107040000C94533A0C9463390C94183F0C94463FBB
:107050000C9463390C9463390C9463390C94633940
:107060000C9463390C9463390A56302E352E310A4C
:107070000A00426C6F636B20636F6D706C657465A2
:10708000210A00426C6F636B206C656E6774682028
:10709000616E6420626C6F636B20706F73697469DA
:1070A0006F6E20646F206E6F74206D617463680A68
:1070B00000476F74206D6F72652064617461207485
:1070C00068616E20626C6F636B206C656E677468BC
:1070D0000A00426C6F636B20746F206269670A005C
:1070E000426C6F636B206C656E67746820646966C0
:1070F00066657220776974682070616765207369BE
:107100007A650A00464154414C3A2057726F6E67C7
:10711000206D7367496420646574656374656421D8
:107120000A0052657472616E736D69742E2057691E
:107130006C6C207265666C617368210A00476F741D
:10714000206F74686572206D736720747970650AAA
:1071500000476F74206461746120627574206E6FE3
:107160007420666F722075730A0053746172742004
:1071700072656365697665206669726D77617265AF
:107180000A0053776974636820746F2031306B0A8A
:107190000053776974636820746F203130306B0A54
:1071A00000476F74206D65737361676520746F208D
:1071B000737461727420636F6E6669670A00476F4B
:1071C00074206461746120627574206E6F7420662F
:1071D0006F722075730A005761697420666F7220A0
:1071E0004342204D73670A0053656E6420626F6FDF
:1071F000746C6F616465722073657175656E63652B
:107200000A0054696D656F75742E20537461727431
:107210002070726F6772616D210A004352432066CD
:1072200061696C3A205265626F6F740D0A004352B7
:1072300043204F4B0D0A0053656E642061636B0A57
:1072400000002E012E0206030D04E905CA063D07C3
:107250000C0B060D210E650F6A10C8119312031551
:107260003416011730181819161B4321562500260D
:10727000112D353EC30B08105B11F81547191D1A67
:107280001C1BC71C001DB221B623EA0011241FBE1F
:10729000CFEFD8E0DEBFCDBF11E0A0E0B1E0E4ED7C
:1072A000FFE702C005900D92A031B107D9F711E0B8
:1072B000A0E1B1E001C01D92A83AB107E1F70E9438
:1072C000223D0C94E83F0C9400380F931F93CF930A
:1072D000DF93DA010FB7F894F999FECFAB0183E0A1
:1072E000FB0180935700E89507B600FCFDCFFA013B
:1072F00011E0BA0160587F4F8C9111963C91119723
:1073000020E0E901C80FD11D12960E01109357001D
:10731000E89511243296E617F70771F785E0FA0130
:1073200080935700E89507B600FCFDCF81E180937C
:107330005700E8950FBF7894DF91CF911F910F917F
:107340000895DC0111969C91119786E79827119674
:107350009C93119712965C91129742E008C0FD0130
:10736000E20FF31F94528081982790834F5F8C9196
:10737000242F30E0481798F3FD01E20FF31F8081BE
:10738000852780830895DC0111969C91119786E7EB
:10739000892711968C93119742E009C0FD01E20FF5
:1073A000F31F80819452982790834F5F982F8C9180
:1073B000242F30E0481790F3FD01E20FF31F808186
:1073C00012969C9189278083089590E041E250E1D4
:1073D0009B01220F331F87FD216077FD02C0B90199
:1073E00003C0B901642775279F5F983011F0880F9B
:1073F000EFCFCB010895CF93DF936FEF7FEFC0E026
:10740000D0E0FE0184910E94E539BC012196FFE69F
:10741000CE3FDF07B1F780E00E94E539BC0180E094
:107420000E94E539FE012591349140E02817390783
:1074300009F441E0842FDF91CF910895F89485B746
:10744000982F916095BF8D7F85BFE0E0F0E00995B2
:1074500008958FB7F89495B7292F216025BF9260C2
:1074600095BF8FBF089585B5826085BD16BCEEE6D9
:10747000F0E0808181608083089581E08DBB82E0AF
:107480008093690008955C9A80E593EC0197F1F789
:107490005C9880ED97E028EC30E0F9013197F1F746
:1074A0000197D9F708951F920F920FB60F921124EA
:1074B0008F939F9316BC80911101909112010196B8
:1074C00090931201809311019F918F910F900FBEA5
:1074D0000F901F9018951F920F920FB60F921124C4
:1074E0002F933F934F935F936F937F938F939F93CC
:1074F000AF93BF93EF93FF93F8948CE691E00E94D3
:107500001A3E882319F081E0809310017894FF914E
:10751000EF91BF91AF919F918F917F916F915F910B
:107520004F913F912F910F900FBE0F901F90189584
:107530000E94FB39882371F08EE292E70E94C83FD7
:1075400084EC99E028EC30E0F9013197F1F70197EC
:10755000D9F70895A8955C9A80E29EE428EC30E083
:10756000F9013197F1F70197D9F75C988BE192E730
:107570000E94C83F2EE088E190E00FB6F894A895ED
:10758000809360000FBE20936000FFCF80911101B7
:10759000909112018153954788F082E092E70E9412
:1075A000C83F84EC99E028EC30E0F9013197F1F71D
:1075B0000197D9F70E94983A0E941E3A089582E8EE
:1075C00091E70E94C83FF89480E00E94B83E78940A
:1075D000089581E991E70E94C83FF89481E00E94F4
:1075E000B83E789408950F931F938C010E94A1399F
:1075F000F894C80160E00E94593E78941F910F9161
:1076000008950F931F93DF93CF93CDB7DEB76597A0
:107610000FB6F894DEBF0FBECDBF88EE91E70E9493
:10762000C83F9091660120916701309168014091B7
:1076300058015091590160915A0170915B01E0919C
:107640005C01F0915D01A0915E01B0915F0110912C
:1076500060010091610184E189831A821B8280E1CB
:107660008C839D832E833F83188619861A861B86FA
:107670004C875D876E877F87E88BF98BAA8BBB8BE6
:107680001C8B0D8BCE0101960E94F33A65960FB6C6
:10769000F894DEBF0FBECDBFCF91DF911F910F9148
:1076A0000895DF93CF93CDB7DEB72B970FB6F8943D
:1076B000DEBF0FBECDBFFC019181209166013091EC
:1076C0006701409168015481658176818AE08983F0
:1076D0009A8390E89B8382E08C832D833E834F8343
:1076E000588769877A879B87CE0101960E94F33A73
:1076F0002B960FB6F894DEBF0FBECDBFCF91DF91B2
:107700000895DF93CF93CDB7DEB72B970FB6F894DC
:10771000DEBF0FBECDBFFC019091660120916701D5
:10772000309168014081518172818AE089836A8346
:1077300080E88B8382E08C839D832E833F83488700
:1077400059877A871B86CE0101960E94F33A2B96C1
:107750000FB6F894DEBF0FBECDBFCF91DF91089575
:107760002F923F924F925F927F928F929F92AF9211
:10777000BF92CF92DF92EF92FF920F931F93DF930E
:10778000CF93CDB7DEB7C058D0400FB6F894DEBF68
:107790000FBECDBF10921201109211018AE691E73F
:1077A0000E94C83F80916D01082F10E00F5F1F4FAE
:1077B000772444245524CC24DD248824992454019E
:1077C00001C087010E948A3F0E94C63A8091100141
:1077D0008823C1F38CE691E00E94C3391092100116
:1077E0009091730180916601981761F490917401F2
:1077F00080916701981731F490917501809168012B
:10780000981719F081E591E706C080916F018A3CD5
:1078100031F08DE391E70E94C83F7801D2CF80918B
:107820006D01E82EFF24E016F106D1F0C8010196A3
:10783000E816F90679F481149104A104B10451F019
:1078400001501040089481089108A108B10882E213
:1078500091E702C084E091E70E94C83F780102C02E
:10786000772049F53090760122248091770121011B
:10787000480E511C20E84216510419F080EE90E7A2
:1078800045C080916C0190E08C3891051CF082ED30
:1078900090E73CC0A5EFCA2EAFEFDA2EC80ED91E76
:1078A000CE01019628E731E0B901A6010E94DF3F31
:1078B0007724739421C080916C01E82FF0E0399710
:1078C000CF018C0D9D1D4816590618F481EB90E7E9
:1078D0001DC021E030E02C0F3D1F2C0D3D1DC901C6
:1078E00026E731E0B901AF010E94DF3F80916C01D2
:1078F00090E00997C80ED91E80916E01803209F080
:1079000060CFC414D50429F083E890E70E94C83FF3
:1079100027C082E790E70E94C83F5C9AC501B40186
:10792000F7E0660F771F881F991FFA95D1F7AE0110
:107930004F5F5F4F0E9465390894811C911CA11C08
:10794000B11C0894E11CF11C10921201109211015B
:107950005C9889E691E060916D010E94813B26016F
:1079600077242FCF0F931F93DF93CF9300D00F92E5
:10797000CDB7DEB78C01FC01828185FF10C087E3A3
:1079800092E70E94C83FF8018481898385818A83B8
:1079900086818B83CE01019661810E94813B0F908D
:1079A0000F900F90CF91DF911F910F91089587ED68
:1079B00091E70E94C83F10921201109211010E949B
:1079C0008A3F0E94C63A809110018823C1F38CE659
:1079D00091E00E94C339109210019091730180913F
:1079E0006601981761F4909174018091670198176E
:1079F00031F49091750180916801981729F08EEB10
:107A000091E70E94C83FDBCF80916F018B3CA9F4C6
:107A100081EA91E70E94C83F8091700180936901DB
:107A20008091710180936A018091720180936B0152
:107A30008CE691E00E94B23C08958CE691E00E94B1
:107A4000513BBDCF14BEA89588E10FB6F894809342
:107A50006000109260000FBE549A0E94433A0E9448
:107A6000293A85B5826085BD16BCEEE6F0E08081DE
:107A70008160808381E08DBB82E08093690088E033
:107A800090E00E94703F88E690E70E94C83F86E63B
:107A900091E06CEF7FE743E050E00E94D63F88E53D
:107AA00091E062EF7FE74AE050E00E94D63F0E94FB
:107AB000DF3A0E94433A0E94013B0E94D73C0E9459
:107AC000E93A0E94D73C0E94B03B80E090E00895E4
:107AD0000F931F93DF93CF930F92CDB7DEB7982FFD
:107AE00082958F7000E011E0F801E80FF11D8081B0
:107AF00099830E94A53F99819F70090F111DF8017C
:107B000080810E94A53F0F90CF91DF911F910F912F
:107B10000895EF92FF920F931F93CF93DF937C0111
:107B2000C0E0D0E0062F10E007C0F701EC0FFD1F0A
:107B300080810E94683D2196C017D107B0F380E292
:107B40000E94A53FDF91CF911F910F91FF90EF9081
:107B500008958EBD0DB407FEFDCF8EB508952A9809
:107B60002C99FECF8EBD0DB407FEFDCF8EB52A9A9F
:107B7000089586E30E94AF3D8AE30E94AF3D89E30A
:107B80000E94AF3D08952A982C99FECF80648EBD47
:107B90000DB407FEFDCF8EB5FB0190E008C08081DB
:107BA0008EBD0DB407FEFDCF8EB59F5F3196941745
:107BB000B0F32A9A08959C012A982C99FECF606C04
:107BC0006EBD0DB407FEFDCF8EB5F90190E007C084
:107BD0001EBC0DB407FEFDCF8EB581939F5F941739
:107BE000B8F32A9A08952A982C99FECF682B6EBD77
:107BF0000DB407FEFDCF8EB51EBC0DB407FEFDCF44
:107C00008EB52A9A089588E360EC0E94F33D0895AA
:107C10002A982C99FECF2A9A84E30E94AF3D80E7F0
:107C200097E10197F1F70E94033E8295869586952C
:107C300081700895CF93DF93EC018BE360EC0E9499
:107C4000F33D282F90E08F779070892B09F127FD65
:107C50001FC08FE360E80E94F33D482F88838D3377
:107C6000B8F4CE0101966FE30E94DB3D8FE360E83C
:107C70000E94F33D8FE360E80E94F33D982F9F77C9
:107C800090936501881F8827881F8093630101C036
:107C900018828AE30E94AF3D86E30E94AF3D84E3F1
:107CA0000E94AF3D8CE30E94AF3D8881DF91CF9170
:107CB00008950F931F93CF93DF93EC01162F86E364
:107CC0000E94AF3D8AE30E94AF3D8BE30E94AF3D2F
:107CD0001123B1F085E30E94AF3D80ED97E028ECE1
:107CE00030E0F9013197F1F70197D9F780E496E098
:107CF00028EC30E0F9013197F1F70197D9F704C08A
:107D000080ED97E00197F1F748814F5F8FE3BE0167
:107D10000E94C33D8AE30E94AF3D85E30E94AF3DD0
:107D200010E00AE185E360EC0E94F33D8D3061F0E4
:107D300085E360EC0E94F33D833131F4802F8A9516
:107D4000F1F71F5F183C71F7DF91CF911F910F91F1
:107D500008952A982C99FECF8EBD0DB407FEFDCF55
:107D60008EB56EBD0DB407FEFDCF8EB52A9A08956F
:107D70001F93CF93DF93182F229A239A2498259A42
:107D800052982A9A2D9A2B9880E58CBD2A9A982F82
:107D90009A95F1F72A988A95F1F72A9A88E78A95B1
:107DA000F1F780E30E94AF3D88EC90E00197F1F796
:107DB000C1E4D2E7FE0184912196FE0164910E9404
:107DC000A93E2196F2E7C537DF07A1F7112371F02D
:107DD000C5E7D2E7FE0184912196FE0164910E94DD
:107DE000A93E2196F2E7CB38DF07A1F783E30E9493
:107DF000AF3D80E49FE10197F1F784E30E94AF3D3E
:107E000085E360EC0E94F33D8D30B9F78EE360ECC2
:107E10000E94A93E84E30E94AF3D8CE30E94AF3DE7
:107E200080E797E10197F1F7DF91CF911F910895D6
:107E30001F920F920FB60F9211242F938F939F933F
:107E4000EF93FF939091C0002091C600E0915501FF
:107E5000EF5FEF7180915601E81711F492E007C0CF
:107E60009871E0935501F0E0ED5CFE4F2083809126
:107E70005701982B90935701FF91EF919F918F910C
:107E80002F910F900FBE0F901F9018951F920F9279
:107E90000FB60F9211248F939F93EF93FF939091BE
:107EA000530180915401981769F0E0915401EF5FFC
:107EB000EF71E0935401F0E0ED5EFE4F808180931E
:107EC000C60005C08091C1008F7D8093C100FF91E5
:107ED000EF919F918F910F900FBE0F901F9018956B
:107EE0009C0110925301109254011092550110926E
:107EF000560197FF04C082E08093C0003F77309323
:107F0000C5002093C40088E98093C10086E0809377
:107F1000C20008959091550180915601981719F467
:107F200020E031E010C0E0915601EF5FEF71E09387
:107F30005601F0E0ED5CFE4F808190915701109268
:107F40005701282F30E0C9010895282F909153013F
:107F50009F5F9F71809154019817E1F3E92FF0E042
:107F6000ED5EFE4F2083909353018091C1008062AB
:107F70008093C1000895CF93DF93EC0103C0219655
:107F80000E94A53F88818823D1F7DF91CF91089582
:107F9000CF93DF93EC0102C00E94A53FFE01219622
:107FA00084918823C9F7DF91CF910895FB01DC010B
:107FB00002C005900D9241505040D8F70895FB0142
:107FC000DC0102C001900D9241505040D8F7089555
:047FD000F894FFCF53
:107FD40030313233343536373839414243444546FB
:0F7FF000F10153454E305448504C30321122337A
:040000030000700089
:00000001FF
