:10E000000C941E710C94FF710C9430710C9430714F
:10E010000C9430710C9430710C9430710C943071FC
:10E020000C9430710C9430710C9430710C943071EC
:10E030000C9430710C9430710C9430710C943071DC
:10E040000C9430710C9430710C94E7710C94307115
:10E050000C9432760C9460760C9430710C94307180
:10E060000C9430710C9430710C9430710C943071AC
:10E070002E007061676553697A6520616E64206265
:10E080006C6F636B506F73206469666665720A001B
:10E09000546F206D616E79206461746120666F72C7
:10E0A000207061676553697A650A00626C6F636B03
:10E0B0004C656E20646966666572207061676553A1
:10E0C000697A650A0057726F6E67204D73674964FD
:10E0D000210A0052657472616E736D69742C20722E
:10E0E00065666C617368210A00476F74206F7468FD
:10E0F0006572206D7367547970650A0052656365B7
:10E10000697665206669726D776172650A00476F8E
:10E1100074204342206D73670A005761697420665A
:10E120006F72204342206D73670A00545820626F5B
:10E130006F746C6F616465722073657175656E6371
:10E14000650A0054696D656F75740A0053746172D5
:10E1500074204170700A00426F6F746C6F61646567
:10E16000722073656C66557064617465210A0043A2
:10E170005243206661696C2C205265626F6F740A8D
:10E1800000435243204F4B0A00706167654164644D
:10E1900072206578636565647320666C61736820BE
:10E1A0006D656D6F72790A005377697463682074C6
:10E1B0006F203130306B206D6F64650A000A417347
:10E1C0006B53696E204F544120426F6F746C6F61C6
:10E1D0006465722056302E372E300A0A0053776954
:10E1E00074636820746F2031306B206D6F64650A32
:10E1F00000002E012E0206030D04E905CA063D07A4
:10E200000C0B060D210E650F5010C811931203154B
:10E210003416011730181819161B432156250026ED
:10E22000112D353EC30B08105B11F81547191D1A47
:10E230001C1BC71C001DB221B623EA0011241FBEFF
:10E24000CFEFD0E1DEBFCDBF11E0A0E0B1E001C073
:10E250001D92A13DB107E1F70E9475740C940277FD
:10E260000C9400702FB7F89485B7982F916095BFE4
:10E27000826085BF2FBF85B5826085BD16BCEEE686
:10E28000F0E080818160808381E08DBB82E08093BB
:10E2900069000895CF93DF93809100018823D9F11D
:10E2A000F89410920001409195014093590180919A
:10E2B000960196E7892780935A01E6E9F1E0CBE5DC
:10E2C000D1E0A1E5B1E030E022E013C090819452AA
:10E2D000818198279883822F8750833030F48C91E6
:10E2E000981711F030E007C031E02F5F319621968A
:10E2F0001196241758F3A22FB0E0FD01EB56FE4F04
:10E30000808190915B018927A75ABE4F8C937894A6
:10E31000832F311181E0DF91CF91089590E041E2A8
:10E3200050E19B01220F331F87FD216077FD02C062
:10E33000B90103C0B901642775279F5F983011F0B8
:10E34000880FEFCFCB010895CF93DF936FEF7FEF6F
:10E35000C0E0D0E0FE0184910E948E71BC01219644
:10E36000FFEDCE3FDF07B1F780E00E948E71BC0168
:10E3700080E00E948E71FE012591349140E02817C3
:10E38000390709F441E0842FDF91CF91089550E0DF
:10E39000A0EDB7E019C0289A20E030E005C0FD01EB
:10E3A0003197F1F72F5F3F4F28173907C0F32898AF
:10E3B00020E030E005C0FD013197F1F72F5F3F4FBE
:10E3C00026173707C0F35F5F541728F308951F928D
:10E3D0000F920FB60F9211248F939F9316BC8091CA
:10E3E0000101909102010196909302018093010135
:10E3F0009F918F910F900FBE0F901F9018951F92B5
:10E400000F920FB60F9211242F933F934F935F9368
:10E410006F937F938F939F93AF93BF93EF93FF93EC
:10E42000F89485E991E00E944E75882319F081E007
:10E43000809300017894FF91EF91BF91AF919F91EC
:10E440008F917F916F915F914F913F912F910F909D
:10E450000FBE0F901F901895ECEFFFED85919491F2
:10E460008151974489F487E591EE0E94E27680E03D
:10E470009AEF0197F1F782E390E062E370E04AE0FF
:10E480000E94C7710E94807F8CE491EE0E94E27628
:10E4900080E09AEF0197F1F75F982898F89485B794
:10E4A000982F916095BF8D7F85BFE0E0F0E00995E2
:10E4B00008950E94A471882329F081E891EE0E94BA
:10E4C000E276089580ED97E061E070E041E00E941F
:10E4D000C7718FE691EE0E94E276A8952EE088E162
:10E4E00090E00FB6F894A895809360000FBE20933B
:10E4F0006000FFCF80910101909102018153954707
:10E5000040F083E491EE0E94E2760E9459720E94EC
:10E510002C7208951F93CF93DF93DA0161302FEDB2
:10E52000720720E0820720E0920728F089E891EE48
:10E530000E94E27630C0F894F999FECFAB0183E0F7
:10E54000FB0180935700E89507B600FCFDCFFA0168
:10E5500011E0BA0160507F4F8C9111963C91119758
:10E5600020E0E901C80FD11D12960E01109357004B
:10E57000E89511243296E617F70771F785E0FA015E
:10E5800080935700E89507B600FCFDCF81E18093AA
:10E590005700E8957894DF91CF911F910895DC01A1
:10E5A00011969C91119786E7982711969C93119745
:10E5B00012965C91129742E008C0FD01E20FF31F32
:10E5C00094528081982790834F5F8C91242F30E064
:10E5D000481798F3FD01E20FF31F808185278083A0
:10E5E000F894CD0160E00E948D75789408950F93A2
:10E5F0001F93DF93CF93CDB7DEB765970FB6F8942F
:10E60000DEBF0FBECDBF8BE291EE0E94E27690910D
:10E610005601209157013091580140914801509185
:10E62000490160914A0170914B01E0914C01F091D8
:10E630004D01A0914E01B0914F01109150010091F8
:10E64000510184E189831A821B8280E18C839D833E
:10E650002E833F83188619861A861B864C875D8712
:10E660006E877F87E88BF98BAA8BBB8B1C8B0D8BFE
:10E67000CE0101960E94CF7265960FB6F894DEBF68
:10E680000FBECDBFCF91DF911F910F910895DF9302
:10E69000CF93CDB7DEB72B970FB6F894DEBF0FBE82
:10E6A000CDBFFC01A62F662319F4828185FF1CC013
:10E6B0009181209156013091570140915801548128
:10E6C000658176818AE089839A8380E88B8382E002
:10E6D0008C832D833E834F83588769877A87AB87E6
:10E6E000CE0101960E94CF722B960FB6F894DEBF32
:10E6F0000FBECDBFCF91DF9108952F923F924F92E1
:10E700005F926F927F928F929F92AF92BF92CF92C1
:10E71000DF92EF92FF920F931F93DF93CF93CDB7CA
:10E72000DEB7C050D1400FB6F894DEBF0FBECDBFEC
:10E73000A0905A0110920201109201018CEF90EE0C
:10E740000E94E276BB2400E010E0CC24DD247601B8
:10E750002E010894411C511CB3E66B2EB1E07B2EB8
:10E76000A2E02A2E312C260C371C02C0BB24B39405
:10E770000E947A720E944A718823D1F380915C01D1
:10E780008A3C19F089EE90EE32C080915A018A15C8
:10E7900081F4BB2071F4C114D104E104F10449F007
:10E7A0000894C108D108E108F10883ED90EE0E94B9
:10E7B000E27680915A018A1550F425E42A1520F456
:10E7C0008A2D8155843A18F485EC90EE4AC0BB201E
:10E7D000E9F4909063018824809164019401280FEA
:10E7E000311DC9018050914029F08BEA90EE0E94C2
:10E7F000E276BECF80915901082F10E00B501040F7
:10E80000C201B101A8010E94F97620C0809159018E
:10E81000E82FF0E03997CF01800F911F8150914090
:10E8200018F080E990EE1DC09201200F311FC90140
:10E83000B301AF010E94F9768091590190E00997E8
:10E84000080F191F31E0B31609F092CF80915B01D8
:10E85000803209F08BCF81E00030180729F082E781
:10E8600090EE0E94E2761DC080E790EE0E94E27674
:10E87000289A9E2D8D2D7C2D6627A2010E948A72DA
:10E880000894C11CD11CE11CF11C109202011092D1
:10E8900001012898A0905A0189E591E060E00E946A
:10E8A0004773BB2465CF8AE191EE0E94E276109215
:10E8B0000201109201010E947A720E944A7188231B
:10E8C000D1F380915C018B3C51F48EE091EE0E947B
:10E8D000E27689E591E060E00E944773089589E55A
:10E8E00091E060E80E944773E6CF1F9314B714BE0F
:10E8F000A89588E10FB6F8948093600010926000AC
:10E900000FBE57985F9A8AE18A95F1F7209A4F9B3C
:10E9100030C08CE291E06CE271E040E00E94C7718F
:10E9200088E893E128EC30E0F9013197F1F701979D
:10E93000D9F786E990E066E970E047E00E94C77188
:10E9400088E893E128EC30E0F9013197F1F701977D
:10E95000D9F78CE291E06CE271E040E00E94C7716F
:10E9600080E197E228EC30E0F9013197F1F7019767
:10E97000D9F70E9432718DED91EE0E94E27680E02F
:10E980000E94D07588E090E00E948A768DEB91EE2F
:10E990000E94E2764F9B08C013FD06C00E94A4713E
:10E9A000882311F00E942C7289E190E068EC70E0FD
:10E9B00041E00E94C77186E591E06CEF7FEF43E094
:10E9C00050E00E94F07688E491E062EF7FEF4AE049
:10E9D00050E00E94F0760E94F7720E94537488EA19
:10E9E00091EE0E94E27681E00E94D0750E945374FD
:10E9F0000E947D7380E090E01F9108958EBD0DB45C
:10EA000007FEFDCF8EB508952C982E99FECF8EBDB2
:10EA10000DB407FEFDCF8EB52C9A08952C982E9933
:10EA2000FECF80648EBD0DB407FEFDCF8EB5FB0119
:10EA300090E008C080818EBD0DB407FEFDCF8EB57D
:10EA40009F5F31969417B0F32C9A08959C012C98EF
:10EA50002E99FECF606C6EBD0DB407FEFDCF8EB556
:10EA6000F90190E007C01EBC0DB407FEFDCF8EB5C6
:10EA700081939F5F9417B8F32C9A08952C982E9940
:10EA8000FECF682B6EBD0DB407FEFDCF8EB51EBC4C
:10EA90000DB407FEFDCF8EB52C9A0895CF93DF936A
:10EAA000EC018BE360EC0E943E75282F90E08F779D
:10EAB0009070892B09F127FD1FC08FE360E80E9449
:10EAC0003E75482F88838D33B8F4CE0101966FE3ED
:10EAD0000E9426758FE360E80E943E758FE360E830
:10EAE0000E943E75982F9F7790935501881F882725
:10EAF000881F8093530101C018828AE30E94047525
:10EB000086E30E94047584E30E9404758CE30E94EE
:10EB100004758881DF91CF9108950F931F938C0125
:10EB200086E30E9404758AE30E9404758BE30E94C9
:10EB3000047580ED97E00197F1F7F80140814F5F90
:10EB40008FE3B8010E940E758AE30E94047585E385
:10EB50000E94047500E01AE185E360EC0E943E75B6
:10EB60008D3061F085E360EC0E943E75833131F4B5
:10EB7000812F8A95F1F70F5F083C71F71F910F9174
:10EB800008952C982E99FECF8EBD0DB407FEFDCFB3
:10EB90008EB56EBD0DB407FEFDCF8EB52C9A0895CF
:10EBA0001F93CF93DF93182FF894249A259A2698D1
:10EBB000279A52982C9A2F9A2D9880E58CBD2C9AE2
:10EBC000982F9A95F1F72C988A95F1F72C9A88E767
:10EBD0008A95F1F780E30E94047588EC90E0019734
:10EBE000F1F7C1EFD1EEFE0184912196FE0164910F
:10EBF0000E94C1752196F2EEC532DF07A1F71123FD
:10EC000071F0C5E2D2EEFE0184912196FE0164917D
:10EC10000E94C1752196F2EECB33DF07A1F783E3A3
:10EC20000E94047580E49FE10197F1F784E30E945C
:10EC3000047585E360EC0E943E758D30B9F78EE374
:10EC400060EC0E94C17584E30E9404758CE30E940D
:10EC5000047580E797E10197F1F77894DF91CF9100
:10EC60001F9108951F920F920FB60F9211242F93A8
:10EC70008F939F93EF93FF939091C0002091C600D4
:10EC8000E0914501EF5FEF7180914601E81711F4C3
:10EC900092E007C09871E0934501F0E0ED5DFE4F12
:10ECA000208380914701982B90934701FF91EF912A
:10ECB0009F918F912F910F900FBE0F901F901895DD
:10ECC0001F920F920FB60F9211248F939F93EF9381
:10ECD000FF939091430180914401981769F0E0916E
:10ECE0004401EF5FEF71E0934401F0E0ED5FFE4F10
:10ECF00080818093C60005C08091C1008F7D809384
:10ED0000C100FF91EF919F918F910F900FBE0F90D7
:10ED10001F9018959C01109243011092440110928B
:10ED200045011092460197FF04C082E08093C00025
:10ED30003F773093C5002093C40088E98093C100D9
:10ED400086E08093C200089590914501809146012C
:10ED5000981719F420E031E010C0E0914601EF5F10
:10ED6000EF71E0934601F0E0ED5DFE4F8081909100
:10ED7000470110924701282F30E0C9010895282F3C
:10ED8000909143019F5F9F71809144019817E1F337
:10ED9000E92FF0E0ED5FFE4F2083909343018091D7
:10EDA000C10080628093C1000895CF93DF93EC018E
:10EDB00003C021960E94BF7688818823D1F7DF9116
:10EDC000CF910895CF93DF93EC0102C00E94BF76EC
:10EDD000FE01219684918823C9F7DF91CF91089590
:10EDE000FB01DC0102C005900D9241505040D8F764
:10EDF0000895FB01DC0102C001900D92415050408A
:08EE0000D8F70895F894FFCF44
:10FF00001F93F894289A60E070E013E0B1E0A5E058
:10FF1000AB0140505042FA0110935700E89507B6E4
:10FF200000FCFDCF20E030E0F901E60FF71F8591DE
:10FF30009491F901E40FF51F0C01B0935700E89577
:10FF400011242E5F3F4FF1E020303F0769F7FA019F
:10FF5000A0935700E89507B600FCFDCF60507F4F97
:10FF6000FFE160307F07A1F6E0E0FFED83E08093E2
:10FF70005700E89507B600FCFDCF81E1809357005C
:10FF8000E89528982EE088E190E00FB6F894A895BF
:0CFF9000809360000FBE20936000FFCF44
:02FFF000009679
:0AFFF2004B455130303030303031D3
:03FFFC0012345666
:040000030000E00019
:00000001FF
