:10E000000C9434710C940C720C9446710C944671FF
:10E010000C9446710C9446710C9446710C944671A4
:10E020000C9446710C9446710C9446710C94467194
:10E030000C9446710C9446710C9446710C94467184
:10E040000C9446710C9446710C94F4710C944671C6
:10E050000C9412760C9440760C9446710C94467194
:10E060000C9446710C9446710C9446710C94467154
:10E070002E007061676553697A6520616E64206265
:10E080006C6F636B506F73206469666665720A001B
:10E09000546F206D616E79206461746120666F72C7
:10E0A0002063757272656E74207061676553697A5A
:10E0B000650A00426C6F636B206C656E6774682044
:10E0C000646966666572207061676553697A650A7E
:10E0D00000464154414C3A2057726F6E67206D7371
:10E0E0006749642064657465637465640A005265F9
:10E0F0007472616E736D69742E2057652077696C38
:10E100006C20726520666C617368210A00476F7429
:10E11000206F74686572206D657373616765207424
:10E120007970650A00537461727420726563656961
:10E130007665206669726D776172650A00476F7453
:10E14000204342206D6573736167650A00576169FA
:10E150007420666F72204342206D6573736167653A
:10E160000A0053656E6420626F6F746C6F61646542
:10E17000722073657175656E63650A000A54696D76
:10E18000656F75740A005374617274204170700A6F
:10E1900000435243206661696C3A205265626F6F9A
:10E1A000740A00435243204F4B0A00706167654177
:10E1B0006464722065786365656473206176616963
:10E1C0006C61626C6520666C617368206D656D6F53
:10E1D00072790A0053776974636820746F20313054
:10E1E000306B206D6F64650A000A41736B53696E72
:10E1F000204F544120426F6F746C6F6164657220D0
:10E2000056302E362E320A0A00537769746368201E
:10E21000746F2031306B206D6F64650A00002E0131
:10E220002E0206030D04E905CA063D070C0B060D78
:10E23000210E650F5010C8119312031534160117E3
:10E2400030181819161B432156250026112D353E6E
:10E25000C30B08105B11F81547191D1A1C1BC71CAE
:10E26000001DB221B623EA0011241FBECFEFD0E17A
:10E27000DEBFCDBF11E0A0E0B1E001C01D92A23D24
:10E28000B107E1F70E9482740C94E2760C9400705E
:10E290002FB7F89485B7982F916095BF826085BF9E
:10E2A0002FBF85B5826085BD16BCEEE6F0E08081AB
:10E2B0008160808381E08DBB82E080936900089556
:10E2C000CF93DF93809100018823D9F1F8941092C5
:10E2D000000140919501409359018091960196E784
:10E2E000892780935A01E6E9F1E0CBE5D1E0A1E589
:10E2F000B1E030E022E013C09081945281819827F0
:10E300009883822F8750833030F48C91981711F0C6
:10E3100030E007C031E02F5F319621961196241727
:10E3200058F3A22FB0E0FD01EB56FE4F8081909193
:10E330005B018927A75ABE4F8C937894832F3111A4
:10E3400081E0DF91CF91089590E041E250E19B019F
:10E35000220F331F87FD216077FD02C0B90103C082
:10E36000B901642775279F5F983011F0880FEFCFB0
:10E37000CB010895CF93DF936FEF7FEFC0E0D0E044
:10E38000FE0184910E94A471BC012196FFEDCE3F55
:10E39000DF07B1F780E00E94A471BC0180E00E9419
:10E3A000A471FE012591349140E02817390709F442
:10E3B00041E0842FDF91CF910895289A20ED37E036
:10E3C00004C0F9013197F1F701970097D1F7289828
:10E3D00020ED37E005C0C9010197F1F761507040A9
:10E3E00061157105C1F708951F920F920FB60F9234
:10E3F00011248F939F9316BC80910101909102018B
:10E40000019690930201809301019F918F910F904B
:10E410000FBE0F901F9018951F920F920FB60F927C
:10E4200011242F933F934F935F936F937F938F9319
:10E430009F93AF93BF93EF93FF93F89485E991E097
:10E440000E942E75882319F081E080930001789452
:10E45000FF91EF91BF91AF919F918F917F916F91BC
:10E460005F914F913F912F910F900FBE0F901F9092
:10E47000189586E891EE0E94C27680E09AEF0197A7
:10E48000F1F75F982898F89485B7982F916095BF19
:10E490008D7F85BFE0E0F0E0099508950E94BA7194
:10E4A000882329F083EA91EE0E94C276089580EDD8
:10E4B00097E061E070E00E94DD7181E991EE0E94D9
:10E4C000C276A8952EE088E190E00FB6F894A89562
:10E4D000809360000FBE20936000FFCF8091010108
:10E4E000909102018153954740F08CE791EE0E9494
:10E4F000C2760E944E720E94397208951F93CF9384
:10E50000DF93DA0161302FED720720E0820720E00F
:10E51000920728F08BEA91EE0E94C27630C0F89400
:10E52000F999FECFAB0183E0FB0180935700E8959A
:10E5300007B600FCFDCFFA0111E0BA0160507F4F31
:10E540008C9111963C91119720E0E901C80FD11DE3
:10E5500012960E0110935700E89511243296E61793
:10E56000F70771F785E0FA0180935700E89507B641
:10E5700000FCFDCF81E180935700E8957894DF910E
:10E58000CF911F910895DC0111969C91119786E718
:10E59000982711969C93119712965C91129742E0DE
:10E5A00008C0FD01E20FF31F9452808198279083E9
:10E5B0004F5F8C91242F30E0481798F3FD01E20F54
:10E5C000F31F808185278083F894CD0160E00E944D
:10E5D0006D75789408950F931F93DF93CF93CDB704
:10E5E000DEB765970FB6F894DEBF0FBECDBF82E6EB
:10E5F00091EE0E94C2769091560120915701309180
:10E600005801409148015091490160914A0170912F
:10E610004B01E0914C01F0914D01A0914E01B09160
:10E620004F01109150010091510184E189831A82B8
:10E630001B8280E18C839D832E833F8318861986FD
:10E640001A861B864C875D876E877F87E88BF98BE0
:10E65000AA8BBB8B1C8B0D8BCE0101960E94C372C3
:10E6600065960FB6F894DEBF0FBECDBFCF91DF9198
:10E670001F910F910895DF93CF93CDB7DEB72B97FE
:10E680000FB6F894DEBF0FBECDBFFC01A62F6623E8
:10E6900019F4828185FF1CC091812091560130912F
:10E6A0005701409158015481658176818AE08983C0
:10E6B0009A8380E88B8382E08C832D833E834F8313
:10E6C000588769877A87AB87CE0101960E94C3720B
:10E6D0002B960FB6F894DEBF0FBECDBFCF91DF9162
:10E6E00008952F923F924F925F926F927F929F92E6
:10E6F000AF92BF92CF92DF92EF92FF920F931F9350
:10E70000DF93CF93CDB7DEB7C050D1400FB6F894AA
:10E71000DEBF0FBECDBF1092020110920101109119
:10E720005A018091D101180F1F5F85E291EE0E947E
:10E73000C27600E0EE24FF24AA24BB2465011E015A
:10E740000894211C311CB5E64B2EB1E05B2E02C0B3
:10E7500000E0192D0E946E720E9460718823D1F32F
:10E7600080915C018A3C31F08DE091EE0E94C2768E
:10E77000912EEFCF90905A019116E1F0292D30E0C3
:10E78000812F90E001962817390771F4A114B10484
:10E79000C104D10449F011500894A108B108C1087E
:10E7A000D1088EEE90EE02C081ED90EE0E94C2760E
:10E7B000912E02C0002309F57090630166248091B8
:10E7C00064019301280F311DC9018050914031F03F
:10E7D00083EB90EE0E94C27601E0BBCF809159019D
:10E7E000E82EFF2485EF9FEFE80EF91EC101B2016C
:10E7F000A7010E94D97601E01EC080915901E82F3F
:10E80000F0E03997CF018E0D9F1D8150914018F097
:10E8100080E990EE1BC091012E0D3F1DC90123E63A
:10E8200031E0B901AF010E94D9768091590190E0A1
:10E830000997E80EF91E80915B01803231F530E0D6
:10E84000E31631E0F30629F082E790EE0E94C276EB
:10E850007FCF80E790EE0E94C276289A9C2D8B2D68
:10E860007A2D6627A1010E947E720894A11CB11C1A
:10E87000C11CD11C1092020110920101289889E557
:10E8800091E060E00E943B7303C0002309F061CF78
:10E890008091D10190915A01980F992E93948230D2
:10E8A00008F456CF97FE54CFF1E89F2E990E50CF23
:10E8B0008DE491EE0E94C276109202011092010145
:10E8C0000E946E720E9460718823D1F380915C0176
:10E8D0008B3C91F48DE391EE0E94C27680915901B8
:10E8E000813120F080916A018093D10189E591E026
:10E8F00060E00E943B73089589E591E060E80E9422
:10E900003B73DECF1F9314B714BEA89588E10FB6F2
:10E91000F89480936000109260000FBE209A89E105
:10E9200090E068EC70E00E94DD710E94487189E01F
:10E9300092EE0E94C27680E00E94B07588E090E07E
:10E940000E946A7689EE91EE0E94C27657985F9A8D
:10E950008AE18A95F1F70E94BA714F9B06C013FDB8
:10E9600004C0882311F00E94397289E190E068ECBC
:10E9700070E00E94DD7186E591E06CEF7FEF43E08F
:10E9800050E00E94D07688E491E062EF7FEF4AE0A9
:10E9900050E00E94D0760E94EB720E94587484ED81
:10E9A00091EE0E94C27681E00E94B0750E94587478
:10E9B0000E94717380E090E01F9108958EBD0DB4A8
:10E9C00007FEFDCF8EB508952C982E99FECF8EBDF3
:10E9D0000DB407FEFDCF8EB52C9A08952C982E9974
:10E9E000FECF80648EBD0DB407FEFDCF8EB5FB015A
:10E9F00090E008C080818EBD0DB407FEFDCF8EB5BE
:10EA00009F5F31969417B0F32C9A08959C012C982F
:10EA10002E99FECF606C6EBD0DB407FEFDCF8EB596
:10EA2000F90190E007C01EBC0DB407FEFDCF8EB506
:10EA300081939F5F9417B8F32C9A08952C982E9980
:10EA4000FECF682B6EBD0DB407FEFDCF8EB51EBC8C
:10EA50000DB407FEFDCF8EB52C9A0895CF93DF93AA
:10EA6000EC018BE360EC0E941E75282F90E08F77FD
:10EA70009070892B09F127FD1FC08FE360E80E9489
:10EA80001E75482F88838D33B8F4CE0101966FE34D
:10EA90000E9406758FE360E80E941E758FE360E8B0
:10EAA0000E941E75982F9F7790935501881F882785
:10EAB000881F8093530101C018828AE30E94E47486
:10EAC00086E30E94E47484E30E94E4748CE30E9471
:10EAD000E4748881DF91CF9108950F931F938C0187
:10EAE00086E30E94E4748AE30E94E4748BE30E944C
:10EAF000E47480ED97E00197F1F7F80140814F5FF2
:10EB00008FE3B8010E94EE748AE30E94E47485E307
:10EB10000E94E47400E01AE185E360EC0E941E7537
:10EB20008D3061F085E360EC0E941E75833131F415
:10EB3000812F8A95F1F70F5F083C71F71F910F91B4
:10EB400008952C982E99FECF8EBD0DB407FEFDCFF3
:10EB50008EB56EBD0DB407FEFDCF8EB52C9A08950F
:10EB60001F93CF93DF93182FF894249A259A269811
:10EB7000279A52982C9A2F9A2D9880E58CBD2C9A22
:10EB8000982F9A95F1F72C988A95F1F72C9A88E7A7
:10EB90008A95F1F780E30E94E47488EC90E0019795
:10EBA000F1F7CDE1D2EEFE0184912196FE01649150
:10EBB0000E94A1752196F2EEC135DF07A1F711235E
:10EBC00071F0C1E5D2EEFE0184912196FE016491BF
:10EBD0000E94A1752196F2EEC736DF07A1F783E305
:10EBE0000E94E47480E49FE10197F1F784E30E94BE
:10EBF000E47485E360EC0E941E758D30B9F78EE3F6
:10EC000060EC0E94A17584E30E94E4748CE30E948E
:10EC1000E47480E797E10197F1F77894DF91CF9161
:10EC20001F9108951F920F920FB60F9211242F93E8
:10EC30008F939F93EF93FF939091C0002091C60014
:10EC4000E0914501EF5FEF7180914601E81711F403
:10EC500092E007C09871E0934501F0E0ED5DFE4F52
:10EC6000208380914701982B90934701FF91EF916A
:10EC70009F918F912F910F900FBE0F901F9018951D
:10EC80001F920F920FB60F9211248F939F93EF93C1
:10EC9000FF939091430180914401981769F0E091AE
:10ECA0004401EF5FEF71E0934401F0E0ED5FFE4F50
:10ECB00080818093C60005C08091C1008F7D8093C4
:10ECC000C100FF91EF919F918F910F900FBE0F9018
:10ECD0001F9018959C0110924301109244011092CC
:10ECE00045011092460197FF04C082E08093C00066
:10ECF0003F773093C5002093C40088E98093C1001A
:10ED000086E08093C200089590914501809146016C
:10ED1000981719F420E031E010C0E0914601EF5F50
:10ED2000EF71E0934601F0E0ED5DFE4F8081909140
:10ED3000470110924701282F30E0C9010895282F7C
:10ED4000909143019F5F9F71809144019817E1F377
:10ED5000E92FF0E0ED5FFE4F208390934301809117
:10ED6000C10080628093C1000895CF93DF93EC01CE
:10ED700003C021960E949F7688818823D1F7DF9176
:10ED8000CF910895CF93DF93EC0102C00E949F764C
:10ED9000FE01219684918823C9F7DF91CF910895D0
:10EDA000FB01DC0102C005900D9241505040D8F7A4
:10EDB0000895FB01DC0102C001900D9241505040CA
:08EDC000D8F70895F894FFCF85
:02FFF000009679
:0AFFF2004B455130303030303031D3
:03FFFC0012345666
:040000030000E00019
:00000001FF
