:107000000C9440390C94DF390C945D390C945D3943
:107010000C945D390C945D390C945D390C945D3998
:107020000C945D390C945D390C945D390C945D3988
:107030000C945D390C945D390C945D390C945D3978
:107040000C94C7390C945D390C94803E0C94AE3E80
:107050000C945D390C945D390C945D390C945D3958
:107060000C945D390C945D392E007061676553692D
:107070007A6520616E6420626C6F636B506F732061
:107080006469666665720A00546F206D616E7920CE
:107090006461746120666F722063757272656E74CC
:1070A000207061676553697A650A00426C6F636B93
:1070B000206C656E6774682064696666657220700E
:1070C00061676553697A650A0052657472616E730F
:1070D0006D69742E2057652077696C6C207265206D
:1070E000666C617368210A00476F74206F7468656D
:1070F00072206D65737361676520747970650A002D
:10710000537461727420726563656976652066697F
:10711000726D776172650A00476F74204342206D7B
:107120006573736167650A005761697420666F72E1
:10713000204342206D6573736167650A0053656E75
:107140006420626F6F746C6F616465722073657127
:1071500075656E63650A000A54696D656F75740A1A
:10716000005374617274204170700A00537461722C
:107170007420626F6F746C6F616465722053656C0C
:107180006620557064617465210A0053656E642041
:1071900041434B0A00435243206661696C3A2052D6
:1071A00065626F6F740A00435243204F4B0A0044DC
:1071B000617461206E6F7420666F722075730A00AF
:1071C00070616765416464722065786365656473A6
:1071D00020617661696C61626C6520666C617368C0
:1071E000206D656D6F72790A00537769746368204A
:1071F000746F203130306B206D6F64650A000A4176
:10720000736B53696E204F544120426F6F746C6FE3
:10721000616465722056302E372E300A0A0053778B
:107220006974636820746F2031306B206D6F646502
:107230000A000A002000002E012E0206030D04E9B8
:1072400005CA063D070C0B060D210E650F5010C830
:1072500011931203153416011730181819161B4311
:107260002156250026112D353EC30B08105B11F861
:107270001547191D1A1C1BC71C001DB221B623EA95
:1072800011241FBECFEFD8E0DEBFCDBF11E0A0E0DC
:10729000B1E0E4EAFEE702C005900D92AA31B10721
:1072A000D9F711E0AAE1B1E001C01D92AB3EB107F0
:1072B000E1F70E94F03C0C94503F0C9400382FB73B
:1072C000F89485B7982F916095BF826085BF2FBFD6
:1072D00085B5826085BD16BCEEE6F0E080818160F8
:1072E000808381E08DBB82E080936900089590E007
:1072F00041E250E19B01220F331F87FD216077FDA2
:1073000002C0B90103C0B901642775279F5F983097
:1073100011F0880FEFCFCB010895CF93DF936FEF7C
:107320007FEFC0E0D0E0FE0184910E947739BC017C
:107330002196FFE6CE3FDF07B1F780E00E94773964
:10734000BC0180E00E947739FE012591349140E034
:107350002817390709F441E0842FDF91CF91089570
:107360005C9A20ED37E004C0F9013197F1F70197FD
:107370000097D1F75C9820ED37E005C0C90101976F
:10738000F1F76150704061157105C1F708951F92C2
:107390000F920FB60F9211248F939F9316BC80917A
:1073A0001B0190911C01019690931C0180931B017D
:1073B0009F918F910F900FBE0F901F9018951F9265
:1073C0000F920FB60F9211242F933F934F935F9319
:1073D0006F937F938F939F93AF93BF93EF93FF939D
:1073E000F8948FEA91E00E949C3D882319F081E097
:1073F00080931A017894FF91EF91BF91AF919F9183
:107400008F917F916F915F914F913F912F910F904D
:107410000FBE0F901F9018951F93ECEFFFE685911C
:10742000949181519744A1F48CE691E70E94303FFA
:1074300080E09AEF0197F1F710E082E390E062E3D9
:1074400070E00E94B0391F5F1A30B9F70E94803F88
:1074500081E691E70E94303F80E09AEF0197F1F7D3
:107460005C98F89485B7982F916095BF8D7F85BF04
:10747000E0E0F0E009951F9108950E948D3988237E
:1074800029F087EA91E70E94303F089580ED97E068
:1074900061E070E00E94B03985E991E70E94303FD9
:1074A000A8952EE088E190E00FB6F894A895809317
:1074B00060000FBE20936000FFCF80911B01909170
:1074C0001C018153954740F087E591E70E94303FCA
:1074D0000E943D3A0E940C3A08951F93CF93DF9388
:1074E000DA0161382FE6720720E0820720E0920778
:1074F00028F080EC91E70E94303F30C0F894F99971
:10750000FECFAB0183E0FB0180935700E89507B6FF
:1075100000FCFDCFFA0111E0BA0160587F4F8C9159
:1075200011963C91119720E0E901C80FD11D1296E8
:107530000E0110935700E89511243296E617F707CD
:1075400071F785E0FA0180935700E89507B600FCD3
:10755000FDCF81E180935700E8957894DF91CF913A
:107560001F910895DC0111969C91119786E7982749
:1075700011969C93119712965C91129742E008C065
:10758000FD01E20FF31F94528081982790834F5F93
:107590008C91242F30E0481798F3FD01E20FF31F80
:1075A000808185278083F894CD0160E00E94DB3DD7
:1075B00078940895FF920F931F93DF93CF93CDB7E5
:1075C000DEB72B970FB6F894DEBF0FBECDBF8C0190
:1075D000F62E662341F4FC01828185FF21C08BE8F1
:1075E00091E70E94303FF801918120917001309124
:1075F0007101409172015481658176818AE08983AD
:107600009A8380E88B8382E08C832D833E834F8333
:10761000588769877A87FB86CE0101960E94B23A25
:107620002B960FB6F894DEBF0FBECDBFCF91DF9182
:107630001F910F91FF9008950F931F93CF93DF93A6
:10764000062FEC0110E017C0E881E295EF70F0E042
:10765000E65FFE4F80810E940D3FE991F0E0EF7000
:10766000F070E65FFE4F80810E940D3F84E392E759
:107670000E94303F1F5F101738F3DF91CF911F91A9
:107680000F910895CF93DF93EC01662319F080E00A
:1076900091E002C085E091E00E94233F68816F5F26
:1076A000CE010E941C3B82E392E70E94303FDF91B3
:1076B000CF9108950F931F93DF93CF93CDB7DEB78C
:1076C00065970FB6F894DEBF0FBECDBF8DE391E78F
:1076D0000E94303F909170012091710130917201B0
:1076E0004091620150916301609164017091650164
:1076F000E0916601F0916701A0916801B091690184
:1077000010916A0100916B0184E189831A821B82C6
:1077100080E18C839D832E833F83188619861A8689
:107720001B864C875D876E877F87E88BF98BAA8BDA
:10773000BB8B1C8B0D8B8E010F5F1F4FC80161E04F
:107740000E94423BC8010E94B23A65960FB6F89477
:10775000DEBF0FBECDBFCF91DF911F910F91089576
:10776000CF93DF9380911A01882309F446C0F894DF
:1077700010921A014091AF01409373018091B001C2
:1077800096E7892780937401E0EBF1E0C5E7D1E04B
:10779000ABE6B1E030E022E013C0908194528181E9
:1077A00098279883822F8750833030F48C919817D4
:1077B00011F030E007C031E02F5F3196219611962D
:1077C000241758F3A22FB0E0FD01E155FE4F808150
:1077D000909175018927AD58BE4F8C9378943323CF
:1077E00039F083E791E060E00E94423B81E005C010
:1077F0008FEA91E70E94303F80E0DF91CF910895BA
:107800002F923F924F925F926F927F928F929F92B0
:10781000AF92BF92CF92DF92EF92FF920F931F939E
:10782000DF93CF93CDB7DEB7C058D0400FB6F894F2
:10783000DEBF0FBECDBFA090740110921C0110924C
:107840001B0180E091E70E94303FBB2400E010E084
:10785000CC24DD2476012E010894411C511C8DE7B7
:10786000682E81E0782EB2E02B2E312C260C371CAE
:1078700002C0BB24B3940E945D3A0E94B03B8823AF
:10788000D1F3809176018A3C29F088EE90E70E943E
:10789000303FF1CF809174018A1589F4BB2069F5DE
:1078A000C114D104E104F10461F00894C108D108C5
:1078B000E108F10889EC90E70E94303F02C0BB204C
:1078C000E1F490907D01882480917E019401280F3D
:1078D000311D2038310529F08BEA90E70E94303FB6
:1078E000C8CF80917301082F10E00B501040C201E7
:1078F000B101A8010E94473F20C080917301E82F89
:10790000F0E03997CF01800F911F8138910518F071
:1079100088E890E71CC09201200F311FC901B30114
:10792000AF010E94473F8091730190E00997080FD3
:10793000191F31E0B31609F09ECF80917501803296
:1079400009F097CF0038110529F08AE690E70E94E8
:10795000303F22C088E690E70E94303F5C9AC70122
:10796000B601A7E0660F771F881F991FAA95D1F768
:10797000A2010E946D3A0894C11CD11CE11CF11CAB
:1079800010921C0110921B015C98A090740183E777
:1079900091E060E00E94DA3ABB246DCF88E291E783
:1079A0000E94303F10921C0110921B010E945D3A10
:1079B0000E94B03B8823D1F3809176018B3C51F437
:1079C00088E191E70E94303F83E791E060E00E9408
:1079D000DA3A089583E791E060E80E94DA3AE6CF68
:1079E0001F9314B714BEA89588E10FB6F89480933E
:1079F0006000109260000FBE549A89E190E068EC3C
:107A000070E00E94B0390E945F398EE192E70E94D7
:107A1000303F80E00E941E3E88E090E00E94D83E09
:107A20008EEF91E70E94303F2098289A8AE18A954C
:107A3000F1F7189B08C013FD06C00E948D398823FA
:107A400011F00E940C3A89E190E068EC70E00E942D
:107A5000B03980E791E06CEF7FE743E050E00E94AF
:107A60003E3F82E691E062EF7FE74AE050E00E940D
:107A70003E3F0E945A3B0E94CE3C89EE91E70E9415
:107A8000303F81E00E941E3E0E94CE3C0E94003C9E
:107A900080E090E01F9108958EBD0DB407FEFDCFEC
:107AA0008EB508952A982C99FECF8EBD0DB407FE91
:107AB000FDCF8EB52A9A08952A982C99FECF80641E
:107AC0008EBD0DB407FEFDCF8EB5FB0190E008C062
:107AD00080818EBD0DB407FEFDCF8EB59F5F3196C0
:107AE0009417B0F32A9A08959C012A982C99FECFF6
:107AF000606C6EBD0DB407FEFDCF8EB5F90190E050
:107B000007C01EBC0DB407FEFDCF8EB581939F5FED
:107B10009417B8F32A9A08952A982C99FECF682BC7
:107B20006EBD0DB407FEFDCF8EB51EBC0DB407FEB5
:107B3000FDCF8EB52A9A0895CF93DF93EC018BE3A6
:107B400060EC0E948C3D282F90E08F779070892BFD
:107B500009F127FD1FC08FE360E80E948C3D482F8C
:107B600088838D33B8F4CE0101966FE30E94743D93
:107B70008FE360E80E948C3D8FE360E80E948C3DBB
:107B8000982F9F7790936F01881F8827881F809375
:107B90006D0101C018828AE30E94523D86E30E9473
:107BA000523D84E30E94523D8CE30E94523D888105
:107BB000DF91CF9108950F931F938C0186E30E946C
:107BC000523D8AE30E94523D8BE30E94523D80ED7C
:107BD00097E00197F1F7F80140814F5F8FE3B8011B
:107BE0000E945C3D8AE30E94523D85E30E94523D23
:107BF00000E01AE185E360EC0E948C3D8D3061F07D
:107C000085E360EC0E948C3D833131F4812F8A95AD
:107C1000F1F70F5F083C71F71F910F9108952A98B3
:107C20002C99FECF8EBD0DB407FEFDCF8EB56EBD77
:107C30000DB407FEFDCF8EB52A9A08951F93CF93FA
:107C4000DF93182FF894229A239A2498259A529811
:107C50002A9A2D9A2B9880E58CBD2A9A982F9A956E
:107C6000F1F72A988A95F1F72A9A88E78A95F1F729
:107C700080E30E94523D88EC90E00197F1F7C6E363
:107C8000D2E7FE0184912196FE0164910E940F3E8D
:107C90002196F2E7CA36DF07A1F7112371F0CAE691
:107CA000D2E7FE0184912196FE0164910E940F3E6D
:107CB0002196F2E7C038DF07A1F783E30E94523D27
:107CC00080E49FE10197F1F784E30E94523D85E350
:107CD00060EC0E948C3D8D30B9F78EE360EC0E9421
:107CE0000F3E84E30E94523D8CE30E94523D80E7A8
:107CF00097E10197F1F77894DF91CF911F91089563
:107D00001F920F920FB60F9211242F938F939F9370
:107D1000EF93FF939091C0002091C600E0915F0126
:107D2000EF5FEF7180916001E81711F492E007C0F6
:107D30009871E0935F01F0E0E35CFE4F2083809157
:107D40006101982B90936101FF91EF919F918F9129
:107D50002F910F900FBE0F901F9018951F920F92AA
:107D60000FB60F9211248F939F93EF93FF939091EF
:107D70005D0180915E01981769F0E0915E01EF5F0F
:107D8000EF71E0935E01F0E0E35EFE4F808180934F
:107D9000C60005C08091C1008F7D8093C100FF9116
:107DA000EF919F918F910F900FBE0F901F9018959C
:107DB0009C0110925D0110925E0110925F01109281
:107DC000600197FF04C082E08093C0003F7730934A
:107DD000C5002093C40088E98093C10086E08093A9
:107DE000C200089590915F0180916001981719F485
:107DF00020E031E010C0E0916001EF5FEF71E093AF
:107E00006001F0E0E35CFE4F80819091610110928F
:107E10006101282F30E0C9010895282F90915D015C
:107E20009F5F9F7180915E019817E1F3E92FF0E069
:107E3000E35EFE4F208390935D018091C1008062DC
:107E40008093C1000895CF93DF93EC0103C0219686
:107E50000E940D3F88818823D1F7DF91CF9108954B
:107E6000CF93DF93EC0102C00E940D3FFE012196EB
:107E700084918823C9F7DF91CF910895FB01DC013C
:107E800002C005900D9241505040D8F70895FB0173
:107E9000DC0102C001900D9241505040D8F7089586
:047EA000F894FFCF84
:107EA40054583A200052583A200030313233343595
:0A7EB4003637383941424344454651
:107F0000EF92FF920F931F93CF93DF93F8945C9AB5
:107F1000C0E0D0E7F3E0EF2EFF24F39405E011E199
:107F2000FE01E0925700E89507B600FCFDCFAE01D8
:107F300040505047BE01DE01A058BF46FA0185916E
:107F40009491FB010C01F0925700E89511244E5FCB
:107F50005F4F6E5F7F4F4A175B0781F7FE0100930B
:107F60005700E89507B600FCFDCF10935700E89541
:107F7000C058DF4FFEE7C038DF0709F0D1CFE0E897
:107F8000FFE683E080935700E89507B600FCFDCF3D
:107F90005C982EE088E190E00FB6F894A895809365
:0A7FA00060000FBE20936000FFCFC9
:027FF000F1029C
:0A7FF2005557533734373531333417
:037FFC00EAD5C7FC
:040000030000700089
:00000001FF
