:107000000C9459380C947E390C9476380C9476385C
:107010000C9476380C9476380C9476380C94763838
:107020000C9476380C9476380C9476380C94763828
:107030000C9476380C9476380C9476380C94763818
:107040000C9466390C9476380C94053E0C94333EBF
:107050000C9476380C9476380C9476380C947638F8
:107060000C9476380C947638002E012E0206030D0F
:1070700004E905CA063D070C0B060D210E650F50ED
:1070800010C8119312031534160117301818191669
:107090001B432156250026112D353EC30B08105BDE
:1070A00011F81547191D1A1C1BC71C001DB221B66B
:1070B00023EA11241FBECFEFD8E0DEBFCDBF12E020
:1070C000A0E0B1E0ECE9FDE702C005900D92A83E1A
:1070D000B107D9F713E0A8EEB2E001C01D92A337C3
:1070E000B107E1F70E94113C0C94CC3E0C9400389F
:1070F0000F931F93CF93DF93DA010FB7F894F999A9
:10710000FECFAB0183E0FB0180935700E89507B603
:1071100000FCFDCFFA0111E0BA0160587F4F8C915D
:1071200011963C91119720E0E901C80FD11D1296EC
:107130000E0110935700E89511243296E617F707D1
:1071400071F785E0FA0180935700E89507B600FCD7
:10715000FDCF81E180935700E8950FBF7894DF91D0
:10716000CF911F910F910895DC0111969C91119779
:1071700086E7982711969C93119712965C91129727
:1071800042E008C0FD01E20FF31F9452808198276E
:1071900090834F5F8C91242F30E0481798F3FD01C6
:1071A000E20FF31F8081852780830895DC0111960B
:1071B0009C91119786E7892711968C93119742E04D
:1071C00009C0FD01E20FF31F80819452982790833C
:1071D0004F5F982F8C91242F30E0481790F3FD01DA
:1071E000E20FF31F808112969C9189278083089576
:1071F00090E041E250E19B01220F331F87FD2160A7
:1072000077FD02C0B90103C0B901642775279F5FEC
:10721000983011F0880FEFCFCB010895CF93DF9313
:107220006FEF7FEFC0E0D0E0FE0184910E94F8385C
:10723000BC012196FFE6CE3FDF07B1F780E00E9458
:10724000F838BC0180E00E94F838FE0125913491A5
:1072500040E02817390709F441E0842FDF91CF91EE
:107260000895F89485B7982F916095BF8D7F85BF5D
:10727000E0E0F0E0099508958FB7F89495B7292FCD
:10728000216025BF926095BF8FBF089585B582604C
:1072900085BD16BCEEE6F0E08081816080830895B4
:1072A00081E08DBB82E08093690008955C9A80E55F
:1072B00093EC0197F1F75C9880ED97E028EC30E0D3
:1072C000F9013197F1F70197D9F708951F920F92BD
:1072D0000FB60F9211248F939F9316BC8091E902F1
:1072E0009091EA0201969093EA028093E9029F91BD
:1072F0008F910F900FBE0F901F9018951F920F92B5
:107300000FB60F9211242F933F934F935F936F9378
:107310007F938F939F93AF93BF93EF93FF93F894D3
:1073200087E393E00E94073D882319F081E0809372
:10733000E8027894FF91EF91BF91AF919F918F9167
:107340007F916F915F914F913F912F910F900FBE61
:107350000F901F9018950E940E39882371F080E0DD
:1073600091E00E94A83E84EC99E028EC30E0F9011D
:107370003197F1F70197D9F70895A8955C9A80E2C3
:107380009EE428EC30E0F9013197F1F70197D9F745
:107390005C9889E091E00E94A83E2EE088E190E0B0
:1073A0000FB6F894A895809360000FBE20936000FC
:1073B000FFCF8091E9029091EA028153954788F0CE
:1073C0008CE191E00E94A83E84EC99E028EC30E04A
:1073D000F9013197F1F70197D9F70E94AB390E9473
:1073E0003139089585E391E00E94A83EF89480E049
:1073F0000E94A53D7894089584E491E00E94A83EFF
:10740000F89481E00E94A53D789408950F931F930E
:107410008C010E94B438F894C80160E00E94463D97
:1074200078941F910F910895DF93CF93CDB7DEB776
:1074300065970FB6F894DEBF0FBECDBF84E591E02F
:107440000E94A83E84E189831A821B8280E18C839A
:1074500081E18D8382E28E8383E38F831886198690
:107460001A861B8683E58C8785E48D878EE48E875C
:1074700090E39F8784E5888B88E4898B80E58A8BFD
:107480008CE48B8B9C8B82E38D8BCE0101960E94CA
:10749000063A65960FB6F894DEBF0FBECDBFCF910A
:1074A000DF910895DF93CF93CDB7DEB72B970FB65B
:1074B000F894DEBF0FBECDBFFC01918124813581E0
:1074C00046818AE089839A8390E89B8382E08C835B
:1074D00081E18D8382E28E8383E38F8328873987DE
:1074E0004A879B87CE0101960E94063A2B960FB6DB
:1074F000F894DEBF0FBECDBFCF91DF910895DF932B
:10750000CF93CDB7DEB72B970FB6F894DEBF0FBE83
:10751000CDBFFC019081218132818AE089836A8319
:1075200080E88B8382E08C8381E18D8382E28E838D
:1075300083E38F83988729873A871B86CE0101963C
:107540000E94063A2B960FB6F894DEBF0FBECDBF51
:10755000CF91DF9108952F923F924F925F927F9249
:107560008F929F92AF92BF92CF92DF92EF92FF9253
:107570000F931F93DF93CF93CDB7DEB7C058D040A2
:107580000FB6F894DEBF0FBECDBF1092EA02109284
:10759000E9028EE691E00E94A83E80913803082F10
:1075A00010E00F5F1F4F772444245524CC24DD24A2
:1075B00088249924540101C087010E94773E0E94CB
:1075C000D9398091E8028823C1F387E393E00E94D0
:1075D000D6381092E80280913E03813141F48091C7
:1075E0003F03823221F480914003833319F086E80F
:1075F00091E006C080913A038A3C31F08FE991E036
:107600000E94A83E7801D8CF80913803E82EFF244D
:10761000E016F106D1F0C8010196E816F90679F4F2
:1076200081149104A104B10451F001501040089458
:1076300081089108A108B10883EB91E002C08EECAB
:1076400091E00E94A83E780102C0772049F5309071
:1076500041032224809142032101480E511C20E85D
:107660004216510419F08CEE91E045C08091370329
:1076700090E08C3891051CF080E192E03CC0A5EFD1
:10768000CA2EAFEFDA2EC80ED91ECE01019623E422
:1076900033E0B901A6010E94C33E7724739421C050
:1076A00080913703E82FF0E03997CF018C0D9D1DB5
:1076B0004816590618F48EE192E01DC021E030E032
:1076C0002C0F3D1F2C0D3D1DC90121E433E0B901F4
:1076D000AF010E94C33E8091370390E00997C80E26
:1076E000D91E80913903803209F066CFC414D504C5
:1076F00029F08FE392E00E94A83E27C08DE692E039
:107700000E94A83E5C9AC501B401F7E0660F771F9E
:10771000881F991FFA95D1F7AE014F5F5F4F0E9406
:1077200078380894811C911CA11CB11C0894E11CA0
:10773000F11C1092EA021092E9025C9884E393E053
:10774000609138030E947F3A2601772435CF0F934A
:107750001F93DF93CF9300D00F92CDB7DEB78C018C
:10776000FC01828185FF10C082E892E00E94A83E61
:10777000F8018481898385818A8386818B83CE0108
:10778000019661810E947F3A0F900F900F90CF91E8
:10779000DF911F910F9108958CE892E00E94A83E1E
:1077A0001092EA021092E9020E94773E0E94D939B3
:1077B0008091E8028823C1F387E393E00E94D638E2
:1077C0001092E80280913E03813141F480913F03A1
:1077D000823221F480914003833329F086E891E0DE
:1077E0000E94A83EE1CF80913A038B3CA9F48DE939
:1077F00092E00E94A83E80913B03809334038091E5
:107800003C038093350380913D038093360387E3E7
:1078100093E00E94A73B089587E393E00E94523AC9
:10782000C3CF14BEA89588E10FB6F894809360008A
:10783000109260000FBE549A0E9456390E94563929
:107840000E943C3985B5826085BD16BC80916E0072
:10785000816080936E0081E08DBB82E0809369003F
:1078600088E090E00E945D3E8AEB92E00E94A83E94
:10787000789488EE93E028EC30E0F9013197F1F745
:107880000197D9F70E94F2390E94143A0E94CC3B2A
:107890000E94FC390E94CC3B0E94AB3A80E090E011
:1078A00008950F931F93DF93CF930F92CDB7DEB759
:1078B000982F82958F7008ED12E0F801E80FF11D06
:1078C000808199830E94923E99819F70090F111DBA
:1078D000F80180810E94923E80E00F90CF91DF916D
:1078E0001F910F910895EF92FF920F931F93CF93E3
:1078F000DF937C018B01C0E0D0E00DC0F701EC0FFD
:10790000FD1F80810E94513C2196C017D10718F4B9
:1079100080E20E94923EC017D10780F380E0DF91A1
:10792000CF911F910F91FF90EF9008958EBD0DB4F0
:1079300007FEFDCF8EB508952A982C99FECF8EBDF7
:107940000DB407FEFDCF8EB52A9A089586E30E94F6
:107950009C3C8AE30E949C3C89E30E949C3C0895E5
:107960002A982C99FECF80648EBD0DB407FEFDCF02
:107970008EB5FB0190E008C080818EBD0DB407FE7E
:10798000FDCF8EB59F5F31969417B0F32A9A089574
:107990009C012A982C99FECF606C6EBD0DB407FE39
:1079A000FDCF8EB5F90190E007C01EBC0DB407FEF7
:1079B000FDCF8EB581939F5F9417B8F32A9A0895EF
:1079C0002A982C99FECF682B6EBD0DB407FEFDCF13
:1079D0008EB51EBC0DB407FEFDCF8EB52A9A089554
:1079E00088E360EC0E94E03C08952A982C99FECF31
:1079F0002A9A84E30E949C3C80E797E10197F1F783
:107A00000E94F03C82958695869581700895CF936B
:107A1000DF93EC018BE360EC0E94E03C282F90E0C8
:107A20008F779070892B09F127FD1FC08FE360E8E5
:107A30000E94E03C482F88838D33B8F4CE01019634
:107A40006FE30E94C83C8FE360E80E94E03C8FE354
:107A500060E80E94E03C982F9F7790933303881F43
:107A60008827881F8093310301C018828AE30E940F
:107A70009C3C86E30E949C3C84E30E949C3C8CE3FB
:107A80000E949C3C8881DF91CF9108950F931F93B2
:107A9000CF93DF93EC01162F86E30E949C3C8AE390
:107AA0000E949C3C8BE30E949C3C1123B1F085E337
:107AB0000E949C3C80ED97E028EC30E0F901319782
:107AC000F1F70197D9F780E496E028EC30E0F9016E
:107AD0003197F1F70197D9F704C080ED97E001974E
:107AE000F1F748814F5F8FE3BE010E94B03C8AE30B
:107AF0000E949C3C85E30E949C3C10E00AE185E3E7
:107B000060EC0E94E03C8D3061F085E360EC0E9407
:107B1000E03C833131F4802F8A95F1F71F5F183CE8
:107B200071F7DF91CF911F910F9108952A982C99A9
:107B3000FECF8EBD0DB407FEFDCF8EB56EBD0DB46C
:107B400007FEFDCF8EB52A9A08951F93CF93DF933A
:107B5000182F229A239A2498259A52982A9A2D9A75
:107B60002B9880E58CBD2A9A982F9A95F1F72A9840
:107B70008A95F1F72A9A88E78A95F1F780E30E94BF
:107B80009C3C88EC90E00197F1F7C8E6D0E7FE0155
:107B900084912196FE0164910E94963D2196F0E722
:107BA000CC39DF07A1F7112371F0CCE9D0E7FE0152
:107BB00084912196FE0164910E94963D2196F0E702
:107BC000C23BDF07A1F783E30E949C3C80E49FE176
:107BD0000197F1F784E30E949C3C85E360EC0E94EE
:107BE000E03C8D30B9F78EE360EC0E94963D84E373
:107BF0000E949C3C8CE30E949C3C80E797E10197AB
:107C0000F1F7DF91CF911F9108951F920F920FB658
:107C10000F9211242F938F939F93EF93FF93909143
:107C2000C0002091C600E0912D03EF5FEF718091BD
:107C30002E03E81711F492E007C09871E0932D032A
:107C4000F0E0E55FFC4F208380912F03982B909309
:107C50002F03FF91EF919F918F912F910F900FBE66
:107C60000F901F9018951F920F920FB60F9211242C
:107C70008F939F93EF93FF9390912B0380912C030D
:107C8000981769F0E0912C03EF5FEF71E0932C03FC
:107C9000F0E0E551FD4F80818093C60005C08091E2
:107CA000C1008F7D8093C100FF91EF919F918F91D3
:107CB0000F900FBE0F901F9018959C0110922B03F0
:107CC00010922C0310922D0310922E0397FF04C0E4
:107CD00082E08093C0003F773093C5002093C400BA
:107CE00088E98093C10086E08093C2000895909156
:107CF0002D0380912E03981719F420E031E010C075
:107D0000E0912E03EF5FEF71E0932E03F0E0E55F6B
:107D1000FC4F808190912F0310922F03282F30E089
:107D2000C9010895282F90912B039F5F9F71809127
:107D30002C039817E1F3E92FF0E0E551FD4F208384
:107D400090932B038091C10080628093C1000895BD
:107D5000CF93DF93EC0103C021960E94923E88816D
:107D60008823D1F7DF91CF910895CF93DF93EC0172
:107D700002C00E94923EFE01219684918823C9F799
:107D8000DF91CF910895FB01DC0102C001900D92BB
:0C7D900041505040D8F70895F894FFCF00
:107D9C00435243204F4B0D0A004352432066616906
:107DAC006C3A205265626F6F740D0A0054696D65F0
:107DBC006F75742E2053746172742070726F6772B9
:107DCC00616D210A0053776974636820746F2031E8
:107DDC00306B0A0053776974636820746F203130FC
:107DEC00306B0A0053656E6420626F6F746C6F6148
:107DFC006465722073657175656E63650A005374F2
:107E0C006172742072656365697665206669726D4E
:107E1C00776172650A00476F742064617461206237
:107E2C007574206E6F7420666F722075730A00472C
:107E3C006F74206F74686572206D7367207479702D
:107E4C00650A0052657472616E736D69742E2057E9
:107E5C00696C6C207265666C617368210A0046411E
:107E6C0054414C3A2057726F6E67206D73674964AA
:107E7C00206465746563746564210A00426C6F63E9
:107E8C006B206C656E677468206469666665722029
:107E9C007769746820706167652073697A650A0078
:107EAC00426C6F636B20746F206269670A00476FC6
:107EBC0074206D6F72652064617461207468616EEA
:107ECC0020626C6F636B206C656E6774680A00428D
:107EDC006C6F636B206C656E67746820616E6420D8
:107EEC00626C6F636B20706F736974696F6E206462
:107EFC006F206E6F74206D617463680A00476F7435
:107F0C0020636F6D706C65746520626C6F636B21A0
:107F1C000A0053656E642061636B0A0057616974D3
:107F2C0020666F72204342204D73670A00476F74BE
:107F3C00206D65737361676520746F207374617253
:107F4C007420636F6E6669670A000A41736B53692C
:107F5C006E204F544120626F6F746C6F6164657258
:107F6C002056302E350A0A0030313233343536374C
:087F7C003839414243444546F7
:0F7FF000F10153454E305448504C30321122337A
:040000030000700089
:00000001FF
