:10E000000C9435710C940D720C9447710C944771FB
:10E010000C9447710C9447710C9447710C944771A0
:10E020000C9447710C9447710C9447710C94477190
:10E030000C9447710C9447710C9447710C94477180
:10E040000C9447710C9447710C94F5710C944771C2
:10E050000C940C760C943A760C9447710C9447719E
:10E060000C9447710C9447710C9447710C94477150
:10E070002E007061676553697A6520616E64206265
:10E080006C6F636B506F73206469666665720A001B
:10E09000546F206D616E79206461746120666F72C7
:10E0A0002063757272656E74207061676553697A5A
:10E0B000650A00426C6F636B206C656E6774682044
:10E0C000646966666572207061676553697A650A7E
:10E0D0000052657472616E736D69742E20576520ED
:10E0E00077696C6C20726520666C617368210A0028
:10E0F000476F74206F74686572206D657373616714
:10E100006520747970650A005374617274207265B9
:10E110006365697665206669726D776172650A006C
:10E12000476F74204342206D6573736167650A0011
:10E130005761697420666F72204342206D65737366
:10E140006167650A0053656E6420626F6F746C6F5F
:10E15000616465722073657175656E63650A000A96
:10E1600054696D656F75740A00537461727420414F
:10E1700070700A00537461727420626F6F746C6FF8
:10E18000616465722053656C6620557064617465C6
:10E19000210A00435243206661696C3A205265624D
:10E1A0006F6F740A00435243204F4B0A007061673F
:10E1B0006541646472206578636565647320617687
:10E1C00061696C61626C6520666C617368206D6565
:10E1D0006D6F72790A0053776974636820746F20D9
:10E1E0003130306B206D6F64650A000A41736B53E8
:10E1F000696E204F544120426F6F746C6F6164658B
:10E20000722056302E372E300A0A00537769746315
:10E210006820746F2031306B206D6F64650A0000D8
:10E220002E012E0206030D04E905CA063D070C0B5C
:10E23000060D210E650F5010C811931203153416E8
:10E24000011730181819161B432156250026112DC9
:10E25000353EC30B08105B11F81547191D1A1C1B1E
:10E26000C71C001DB221B623EA0011241FBECFEF48
:10E27000D0E1DEBFCDBF11E0A0E0B1E001C01D9252
:10E28000A13DB107E1F70E947C740C94DC760C94FC
:10E2900000702FB7F89485B7982F916095BF826072
:10E2A00085BF2FBF85B5826085BD16BCEEE6F0E068
:10E2B00080818160808381E08DBB82E080936900F2
:10E2C0000895CF93DF93809100018823D9F1F894CA
:10E2D000109200014091950140935901809196015F
:10E2E00096E7892780935A01E6E9F1E0CBE5D1E092
:10E2F000A1E5B1E030E022E013C090819452818129
:10E3000098279883822F8750833030F48C91981708
:10E3100011F030E007C031E02F5F31962196119661
:10E32000241758F3A22FB0E0FD01EB56FE4F808179
:10E3300090915B018927A75ABE4F8C937894832FC5
:10E34000311181E0DF91CF91089590E041E250E1F9
:10E350009B01220F331F87FD216077FD02C0B901A9
:10E3600003C0B901642775279F5F983011F0880FAB
:10E37000EFCFCB010895CF93DF936FEF7FEFC0E036
:10E38000D0E0FE0184910E94A571BC012196FFEDB1
:10E39000CE3FDF07B1F780E00E94A571BC0180E0AD
:10E3A0000E94A571FE012591349140E0281739079C
:10E3B00009F441E0842FDF91CF910895289A20ED50
:10E3C00037E004C0F9013197F1F701970097D1F7D1
:10E3D000289820ED37E005C0C9010197F1F7615099
:10E3E000704061157105C1F708951F920F920FB625
:10E3F0000F9211248F939F9316BC809101019091ED
:10E400000201019690930201809301019F918F91E7
:10E410000F900FBE0F901F9018951F920F920FB67E
:10E420000F9211242F933F934F935F936F937F939A
:10E430008F939F93AF93BF93EF93FF93F89485E9E6
:10E4400091E00E942875882319F081E080930001F3
:10E450007894FF91EF91BF91AF919F918F917F91B0
:10E460006F915F914F913F912F910F900FBE0F9041
:10E470001F9018951F93ECEFFFED859194918151BA
:10E480009744A1F484E791EE0E94BC7680E09AEF75
:10E490000197F1F710E082E390E062E370E00E9400
:10E4A000DE711F5F1A30B9F70E94807F89E691EE16
:10E4B0000E94BC7680E09AEF0197F1F75F98289868
:10E4C000F89485B7982F916095BF8D7F85BFE0E068
:10E4D000F0E009951F9108950E94BB71882329F0EF
:10E4E00085EA91EE0E94BC76089580ED97E061E0A8
:10E4F00070E00E94DE7183E991EE0E94BC76A895DF
:10E500002EE088E190E00FB6F894A8958093600023
:10E510000FBE20936000FFCF809101019091020116
:10E520008153954740F08FE591EE0E94BC760E94A2
:10E530006C720E943A7208951F93CF93DF93DA01B1
:10E5400061302FED720720E0820720E0920728F06B
:10E550008DEA91EE0E94BC7630C0F894F999FECF16
:10E56000AB0183E0FB0180935700E89507B600FC00
:10E57000FDCFFA0111E0BA0160507F4F8C911196E6
:10E580003C91119720E0E901C80FD11D12960E01B0
:10E5900010935700E89511243296E617F70771F7A4
:10E5A00085E0FA0180935700E89507B600FCFDCF9F
:10E5B00081E180935700E8957894DF91CF911F9186
:10E5C0000895DC0111969C91119786E79827119682
:10E5D0009C93119712965C91129742E008C0FD013E
:10E5E000E20FF31F94528081982790834F5F8C91A4
:10E5F000242F30E0481798F3FD01E20FF31F8081CC
:10E6000085278083F894CD0160E00E946775789437
:10E6100008950F931F93DF93CF93CDB7DEB7659720
:10E620000FB6F894DEBF0FBECDBF85E491EE0E9419
:10E63000BC7690915601209157013091580140913C
:10E6400048015091490160914A0170914B01E0915C
:10E650004C01F0914D01A0914E01B0914F011091EC
:10E6600050010091510184E189831A821B8280E16B
:10E670008C839D832E833F83188619861A861B867A
:10E680004C875D876E877F87E88BF98BAA8BBB8B66
:10E690001C8B0D8BCE0101960E94E17265960FB620
:10E6A000F894DEBF0FBECDBFCF91DF911F910F91C8
:10E6B0000895DF93CF93CDB7DEB72B970FB6F894BD
:10E6C000DEBF0FBECDBFFC01A62F662319F48281E9
:10E6D00085FF1CC0918120915601309157014091D6
:10E6E00058015481658176818AE089839A8380E824
:10E6F0008B8382E08C832D833E834F835887698789
:10E700007A87AB87CE0101960E94E1722B960FB6F5
:10E71000F894DEBF0FBECDBFCF91DF9108952F9249
:10E720003F924F925F926F927F928F929F92AF92A1
:10E73000BF92CF92DF92EF92FF920F931F93DF93DE
:10E74000CF93CDB7DEB7C050D1400FB6F894DEBF3F
:10E750000FBECDBFA0905A0110920201109201018C
:10E7600088E091EE0E94BC76BB2400E010E0CC244F
:10E77000DD2476012E010894411C511CB3E66B2E5A
:10E78000B1E07B2EA2E02A2E312C260C371C02C0D1
:10E79000BB24B3940E948C720E9461718823D1F3D0
:10E7A00080915C018A3C29F080EF90EE0E94BC765B
:10E7B000F1CF80915A018A1589F4BB2071F5C114FB
:10E7C000D104E104F10461F00894C108D108E10822
:10E7D000F10881ED90EE0E94BC7602C0BB20E9F406
:10E7E000909063018824809164019401280F311D69
:10E7F000C9018050914029F083EB90EE0E94BC76D5
:10E80000C7CF80915901082F10E00B501040C20172
:10E81000B101A8010E94D37620C080915901E82F50
:10E82000F0E03997CF01800F911F8150914018F08F
:10E8300080E990EE1DC09201200F311FC901B30184
:10E84000AF010E94D3768091590190E00997080F9B
:10E85000191F31E0B31609F09DCF80915B01803222
:10E8600009F096CF81E00030180729F082E790EE9A
:10E870000E94BC761DC080E790EE0E94BC76289A6C
:10E880009E2D8D2D7C2D6627A2010E949C720894DE
:10E89000C11CD11CE11CF11C10920201109201015B
:10E8A0002898A0905A0189E591E060E00E94597390
:10E8B000BB2470CF80E391EE0E94BC7610920201DF
:10E8C000109201010E948C720E9461718823D1F321
:10E8D00080915C018B3C51F480E291EE0E94BC7609
:10E8E00089E591E060E00E945973089589E591E01F
:10E8F00060E80E945973E6CF1F9314B714BEA89521
:10E9000088E10FB6F89480936000109260000FBE0B
:10E91000209A89E190E068EC70E00E94DE710E942C
:10E9200049718BE092EE0E94BC7680E00E94AA754D
:10E9300088E090E00E9464768BEE91EE0E94BC76B7
:10E9400057985F9A8AE18A95F1F74F9B08C013FDAB
:10E9500006C00E94BB71882311F00E943A7289E1BF
:10E9600090E068EC70E00E94DE7186E591E06CEF6B
:10E970007FEF43E050E00E94CA7688E491E062EFC6
:10E980007FEF4AE050E00E94CA760E9409730E941D
:10E990005A7486ED91EE0E94BC7681E00E94AA75C1
:10E9A0000E945A740E948F7380E090E01F91089536
:10E9B0008EBD0DB407FEFDCF8EB508952C982E990F
:10E9C000FECF8EBD0DB407FEFDCF8EB52C9A0895F7
:10E9D0002C982E99FECF80648EBD0DB407FEFDCF1E
:10E9E0008EB5FB0190E008C080818EBD0DB407FE9E
:10E9F000FDCF8EB59F5F31969417B0F32C9A089592
:10EA00009C012C982E99FECF606C6EBD0DB407FE54
:10EA1000FDCF8EB5F90190E007C01EBC0DB407FE16
:10EA2000FDCF8EB581939F5F9417B8F32C9A08950C
:10EA30002C982E99FECF682B6EBD0DB407FEFDCF2E
:10EA40008EB51EBC0DB407FEFDCF8EB52C9A089571
:10EA5000CF93DF93EC018BE360EC0E941875282FB5
:10EA600090E08F779070892B09F127FD1FC08FE30D
:10EA700060E80E941875482F88838D33B8F4CE0162
:10EA800001966FE30E9400758FE360E80E9418759D
:10EA90008FE360E80E941875982F9F779093550137
:10EAA000881F8827881F8093530101C018828AE33A
:10EAB0000E94DE7486E30E94DE7484E30E94DE74AA
:10EAC0008CE30E94DE748881DF91CF9108950F93CB
:10EAD0001F938C0186E30E94DE748AE30E94DE7439
:10EAE0008BE30E94DE7480ED97E00197F1F7F80167
:10EAF00040814F5F8FE3B8010E94E8748AE30E946F
:10EB0000DE7485E30E94DE7400E01AE185E360ECC8
:10EB10000E9418758D3061F085E360EC0E941875D5
:10EB2000833131F4812F8A95F1F70F5F083C71F73B
:10EB30001F910F9108952C982E99FECF8EBD0DB484
:10EB400007FEFDCF8EB56EBD0DB407FEFDCF8EB5B1
:10EB50002C9A08951F93CF93DF93182FF894249A3B
:10EB6000259A2698279A52982C9A2F9A2D9880E5C4
:10EB70008CBD2C9A982F9A95F1F72C988A95F1F7DD
:10EB80002C9A88E78A95F1F780E30E94DE7488EC7E
:10EB900090E00197F1F7CFE1D2EEFE01849121964A
:10EBA000FE0164910E949B752196F2EEC335DF074A
:10EBB000A1F7112371F0C3E5D2EEFE0184912196F5
:10EBC000FE0164910E949B752196F2EEC936DF0723
:10EBD000A1F783E30E94DE7480E49FE10197F1F7DF
:10EBE00084E30E94DE7485E360EC0E9418758D302A
:10EBF000B9F78EE360EC0E949B7584E30E94DE749B
:10EC00008CE30E94DE7480E797E10197F1F7789436
:10EC1000DF91CF911F9108951F920F920FB60F921F
:10EC200011242F938F939F93EF93FF939091C000A4
:10EC30002091C600E0914501EF5FEF7180914601A0
:10EC4000E81711F492E007C09871E0934501F0E0F5
:10EC5000ED5DFE4F208380914701982B90934701F3
:10EC6000FF91EF919F918F912F910F900FBE0F9079
:10EC70001F9018951F920F920FB60F9211248F9329
:10EC80009F93EF93FF9390914301809144019817D4
:10EC900069F0E0914401EF5FEF71E0934401F0E02F
:10ECA000ED5FFE4F80818093C60005C08091C1005A
:10ECB0008F7D8093C100FF91EF919F918F910F9075
:10ECC0000FBE0F901F9018959C0110924301109257
:10ECD0004401109245011092460197FF04C082E062
:10ECE0008093C0003F773093C5002093C40088E92B
:10ECF0008093C10086E08093C20008959091450101
:10ED000080914601981719F420E031E010C0E0919D
:10ED10004601EF5FEF71E0934601F0E0ED5DFE4FDD
:10ED200080819091470110924701282F30E0C9015E
:10ED30000895282F909143019F5F9F718091440116
:10ED40009817E1F3E92FF0E0ED5FFE4F20839093F9
:10ED500043018091C10080628093C1000895CF93E8
:10ED6000DF93EC0103C021960E9499768881882365
:10ED7000D1F7DF91CF910895CF93DF93EC0102C0DB
:10ED80000E949976FE01219684918823C9F7DF912C
:10ED9000CF910895FB01DC0102C005900D92415016
:10EDA0005040D8F70895FB01DC0102C001900D929C
:0CEDB00041505040D8F70895F894FFCF70
:10FF00000F931F93F894289A60E070E003E011E0EB
:10FF1000B5E0A1E1AB0140505042FA010093570017
:10FF2000E89507B600FCFDCF20E030E0F901E60FD0
:10FF3000F71F85919491F901E40FF51F0C011093BF
:10FF40005700E89511242E5F3F4FF1E020303F0726
:10FF500069F7FA01B0935700E89507B600FCFDCFAA
:10FF6000A0935700E89560507F4FFEE160307F0717
:10FF700009F0D0CFE0E0FFED83E080935700E895F3
:10FF800007B600FCFDCF28982EE088E190E00FB680
:10FF9000F894A895809360000FBE20936000FFCF77
:02FFF000009679
:0AFFF2004B455130303030303031D3
:03FFFC0012345666
:040000030000E00019
:00000001FF
